{"contracts/TwoThirdsAverageGame.sol":{"TwoThirdsAverageGame":{"abi":[{"inputs":[{"internalType":"uint256","name":"_minPlayers","type":"uint256"},{"internalType":"uint256","name":"_maxPlayers","type":"uint256"},{"internalType":"uint256","name":"_commitDuration","type":"uint256"},{"internalType":"uint256","name":"_revealDuration","type":"uint256"},{"internalType":"uint256","name":"_entryFee","type":"uint256"},{"internalType":"uint256","name":"_serviceFeePercent","type":"uint256"},{"internalType":"uint256","name":"_autoStartDelay","type":"uint256"}],"stateMutability":"nonpayable","type":"constructor"},{"inputs":[{"internalType":"address","name":"owner","type":"address"}],"name":"OwnableInvalidOwner","type":"error"},{"inputs":[{"internalType":"address","name":"account","type":"address"}],"name":"OwnableUnauthorizedAccount","type":"error"},{"inputs":[],"name":"ReentrancyGuardReentrantCall","type":"error"},{"anonymous":false,"inputs":[{"indexed":false,"internalType":"uint256","name":"average","type":"uint256"},{"indexed":false,"internalType":"uint256","name":"twoThirdsAverage","type":"uint256"},{"indexed":false,"internalType":"address","name":"winner","type":"address"},{"indexed":false,"internalType":"uint256","name":"prize","type":"uint256"}],"name":"GameEnded","type":"event"},{"anonymous":false,"inputs":[{"indexed":false,"internalType":"uint256","name":"startTime","type":"uint256"},{"indexed":false,"internalType":"uint256","name":"commitStart","type":"uint256"},{"indexed":false,"internalType":"uint256","name":"commitEnd","type":"uint256"},{"indexed":false,"internalType":"uint256","name":"entryFee","type":"uint256"},{"indexed":false,"internalType":"uint256","name":"minPlayers","type":"uint256"},{"indexed":false,"internalType":"uint256","name":"maxPlayers","type":"uint256"}],"name":"GameStarting","type":"event"},{"anonymous":false,"inputs":[{"indexed":true,"internalType":"address","name":"player","type":"address"}],"name":"GuessCommitted","type":"event"},{"anonymous":false,"inputs":[{"indexed":true,"internalType":"address","name":"player","type":"address"},{"indexed":false,"internalType":"uint256","name":"guess","type":"uint256"}],"name":"GuessRevealed","type":"event"},{"anonymous":false,"inputs":[{"indexed":true,"internalType":"address","name":"previousOwner","type":"address"},{"indexed":true,"internalType":"address","name":"newOwner","type":"address"}],"name":"OwnershipTransferred","type":"event"},{"anonymous":false,"inputs":[{"indexed":true,"internalType":"address","name":"player","type":"address"},{"indexed":false,"internalType":"uint256","name":"entryFeePaid","type":"uint256"}],"name":"PlayerJoined","type":"event"},{"anonymous":false,"inputs":[{"indexed":true,"internalType":"address","name":"recipient","type":"address"},{"indexed":false,"internalType":"uint256","name":"amount","type":"uint256"}],"name":"Withdrawal","type":"event"},{"inputs":[],"name":"autoStartDelay","outputs":[{"internalType":"uint256","name":"","type":"uint256"}],"stateMutability":"view","type":"function"},{"inputs":[],"name":"average","outputs":[{"internalType":"uint256","name":"","type":"uint256"}],"stateMutability":"view","type":"function"},{"inputs":[],"name":"commitDuration","outputs":[{"internalType":"uint256","name":"","type":"uint256"}],"stateMutability":"view","type":"function"},{"inputs":[{"internalType":"bytes32","name":"hash","type":"bytes32"}],"name":"commitGuess","outputs":[],"stateMutability":"nonpayable","type":"function"},{"inputs":[],"name":"currentPhase","outputs":[{"internalType":"enum TwoThirdsAverageGame.GamePhase","name":"","type":"uint8"}],"stateMutability":"view","type":"function"},{"inputs":[],"name":"entryFee","outputs":[{"internalType":"uint256","name":"","type":"uint256"}],"stateMutability":"view","type":"function"},{"inputs":[],"name":"finalizeGame","outputs":[],"stateMutability":"nonpayable","type":"function"},{"inputs":[],"name":"getPhase","outputs":[{"internalType":"enum TwoThirdsAverageGame.GamePhase","name":"","type":"uint8"}],"stateMutability":"view","type":"function"},{"inputs":[],"name":"getPlayerCount","outputs":[{"internalType":"uint256","name":"","type":"uint256"}],"stateMutability":"view","type":"function"},{"inputs":[],"name":"getPlayers","outputs":[{"internalType":"address[]","name":"","type":"address[]"}],"stateMutability":"view","type":"function"},{"inputs":[],"name":"getResults","outputs":[{"components":[{"internalType":"uint256","name":"average","type":"uint256"},{"internalType":"uint256","name":"twoThirdsAverage","type":"uint256"},{"internalType":"address","name":"winner","type":"address"},{"internalType":"uint256","name":"prize","type":"uint256"},{"internalType":"uint256","name":"serviceFee","type":"uint256"}],"internalType":"struct TwoThirdsAverageGame.Results","name":"r","type":"tuple"}],"stateMutability":"view","type":"function"},{"inputs":[],"name":"getTimeRemaining","outputs":[{"internalType":"uint256","name":"","type":"uint256"}],"stateMutability":"view","type":"function"},{"inputs":[],"name":"joinGame","outputs":[],"stateMutability":"payable","type":"function"},{"inputs":[],"name":"leaveGame","outputs":[],"stateMutability":"nonpayable","type":"function"},{"inputs":[],"name":"maxPlayers","outputs":[{"internalType":"uint256","name":"","type":"uint256"}],"stateMutability":"view","type":"function"},{"inputs":[],"name":"minPlayers","outputs":[{"internalType":"uint256","name":"","type":"uint256"}],"stateMutability":"view","type":"function"},{"inputs":[],"name":"minPlayersReachedTime","outputs":[{"internalType":"uint256","name":"","type":"uint256"}],"stateMutability":"view","type":"function"},{"inputs":[],"name":"owner","outputs":[{"internalType":"address","name":"","type":"address"}],"stateMutability":"view","type":"function"},{"inputs":[{"internalType":"address","name":"","type":"address"}],"name":"pendingWithdrawals","outputs":[{"internalType":"uint256","name":"","type":"uint256"}],"stateMutability":"view","type":"function"},{"inputs":[{"internalType":"uint256","name":"","type":"uint256"}],"name":"playerAddresses","outputs":[{"internalType":"address","name":"","type":"address"}],"stateMutability":"view","type":"function"},{"inputs":[{"internalType":"address","name":"","type":"address"}],"name":"players","outputs":[{"internalType":"bytes32","name":"commitment","type":"bytes32"},{"internalType":"uint256","name":"revealedGuess","type":"uint256"},{"internalType":"bool","name":"hasCommitted","type":"bool"},{"internalType":"bool","name":"hasRevealed","type":"bool"},{"internalType":"bool","name":"hasJoined","type":"bool"}],"stateMutability":"view","type":"function"},{"inputs":[],"name":"prizePool","outputs":[{"internalType":"uint256","name":"","type":"uint256"}],"stateMutability":"view","type":"function"},{"inputs":[],"name":"renounceOwnership","outputs":[],"stateMutability":"nonpayable","type":"function"},{"inputs":[],"name":"revealDuration","outputs":[{"internalType":"uint256","name":"","type":"uint256"}],"stateMutability":"view","type":"function"},{"inputs":[{"internalType":"uint256","name":"guess","type":"uint256"},{"internalType":"bytes32","name":"salt","type":"bytes32"}],"name":"revealGuess","outputs":[],"stateMutability":"nonpayable","type":"function"},{"inputs":[],"name":"serviceFeePercent","outputs":[{"internalType":"uint256","name":"","type":"uint256"}],"stateMutability":"view","type":"function"},{"inputs":[{"internalType":"address","name":"newOwner","type":"address"}],"name":"transferOwnership","outputs":[],"stateMutability":"nonpayable","type":"function"},{"inputs":[],"name":"twoThirdsAverage","outputs":[{"internalType":"uint256","name":"","type":"uint256"}],"stateMutability":"view","type":"function"},{"inputs":[],"name":"winner","outputs":[{"internalType":"address","name":"","type":"address"}],"stateMutability":"view","type":"function"},{"inputs":[],"name":"withdraw","outputs":[],"stateMutability":"nonpayable","type":"function"}],"evm":{"bytecode":{"linkReferences":{},"object":"60803461025857601f611c0138819003918201601f19168301916001600160401b0383118484101761025d5780849260e094604052833981010312610258578051906020810151604082015160608301519060808401519260c060a08601519501519533156102425760008054336001600160a01b03198216811783556040519290916001600160a01b0316907f8be0079c531659141344cd1fd0a4f28419497f9722a3daafe3b4186f6b6457e09080a3600180556003821061020d5750808211156101dc5782156101a657831561017057861561013f576014861161010d5760025560035560045560055560065560075560085560ff196009541660095560405161198d90816102748239f35b60405162461bcd60e51b815260206004820152600a602482015269466565203c3d2032302560b01b6044820152606490fd5b60405162461bcd60e51b8152602060048201526009602482015268044656c6179203e20360bc1b6044820152606490fd5b60405162461bcd60e51b815260206004820152600e60248201526d052657665616c20647572203e20360941b6044820152606490fd5b60405162461bcd60e51b815260206004820152600e60248201526d0436f6d6d697420647572203e20360941b6044820152606490fd5b60405162461bcd60e51b815260206004820152600960248201526826b0bc101f1036b4b760b91b6044820152606490fd5b62461bcd60e51b815260206004820152601060248201526f4d696e20706c6179657273203e3d203360801b6044820152606490fd5b631e4fbdf760e01b600052600060045260246000fd5b600080fd5b634e487b7160e01b600052604160045260246000fdfe608080604052600436101561001357600080fd5b60003560e01c908163055ad42e1461102c57508063072ea61c1461100e57806307f6aee814610ff05780630a4a922e14610fd257806315c6aee214610f90578063180c18c314610dda5780632770c89514610dbc5780633ccfd60b14610c995780634717f97c14610c465780634c2412a214610c28578063608a5d9514610b1f5780636f83381114610b01578063715018a614610aa8578063719ce73e14610a8a578063886a6de114610a6c5780638b5b9ccc146109bc5780638da5cb5b14610993578063995bc51e14610975578063b03b203014610905578063b07ddf8a146108e7578063b1501f9c146106f3578063b250717a146106d5578063c2e52206146106b7578063d4f77b1c14610325578063dac6270d14610302578063dfbf53ae146102d9578063e2eb41ff14610265578063eced028014610239578063f2fde38b146101ac5763f3f437031461016957600080fd5b346101a75760203660031901126101a7576004356001600160a01b038116908190036101a75760005260116020526020604060002054604051908152f35b600080fd5b346101a75760203660031901126101a7576004356001600160a01b038116908190036101a7576101da6115af565b801561022357600080546001600160a01b03198116831782556001600160a01b0316907f8be0079c531659141344cd1fd0a4f28419497f9722a3daafe3b4186f6b6457e09080a3005b631e4fbdf760e01b600052600060045260246000fd5b346101a75760003660031901126101a757610261610255611513565b60405191829182611049565b0390f35b346101a75760203660031901126101a7576004356001600160a01b038116908190036101a757600052600b60205260a0604060002060ff8154916002600182015491015490604051938452602084015281811615156040840152818160081c161515606084015260101c1615156080820152f35b346101a75760003660031901126101a757600f546040516001600160a01b039091168152602090f35b346101a75760003660031901126101a757602061031d61148c565b604051908152f35b60003660031901126101a75761033961158d565b610341611513565b60068110156106545715801561069d575b1561066a5760ff600954166006811015610654576001148061063c575b61060257600c5460035411156105d15733600052600b60205260ff60026040600020015460101c1661059b576006543403610564576040516103b08161108d565b60008082526020808301828152604080850184815260608601858152600160808801818152338852600b90965292909520955186559151908501555160029390930180549251915162ffffff1990931660ff941515949094169390931790151560081b61ff00161790151560101b62ff000016179055600c54600160401b81101561054e576104488160016104669301600c5561105c565b81546001600160a01b0360039290921b91821b19163390911b179055565b610472346010546110cb565b6010556040513481527f3330a6773675f31f62070870f40379f8c6d42e3761410011a4dfc42b18043d2f60203392a2600c54600254111580610544575b6104ba575b60018055005b42600a55600160ff1960095416176009557ff2546de66f180061ee75953fe1999fc0475daef64d87e75ad834022b57031d2f60c0600a5460085461051461050b61050483856110cb565b92846110cb565b600454906110cb565b6006546002549160035493604051958652602086015260408501526060840152608083015260a0820152a16104b4565b50600a54156104af565b634e487b7160e01b600052604160045260246000fd5b60405162461bcd60e51b815260206004820152600f60248201526e57726f6e6720656e7472792066656560881b6044820152606490fd5b60405162461bcd60e51b815260206004820152600e60248201526d105b1c9958591e481a9bda5b995960921b6044820152606490fd5b60405162461bcd60e51b815260206004820152600960248201526811d85b5948199d5b1b60ba1b6044820152606490fd5b60405162461bcd60e51b8152602060048201526012602482015271129bda5b881dda5b991bddc818db1bdcd95960721b6044820152606490fd5b5061064c600a54600854906110cb565b42101561036f565b634e487b7160e01b600052602160045260246000fd5b60405162461bcd60e51b815260206004820152600b60248201526a21b0b73737ba103537b4b760a91b6044820152606490fd5b506106a6611513565b600681101561065457600114610352565b346101a75760003660031901126101a7576020600c54604051908152f35b346101a75760003660031901126101a7576020600d54604051908152f35b346101a75760003660031901126101a75761070c61158d565b610714611513565b6006811015610654576108ae5733600052600b60205261074160ff60026040600020015460101c16611453565b33600052600b602052600260406000200162ff000019815416905560065461076b81601054611164565b60105533600052601160205261078760406000209182546110cb565b9055600c546000805b82811061087d575b506000198201918211610867576107cc6107b46107f09361105c565b905460039190911b1c6001600160a01b03169161105c565b81546001600160a01b0393841660039290921b91821b9390911b1916919091179055565b600c54801561085157600019016108068161105c565b81549060018060a01b039060031b1b19169055600c556006546040519081527f7fcf532c15f0a6db0bd6d0e038bea71d30d808c7d98cb3bf7268a95bf5081b6560203392a260018055005b634e487b7160e01b600052603160045260246000fd5b634e487b7160e01b600052601160045260246000fd5b6108868161105c565b905460039190911b1c6001600160a01b031633146108a657600101610790565b905082610798565b60405162461bcd60e51b8152602060048201526011602482015270546f6f206c61746520746f206c6561766560781b6044820152606490fd5b346101a75760003660031901126101a7576020600a54604051908152f35b346101a75760003660031901126101a75761091e61158d565b610926611513565b60068110156106545760040361093e576104b46115d8565b60405162461bcd60e51b815260206004820152600f60248201526e4e6f742066696e616c697a61626c6560881b6044820152606490fd5b346101a75760003660031901126101a7576020600754604051908152f35b346101a75760003660031901126101a7576000546040516001600160a01b039091168152602090f35b346101a75760003660031901126101a757604051806020600c5492838152018092600c60005260206000209060005b818110610a4d5750505081610a019103826110a9565b6040519182916020830190602084525180915260408301919060005b818110610a2b575050500390f35b82516001600160a01b0316845285945060209384019390920191600101610a1d565b82546001600160a01b03168452602090930192600192830192016109eb565b346101a75760003660031901126101a7576020600554604051908152f35b346101a75760003660031901126101a7576020601054604051908152f35b346101a75760003660031901126101a757610ac16115af565b600080546001600160a01b0319811682556001600160a01b03167f8be0079c531659141344cd1fd0a4f28419497f9722a3daafe3b4186f6b6457e08280a3005b346101a75760003660031901126101a7576020600454604051908152f35b346101a75760203660031901126101a757610b3861158d565b610b40611513565b600681101561065457600203610bf05733600052600b602052604060002060028101908154610b7460ff8260101c16611453565b60ff8116610bb75760043590915560ff19166001179055337f2245d2014b9bc41d5ccc6707edcba84a49b93b49441335f266a3e83b4e6330fd600080a260018055005b60405162461bcd60e51b8152602060048201526011602482015270105b1c9958591e4818dbdb5b5a5d1d1959607a1b6044820152606490fd5b60405162461bcd60e51b815260206004820152601060248201526f4e6f7420636f6d6d697420706861736560801b6044820152606490fd5b346101a75760003660031901126101a7576020600354604051908152f35b346101a75760003660031901126101a75760a0610c6161119c565b6080604051918051835260208101516020840152600180851b0360408201511660408401526060810151606084015201516080820152f35b346101a75760003660031901126101a757610cb261158d565b3360005260116020526040600020548015610d8c5733600052601160205260006040812055600080808084335af13d15610d87573d67ffffffffffffffff811161054e5760405190610d0e601f8201601f1916602001836110a9565b8152600060203d92013e5b15610d50576040519081527f7fcf532c15f0a6db0bd6d0e038bea71d30d808c7d98cb3bf7268a95bf5081b6560203392a260018055005b60405162461bcd60e51b815260206004820152600f60248201526e15da5d1a191c985dc819985a5b1959608a1b6044820152606490fd5b610d19565b60405162461bcd60e51b81526020600482015260086024820152674e6f2066756e647360c01b6044820152606490fd5b346101a75760003660031901126101a7576020600254604051908152f35b346101a75760403660031901126101a757600435610df661158d565b610dfe611513565b600681101561065457600303610f585733600052600b60205260406000206002810190815460ff8160101c1680610f4e575b15610f1d5760ff8160081c16610ee5576040516020810190858252602435604082015260408152610e626060826110a9565b519020825403610eaf5783600161010093015561ff0019161790556040519081527f54e8949e94ed0014d3a5385209b286177ba08c3416d2ee667a54f0341c46dd1d60203392a260018055005b60405162461bcd60e51b815260206004820152600e60248201526d125b9d985b1a59081c995d99585b60921b6044820152606490fd5b60405162461bcd60e51b815260206004820152601060248201526f105b1c9958591e481c995d99585b195960821b6044820152606490fd5b60405162461bcd60e51b8152602060048201526009602482015268139bc818dbdb5b5a5d60ba1b6044820152606490fd5b5060ff8116610e30565b60405162461bcd60e51b815260206004820152601060248201526f4e6f742072657665616c20706861736560801b6044820152606490fd5b346101a75760203660031901126101a757600435600c548110156101a757610fb960209161105c565b905460405160039290921b1c6001600160a01b03168152f35b346101a75760003660031901126101a7576020600e54604051908152f35b346101a75760003660031901126101a7576020600854604051908152f35b346101a75760003660031901126101a7576020600654604051908152f35b346101a75760003660031901126101a7578061026160ff60095416825b9190602083019260068210156106545752565b600c5481101561107757600c60005260206000200190600090565b634e487b7160e01b600052603260045260246000fd5b60a0810190811067ffffffffffffffff82111761054e57604052565b90601f8019910116810190811067ffffffffffffffff82111761054e57604052565b9190820180921161086757565b60001981146108675760010190565b81156110f1570490565b634e487b7160e01b600052601260045260246000fd5b8181029291811591840414171561086757565b67ffffffffffffffff811161054e5760051b60200190565b9061113c8261111a565b61114960405191826110a9565b828152809261115a601f199161111a565b0190602036910137565b9190820391821161086757565b8051156110775760200190565b80518210156110775760209160051b010190565b81156110f1570690565b6040516111a88161108d565b600080825260208201818152604083018281526060840183815260808501848152600c54938593879391855b8781106113f3575087156113cc575050505050826111f1916110e7565b908184528160011b918083046002149015171561086757916003602085019204825261121f60001991611132565b926000926000925b8284106112e257505050506001810361127e57506001600160a01b039061124d90611171565b511660408201525b601054611271606461126960075484611107565b048092611164565b6060830152608082015290565b906112d6906112d060405193602085016112bc866112ae8444428691606093918352602083015260408201520190565b03601f1981018852876110a9565b94519094206001600160a01b039490611192565b9061117e565b51166040820152611255565b909192936112ef8561105c565b60018060a01b0391549060031b1c16600052600b602052604060002060ff600282015460081c16156113bf5760010154835190818111156113b0576113379150845190611164565b915b8083101561137357505090600161134f8561105c565b828060a01b0391549060031b1c1694819561136988611171565b525b019291611227565b92919483600192960361136b576113898161105c565b838060a01b0391549060031b1c166113aa6113a3886110d8565b978961117e565b5261136b565b6113b991611164565b91611339565b509360019092919261136b565b60008086529081905280546001600160a01b03169091526010549091529052949350505050565b6113fc8161105c565b60018060a01b0391549060031b1c16600052600b602052604060002060ff600282015460081c16611431575b506001016111d4565b6114466001929a988361144c930154906110cb565b976110d8565b9890611428565b1561145a57565b60405162461bcd60e51b815260206004820152600a602482015269139bdd081a9bda5b995960b21b6044820152606490fd5b600c546002541161150e576114a6600a54600854906110cb565b6114b2600454826110cb565b906114bf600554836110cb565b918142106000146114da57506114d791504290611164565b90565b80915042106000146114f2576114d791504290611164565b50804210600014611508576114d7904290611164565b50600090565b600090565b60ff6009541660068110156106545760051461158857600c546002541161150e57611543600a54600854906110cb565b61154f600454826110cb565b61155b600554826110cb565b9142101561156a575050600190565b4210156115775750600290565b42101561158357600390565b600490565b600590565b60026001541461159e576002600155565b633ee5aeb560e01b60005260046000fd5b6000546001600160a01b031633036115c357565b63118cdaa760e01b6000523360045260246000fd5b600080600c549060005b8281106118f75750821561184657826115fa916110e7565b80600d558060011b908082046002149015171561086757600390049081600e5561162660001993611132565b9260009260005b83811061176c57505050506001810361172557506001600160a01b039061165390611171565b511660018060a01b0319600f541617600f555b7f1d3b18309fcd7be02b3cb02a6b2eebf55bdc38f582585bbad82e449da17fe810608060105461169d606461126960075484611107565b9060018060a01b036000541660005260116020526116c160406000209182546110cb565b905560018060a01b03600f5416600052601160205260406000206116e68282546110cb565b90556116fa600560ff196009541617600955565b600d5490600e5460018060a01b03600f541690604051938452602084015260408301526060820152a1565b90611755906112d060405193602085016112bc866112ae8444428691606093918352602083015260408201520190565b511660018060a01b0319600f541617600f55611666565b6117758161105c565b60018060a01b0391549060031b1c16600052600b602052604060002060ff600282015460081c166117aa575b5060010161162d565b600101549094919291908380821115611836576117c691611164565b915b808310156118005750509060016117de8561105c565b828060a01b0391549060031b1c169481956117f888611171565b525b906117a1565b9291948360019296036117fa576118168161105c565b838060a01b0391549060031b1c166118306113a3886110d8565b526117fa565b9061184091611164565b916117c8565b50505060105460018060a01b0360005416600052601160205261186f60406000209182546110cb565b905560008054600f80546001600160a01b0319166001600160a01b0392909216919091179055600d819055600e556009805460ff191660051790557f1d3b18309fcd7be02b3cb02a6b2eebf55bdc38f582585bbad82e449da17fe810608060018060a01b03600f541660105460405191600083526000602084015260408301526060820152a1565b6119008161105c565b60018060a01b0391549060031b1c16600052600b602052604060002060ff600282015460081c16611935575b506001016115e2565b61194a600192959383611950930154906110cb565b926110d8565b939061192c56fea2646970667358221220a117532b9ce1755889c66d7c7f85eff1254bea412a97ac25c3badecddcbaff3064736f6c634300081c0033","opcodes":"PUSH1 0x80 CALLVALUE PUSH2 0x258 JUMPI PUSH1 0x1F PUSH2 0x1C01 CODESIZE DUP2 SWAP1 SUB SWAP2 DUP3 ADD PUSH1 0x1F NOT AND DUP4 ADD SWAP2 PUSH1 0x1 PUSH1 0x1 PUSH1 0x40 SHL SUB DUP4 GT DUP5 DUP5 LT OR PUSH2 0x25D JUMPI DUP1 DUP5 SWAP3 PUSH1 0xE0 SWAP5 PUSH1 0x40 MSTORE DUP4 CODECOPY DUP2 ADD SUB SLT PUSH2 0x258 JUMPI DUP1 MLOAD SWAP1 PUSH1 0x20 DUP2 ADD MLOAD PUSH1 0x40 DUP3 ADD MLOAD PUSH1 0x60 DUP4 ADD MLOAD SWAP1 PUSH1 0x80 DUP5 ADD MLOAD SWAP3 PUSH1 0xC0 PUSH1 0xA0 DUP7 ADD MLOAD SWAP6 ADD MLOAD SWAP6 CALLER ISZERO PUSH2 0x242 JUMPI PUSH1 0x0 DUP1 SLOAD CALLER PUSH1 0x1 PUSH1 0x1 PUSH1 0xA0 SHL SUB NOT DUP3 AND DUP2 OR DUP4 SSTORE PUSH1 0x40 MLOAD SWAP3 SWAP1 SWAP2 PUSH1 0x1 PUSH1 0x1 PUSH1 0xA0 SHL SUB AND SWAP1 PUSH32 0x8BE0079C531659141344CD1FD0A4F28419497F9722A3DAAFE3B4186F6B6457E0 SWAP1 DUP1 LOG3 PUSH1 0x1 DUP1 SSTORE PUSH1 0x3 DUP3 LT PUSH2 0x20D JUMPI POP DUP1 DUP3 GT ISZERO PUSH2 0x1DC JUMPI DUP3 ISZERO PUSH2 0x1A6 JUMPI DUP4 ISZERO PUSH2 0x170 JUMPI DUP7 ISZERO PUSH2 0x13F JUMPI PUSH1 0x14 DUP7 GT PUSH2 0x10D JUMPI PUSH1 0x2 SSTORE PUSH1 0x3 SSTORE PUSH1 0x4 SSTORE PUSH1 0x5 SSTORE PUSH1 0x6 SSTORE PUSH1 0x7 SSTORE PUSH1 0x8 SSTORE PUSH1 0xFF NOT PUSH1 0x9 SLOAD AND PUSH1 0x9 SSTORE PUSH1 0x40 MLOAD PUSH2 0x198D SWAP1 DUP2 PUSH2 0x274 DUP3 CODECOPY RETURN JUMPDEST PUSH1 0x40 MLOAD PUSH3 0x461BCD PUSH1 0xE5 SHL DUP2 MSTORE PUSH1 0x20 PUSH1 0x4 DUP3 ADD MSTORE PUSH1 0xA PUSH1 0x24 DUP3 ADD MSTORE PUSH10 0x466565203C3D20323025 PUSH1 0xB0 SHL PUSH1 0x44 DUP3 ADD MSTORE PUSH1 0x64 SWAP1 REVERT JUMPDEST PUSH1 0x40 MLOAD PUSH3 0x461BCD PUSH1 0xE5 SHL DUP2 MSTORE PUSH1 0x20 PUSH1 0x4 DUP3 ADD MSTORE PUSH1 0x9 PUSH1 0x24 DUP3 ADD MSTORE PUSH9 0x44656C6179203E203 PUSH1 0xBC SHL PUSH1 0x44 DUP3 ADD MSTORE PUSH1 0x64 SWAP1 REVERT JUMPDEST PUSH1 0x40 MLOAD PUSH3 0x461BCD PUSH1 0xE5 SHL DUP2 MSTORE PUSH1 0x20 PUSH1 0x4 DUP3 ADD MSTORE PUSH1 0xE PUSH1 0x24 DUP3 ADD MSTORE PUSH14 0x52657665616C20647572203E203 PUSH1 0x94 SHL PUSH1 0x44 DUP3 ADD MSTORE PUSH1 0x64 SWAP1 REVERT JUMPDEST PUSH1 0x40 MLOAD PUSH3 0x461BCD PUSH1 0xE5 SHL DUP2 MSTORE PUSH1 0x20 PUSH1 0x4 DUP3 ADD MSTORE PUSH1 0xE PUSH1 0x24 DUP3 ADD MSTORE PUSH14 0x436F6D6D697420647572203E203 PUSH1 0x94 SHL PUSH1 0x44 DUP3 ADD MSTORE PUSH1 0x64 SWAP1 REVERT JUMPDEST PUSH1 0x40 MLOAD PUSH3 0x461BCD PUSH1 0xE5 SHL DUP2 MSTORE PUSH1 0x20 PUSH1 0x4 DUP3 ADD MSTORE PUSH1 0x9 PUSH1 0x24 DUP3 ADD MSTORE PUSH9 0x26B0BC101F1036B4B7 PUSH1 0xB9 SHL PUSH1 0x44 DUP3 ADD MSTORE PUSH1 0x64 SWAP1 REVERT JUMPDEST PUSH3 0x461BCD PUSH1 0xE5 SHL DUP2 MSTORE PUSH1 0x20 PUSH1 0x4 DUP3 ADD MSTORE PUSH1 0x10 PUSH1 0x24 DUP3 ADD MSTORE PUSH16 0x4D696E20706C6179657273203E3D2033 PUSH1 0x80 SHL PUSH1 0x44 DUP3 ADD MSTORE PUSH1 0x64 SWAP1 REVERT JUMPDEST PUSH4 0x1E4FBDF7 PUSH1 0xE0 SHL PUSH1 0x0 MSTORE PUSH1 0x0 PUSH1 0x4 MSTORE PUSH1 0x24 PUSH1 0x0 REVERT JUMPDEST PUSH1 0x0 DUP1 REVERT JUMPDEST PUSH4 0x4E487B71 PUSH1 0xE0 SHL PUSH1 0x0 MSTORE PUSH1 0x41 PUSH1 0x4 MSTORE PUSH1 0x24 PUSH1 0x0 REVERT INVALID PUSH1 0x80 DUP1 PUSH1 0x40 MSTORE PUSH1 0x4 CALLDATASIZE LT ISZERO PUSH2 0x13 JUMPI PUSH1 0x0 DUP1 REVERT JUMPDEST PUSH1 0x0 CALLDATALOAD PUSH1 0xE0 SHR SWAP1 DUP2 PUSH4 0x55AD42E EQ PUSH2 0x102C JUMPI POP DUP1 PUSH4 0x72EA61C EQ PUSH2 0x100E JUMPI DUP1 PUSH4 0x7F6AEE8 EQ PUSH2 0xFF0 JUMPI DUP1 PUSH4 0xA4A922E EQ PUSH2 0xFD2 JUMPI DUP1 PUSH4 0x15C6AEE2 EQ PUSH2 0xF90 JUMPI DUP1 PUSH4 0x180C18C3 EQ PUSH2 0xDDA JUMPI DUP1 PUSH4 0x2770C895 EQ PUSH2 0xDBC JUMPI DUP1 PUSH4 0x3CCFD60B EQ PUSH2 0xC99 JUMPI DUP1 PUSH4 0x4717F97C EQ PUSH2 0xC46 JUMPI DUP1 PUSH4 0x4C2412A2 EQ PUSH2 0xC28 JUMPI DUP1 PUSH4 0x608A5D95 EQ PUSH2 0xB1F JUMPI DUP1 PUSH4 0x6F833811 EQ PUSH2 0xB01 JUMPI DUP1 PUSH4 0x715018A6 EQ PUSH2 0xAA8 JUMPI DUP1 PUSH4 0x719CE73E EQ PUSH2 0xA8A JUMPI DUP1 PUSH4 0x886A6DE1 EQ PUSH2 0xA6C JUMPI DUP1 PUSH4 0x8B5B9CCC EQ PUSH2 0x9BC JUMPI DUP1 PUSH4 0x8DA5CB5B EQ PUSH2 0x993 JUMPI DUP1 PUSH4 0x995BC51E EQ PUSH2 0x975 JUMPI DUP1 PUSH4 0xB03B2030 EQ PUSH2 0x905 JUMPI DUP1 PUSH4 0xB07DDF8A EQ PUSH2 0x8E7 JUMPI DUP1 PUSH4 0xB1501F9C EQ PUSH2 0x6F3 JUMPI DUP1 PUSH4 0xB250717A EQ PUSH2 0x6D5 JUMPI DUP1 PUSH4 0xC2E52206 EQ PUSH2 0x6B7 JUMPI DUP1 PUSH4 0xD4F77B1C EQ PUSH2 0x325 JUMPI DUP1 PUSH4 0xDAC6270D EQ PUSH2 0x302 JUMPI DUP1 PUSH4 0xDFBF53AE EQ PUSH2 0x2D9 JUMPI DUP1 PUSH4 0xE2EB41FF EQ PUSH2 0x265 JUMPI DUP1 PUSH4 0xECED0280 EQ PUSH2 0x239 JUMPI DUP1 PUSH4 0xF2FDE38B EQ PUSH2 0x1AC JUMPI PUSH4 0xF3F43703 EQ PUSH2 0x169 JUMPI PUSH1 0x0 DUP1 REVERT JUMPDEST CALLVALUE PUSH2 0x1A7 JUMPI PUSH1 0x20 CALLDATASIZE PUSH1 0x3 NOT ADD SLT PUSH2 0x1A7 JUMPI PUSH1 0x4 CALLDATALOAD PUSH1 0x1 PUSH1 0x1 PUSH1 0xA0 SHL SUB DUP2 AND SWAP1 DUP2 SWAP1 SUB PUSH2 0x1A7 JUMPI PUSH1 0x0 MSTORE PUSH1 0x11 PUSH1 0x20 MSTORE PUSH1 0x20 PUSH1 0x40 PUSH1 0x0 KECCAK256 SLOAD PUSH1 0x40 MLOAD SWAP1 DUP2 MSTORE RETURN JUMPDEST PUSH1 0x0 DUP1 REVERT JUMPDEST CALLVALUE PUSH2 0x1A7 JUMPI PUSH1 0x20 CALLDATASIZE PUSH1 0x3 NOT ADD SLT PUSH2 0x1A7 JUMPI PUSH1 0x4 CALLDATALOAD PUSH1 0x1 PUSH1 0x1 PUSH1 0xA0 SHL SUB DUP2 AND SWAP1 DUP2 SWAP1 SUB PUSH2 0x1A7 JUMPI PUSH2 0x1DA PUSH2 0x15AF JUMP JUMPDEST DUP1 ISZERO PUSH2 0x223 JUMPI PUSH1 0x0 DUP1 SLOAD PUSH1 0x1 PUSH1 0x1 PUSH1 0xA0 SHL SUB NOT DUP2 AND DUP4 OR DUP3 SSTORE PUSH1 0x1 PUSH1 0x1 PUSH1 0xA0 SHL SUB AND SWAP1 PUSH32 0x8BE0079C531659141344CD1FD0A4F28419497F9722A3DAAFE3B4186F6B6457E0 SWAP1 DUP1 LOG3 STOP JUMPDEST PUSH4 0x1E4FBDF7 PUSH1 0xE0 SHL PUSH1 0x0 MSTORE PUSH1 0x0 PUSH1 0x4 MSTORE PUSH1 0x24 PUSH1 0x0 REVERT JUMPDEST CALLVALUE PUSH2 0x1A7 JUMPI PUSH1 0x0 CALLDATASIZE PUSH1 0x3 NOT ADD SLT PUSH2 0x1A7 JUMPI PUSH2 0x261 PUSH2 0x255 PUSH2 0x1513 JUMP JUMPDEST PUSH1 0x40 MLOAD SWAP2 DUP3 SWAP2 DUP3 PUSH2 0x1049 JUMP JUMPDEST SUB SWAP1 RETURN JUMPDEST CALLVALUE PUSH2 0x1A7 JUMPI PUSH1 0x20 CALLDATASIZE PUSH1 0x3 NOT ADD SLT PUSH2 0x1A7 JUMPI PUSH1 0x4 CALLDATALOAD PUSH1 0x1 PUSH1 0x1 PUSH1 0xA0 SHL SUB DUP2 AND SWAP1 DUP2 SWAP1 SUB PUSH2 0x1A7 JUMPI PUSH1 0x0 MSTORE PUSH1 0xB PUSH1 0x20 MSTORE PUSH1 0xA0 PUSH1 0x40 PUSH1 0x0 KECCAK256 PUSH1 0xFF DUP2 SLOAD SWAP2 PUSH1 0x2 PUSH1 0x1 DUP3 ADD SLOAD SWAP2 ADD SLOAD SWAP1 PUSH1 0x40 MLOAD SWAP4 DUP5 MSTORE PUSH1 0x20 DUP5 ADD MSTORE DUP2 DUP2 AND ISZERO ISZERO PUSH1 0x40 DUP5 ADD MSTORE DUP2 DUP2 PUSH1 0x8 SHR AND ISZERO ISZERO PUSH1 0x60 DUP5 ADD MSTORE PUSH1 0x10 SHR AND ISZERO ISZERO PUSH1 0x80 DUP3 ADD MSTORE RETURN JUMPDEST CALLVALUE PUSH2 0x1A7 JUMPI PUSH1 0x0 CALLDATASIZE PUSH1 0x3 NOT ADD SLT PUSH2 0x1A7 JUMPI PUSH1 0xF SLOAD PUSH1 0x40 MLOAD PUSH1 0x1 PUSH1 0x1 PUSH1 0xA0 SHL SUB SWAP1 SWAP2 AND DUP2 MSTORE PUSH1 0x20 SWAP1 RETURN JUMPDEST CALLVALUE PUSH2 0x1A7 JUMPI PUSH1 0x0 CALLDATASIZE PUSH1 0x3 NOT ADD SLT PUSH2 0x1A7 JUMPI PUSH1 0x20 PUSH2 0x31D PUSH2 0x148C JUMP JUMPDEST PUSH1 0x40 MLOAD SWAP1 DUP2 MSTORE RETURN JUMPDEST PUSH1 0x0 CALLDATASIZE PUSH1 0x3 NOT ADD SLT PUSH2 0x1A7 JUMPI PUSH2 0x339 PUSH2 0x158D JUMP JUMPDEST PUSH2 0x341 PUSH2 0x1513 JUMP JUMPDEST PUSH1 0x6 DUP2 LT ISZERO PUSH2 0x654 JUMPI ISZERO DUP1 ISZERO PUSH2 0x69D JUMPI JUMPDEST ISZERO PUSH2 0x66A JUMPI PUSH1 0xFF PUSH1 0x9 SLOAD AND PUSH1 0x6 DUP2 LT ISZERO PUSH2 0x654 JUMPI PUSH1 0x1 EQ DUP1 PUSH2 0x63C JUMPI JUMPDEST PUSH2 0x602 JUMPI PUSH1 0xC SLOAD PUSH1 0x3 SLOAD GT ISZERO PUSH2 0x5D1 JUMPI CALLER PUSH1 0x0 MSTORE PUSH1 0xB PUSH1 0x20 MSTORE PUSH1 0xFF PUSH1 0x2 PUSH1 0x40 PUSH1 0x0 KECCAK256 ADD SLOAD PUSH1 0x10 SHR AND PUSH2 0x59B JUMPI PUSH1 0x6 SLOAD CALLVALUE SUB PUSH2 0x564 JUMPI PUSH1 0x40 MLOAD PUSH2 0x3B0 DUP2 PUSH2 0x108D JUMP JUMPDEST PUSH1 0x0 DUP1 DUP3 MSTORE PUSH1 0x20 DUP1 DUP4 ADD DUP3 DUP2 MSTORE PUSH1 0x40 DUP1 DUP6 ADD DUP5 DUP2 MSTORE PUSH1 0x60 DUP7 ADD DUP6 DUP2 MSTORE PUSH1 0x1 PUSH1 0x80 DUP9 ADD DUP2 DUP2 MSTORE CALLER DUP9 MSTORE PUSH1 0xB SWAP1 SWAP7 MSTORE SWAP3 SWAP1 SWAP6 KECCAK256 SWAP6 MLOAD DUP7 SSTORE SWAP2 MLOAD SWAP1 DUP6 ADD SSTORE MLOAD PUSH1 0x2 SWAP4 SWAP1 SWAP4 ADD DUP1 SLOAD SWAP3 MLOAD SWAP2 MLOAD PUSH3 0xFFFFFF NOT SWAP1 SWAP4 AND PUSH1 0xFF SWAP5 ISZERO ISZERO SWAP5 SWAP1 SWAP5 AND SWAP4 SWAP1 SWAP4 OR SWAP1 ISZERO ISZERO PUSH1 0x8 SHL PUSH2 0xFF00 AND OR SWAP1 ISZERO ISZERO PUSH1 0x10 SHL PUSH3 0xFF0000 AND OR SWAP1 SSTORE PUSH1 0xC SLOAD PUSH1 0x1 PUSH1 0x40 SHL DUP2 LT ISZERO PUSH2 0x54E JUMPI PUSH2 0x448 DUP2 PUSH1 0x1 PUSH2 0x466 SWAP4 ADD PUSH1 0xC SSTORE PUSH2 0x105C JUMP JUMPDEST DUP2 SLOAD PUSH1 0x1 PUSH1 0x1 PUSH1 0xA0 SHL SUB PUSH1 0x3 SWAP3 SWAP1 SWAP3 SHL SWAP2 DUP3 SHL NOT AND CALLER SWAP1 SWAP2 SHL OR SWAP1 SSTORE JUMP JUMPDEST PUSH2 0x472 CALLVALUE PUSH1 0x10 SLOAD PUSH2 0x10CB JUMP JUMPDEST PUSH1 0x10 SSTORE PUSH1 0x40 MLOAD CALLVALUE DUP2 MSTORE PUSH32 0x3330A6773675F31F62070870F40379F8C6D42E3761410011A4DFC42B18043D2F PUSH1 0x20 CALLER SWAP3 LOG2 PUSH1 0xC SLOAD PUSH1 0x2 SLOAD GT ISZERO DUP1 PUSH2 0x544 JUMPI JUMPDEST PUSH2 0x4BA JUMPI JUMPDEST PUSH1 0x1 DUP1 SSTORE STOP JUMPDEST TIMESTAMP PUSH1 0xA SSTORE PUSH1 0x1 PUSH1 0xFF NOT PUSH1 0x9 SLOAD AND OR PUSH1 0x9 SSTORE PUSH32 0xF2546DE66F180061EE75953FE1999FC0475DAEF64D87E75AD834022B57031D2F PUSH1 0xC0 PUSH1 0xA SLOAD PUSH1 0x8 SLOAD PUSH2 0x514 PUSH2 0x50B PUSH2 0x504 DUP4 DUP6 PUSH2 0x10CB JUMP JUMPDEST SWAP3 DUP5 PUSH2 0x10CB JUMP JUMPDEST PUSH1 0x4 SLOAD SWAP1 PUSH2 0x10CB JUMP JUMPDEST PUSH1 0x6 SLOAD PUSH1 0x2 SLOAD SWAP2 PUSH1 0x3 SLOAD SWAP4 PUSH1 0x40 MLOAD SWAP6 DUP7 MSTORE PUSH1 0x20 DUP7 ADD MSTORE PUSH1 0x40 DUP6 ADD MSTORE PUSH1 0x60 DUP5 ADD MSTORE PUSH1 0x80 DUP4 ADD MSTORE PUSH1 0xA0 DUP3 ADD MSTORE LOG1 PUSH2 0x4B4 JUMP JUMPDEST POP PUSH1 0xA SLOAD ISZERO PUSH2 0x4AF JUMP JUMPDEST PUSH4 0x4E487B71 PUSH1 0xE0 SHL PUSH1 0x0 MSTORE PUSH1 0x41 PUSH1 0x4 MSTORE PUSH1 0x24 PUSH1 0x0 REVERT JUMPDEST PUSH1 0x40 MLOAD PUSH3 0x461BCD PUSH1 0xE5 SHL DUP2 MSTORE PUSH1 0x20 PUSH1 0x4 DUP3 ADD MSTORE PUSH1 0xF PUSH1 0x24 DUP3 ADD MSTORE PUSH15 0x57726F6E6720656E74727920666565 PUSH1 0x88 SHL PUSH1 0x44 DUP3 ADD MSTORE PUSH1 0x64 SWAP1 REVERT JUMPDEST PUSH1 0x40 MLOAD PUSH3 0x461BCD PUSH1 0xE5 SHL DUP2 MSTORE PUSH1 0x20 PUSH1 0x4 DUP3 ADD MSTORE PUSH1 0xE PUSH1 0x24 DUP3 ADD MSTORE PUSH14 0x105B1C9958591E481A9BDA5B9959 PUSH1 0x92 SHL PUSH1 0x44 DUP3 ADD MSTORE PUSH1 0x64 SWAP1 REVERT JUMPDEST PUSH1 0x40 MLOAD PUSH3 0x461BCD PUSH1 0xE5 SHL DUP2 MSTORE PUSH1 0x20 PUSH1 0x4 DUP3 ADD MSTORE PUSH1 0x9 PUSH1 0x24 DUP3 ADD MSTORE PUSH9 0x11D85B5948199D5B1B PUSH1 0xBA SHL PUSH1 0x44 DUP3 ADD MSTORE PUSH1 0x64 SWAP1 REVERT JUMPDEST PUSH1 0x40 MLOAD PUSH3 0x461BCD PUSH1 0xE5 SHL DUP2 MSTORE PUSH1 0x20 PUSH1 0x4 DUP3 ADD MSTORE PUSH1 0x12 PUSH1 0x24 DUP3 ADD MSTORE PUSH18 0x129BDA5B881DDA5B991BDDC818DB1BDCD959 PUSH1 0x72 SHL PUSH1 0x44 DUP3 ADD MSTORE PUSH1 0x64 SWAP1 REVERT JUMPDEST POP PUSH2 0x64C PUSH1 0xA SLOAD PUSH1 0x8 SLOAD SWAP1 PUSH2 0x10CB JUMP JUMPDEST TIMESTAMP LT ISZERO PUSH2 0x36F JUMP JUMPDEST PUSH4 0x4E487B71 PUSH1 0xE0 SHL PUSH1 0x0 MSTORE PUSH1 0x21 PUSH1 0x4 MSTORE PUSH1 0x24 PUSH1 0x0 REVERT JUMPDEST PUSH1 0x40 MLOAD PUSH3 0x461BCD PUSH1 0xE5 SHL DUP2 MSTORE PUSH1 0x20 PUSH1 0x4 DUP3 ADD MSTORE PUSH1 0xB PUSH1 0x24 DUP3 ADD MSTORE PUSH11 0x21B0B73737BA103537B4B7 PUSH1 0xA9 SHL PUSH1 0x44 DUP3 ADD MSTORE PUSH1 0x64 SWAP1 REVERT JUMPDEST POP PUSH2 0x6A6 PUSH2 0x1513 JUMP JUMPDEST PUSH1 0x6 DUP2 LT ISZERO PUSH2 0x654 JUMPI PUSH1 0x1 EQ PUSH2 0x352 JUMP JUMPDEST CALLVALUE PUSH2 0x1A7 JUMPI PUSH1 0x0 CALLDATASIZE PUSH1 0x3 NOT ADD SLT PUSH2 0x1A7 JUMPI PUSH1 0x20 PUSH1 0xC SLOAD PUSH1 0x40 MLOAD SWAP1 DUP2 MSTORE RETURN JUMPDEST CALLVALUE PUSH2 0x1A7 JUMPI PUSH1 0x0 CALLDATASIZE PUSH1 0x3 NOT ADD SLT PUSH2 0x1A7 JUMPI PUSH1 0x20 PUSH1 0xD SLOAD PUSH1 0x40 MLOAD SWAP1 DUP2 MSTORE RETURN JUMPDEST CALLVALUE PUSH2 0x1A7 JUMPI PUSH1 0x0 CALLDATASIZE PUSH1 0x3 NOT ADD SLT PUSH2 0x1A7 JUMPI PUSH2 0x70C PUSH2 0x158D JUMP JUMPDEST PUSH2 0x714 PUSH2 0x1513 JUMP JUMPDEST PUSH1 0x6 DUP2 LT ISZERO PUSH2 0x654 JUMPI PUSH2 0x8AE JUMPI CALLER PUSH1 0x0 MSTORE PUSH1 0xB PUSH1 0x20 MSTORE PUSH2 0x741 PUSH1 0xFF PUSH1 0x2 PUSH1 0x40 PUSH1 0x0 KECCAK256 ADD SLOAD PUSH1 0x10 SHR AND PUSH2 0x1453 JUMP JUMPDEST CALLER PUSH1 0x0 MSTORE PUSH1 0xB PUSH1 0x20 MSTORE PUSH1 0x2 PUSH1 0x40 PUSH1 0x0 KECCAK256 ADD PUSH3 0xFF0000 NOT DUP2 SLOAD AND SWAP1 SSTORE PUSH1 0x6 SLOAD PUSH2 0x76B DUP2 PUSH1 0x10 SLOAD PUSH2 0x1164 JUMP JUMPDEST PUSH1 0x10 SSTORE CALLER PUSH1 0x0 MSTORE PUSH1 0x11 PUSH1 0x20 MSTORE PUSH2 0x787 PUSH1 0x40 PUSH1 0x0 KECCAK256 SWAP2 DUP3 SLOAD PUSH2 0x10CB JUMP JUMPDEST SWAP1 SSTORE PUSH1 0xC SLOAD PUSH1 0x0 DUP1 JUMPDEST DUP3 DUP2 LT PUSH2 0x87D JUMPI JUMPDEST POP PUSH1 0x0 NOT DUP3 ADD SWAP2 DUP3 GT PUSH2 0x867 JUMPI PUSH2 0x7CC PUSH2 0x7B4 PUSH2 0x7F0 SWAP4 PUSH2 0x105C JUMP JUMPDEST SWAP1 SLOAD PUSH1 0x3 SWAP2 SWAP1 SWAP2 SHL SHR PUSH1 0x1 PUSH1 0x1 PUSH1 0xA0 SHL SUB AND SWAP2 PUSH2 0x105C JUMP JUMPDEST DUP2 SLOAD PUSH1 0x1 PUSH1 0x1 PUSH1 0xA0 SHL SUB SWAP4 DUP5 AND PUSH1 0x3 SWAP3 SWAP1 SWAP3 SHL SWAP2 DUP3 SHL SWAP4 SWAP1 SWAP2 SHL NOT AND SWAP2 SWAP1 SWAP2 OR SWAP1 SSTORE JUMP JUMPDEST PUSH1 0xC SLOAD DUP1 ISZERO PUSH2 0x851 JUMPI PUSH1 0x0 NOT ADD PUSH2 0x806 DUP2 PUSH2 0x105C JUMP JUMPDEST DUP2 SLOAD SWAP1 PUSH1 0x1 DUP1 PUSH1 0xA0 SHL SUB SWAP1 PUSH1 0x3 SHL SHL NOT AND SWAP1 SSTORE PUSH1 0xC SSTORE PUSH1 0x6 SLOAD PUSH1 0x40 MLOAD SWAP1 DUP2 MSTORE PUSH32 0x7FCF532C15F0A6DB0BD6D0E038BEA71D30D808C7D98CB3BF7268A95BF5081B65 PUSH1 0x20 CALLER SWAP3 LOG2 PUSH1 0x1 DUP1 SSTORE STOP JUMPDEST PUSH4 0x4E487B71 PUSH1 0xE0 SHL PUSH1 0x0 MSTORE PUSH1 0x31 PUSH1 0x4 MSTORE PUSH1 0x24 PUSH1 0x0 REVERT JUMPDEST PUSH4 0x4E487B71 PUSH1 0xE0 SHL PUSH1 0x0 MSTORE PUSH1 0x11 PUSH1 0x4 MSTORE PUSH1 0x24 PUSH1 0x0 REVERT JUMPDEST PUSH2 0x886 DUP2 PUSH2 0x105C JUMP JUMPDEST SWAP1 SLOAD PUSH1 0x3 SWAP2 SWAP1 SWAP2 SHL SHR PUSH1 0x1 PUSH1 0x1 PUSH1 0xA0 SHL SUB AND CALLER EQ PUSH2 0x8A6 JUMPI PUSH1 0x1 ADD PUSH2 0x790 JUMP JUMPDEST SWAP1 POP DUP3 PUSH2 0x798 JUMP JUMPDEST PUSH1 0x40 MLOAD PUSH3 0x461BCD PUSH1 0xE5 SHL DUP2 MSTORE PUSH1 0x20 PUSH1 0x4 DUP3 ADD MSTORE PUSH1 0x11 PUSH1 0x24 DUP3 ADD MSTORE PUSH17 0x546F6F206C61746520746F206C65617665 PUSH1 0x78 SHL PUSH1 0x44 DUP3 ADD MSTORE PUSH1 0x64 SWAP1 REVERT JUMPDEST CALLVALUE PUSH2 0x1A7 JUMPI PUSH1 0x0 CALLDATASIZE PUSH1 0x3 NOT ADD SLT PUSH2 0x1A7 JUMPI PUSH1 0x20 PUSH1 0xA SLOAD PUSH1 0x40 MLOAD SWAP1 DUP2 MSTORE RETURN JUMPDEST CALLVALUE PUSH2 0x1A7 JUMPI PUSH1 0x0 CALLDATASIZE PUSH1 0x3 NOT ADD SLT PUSH2 0x1A7 JUMPI PUSH2 0x91E PUSH2 0x158D JUMP JUMPDEST PUSH2 0x926 PUSH2 0x1513 JUMP JUMPDEST PUSH1 0x6 DUP2 LT ISZERO PUSH2 0x654 JUMPI PUSH1 0x4 SUB PUSH2 0x93E JUMPI PUSH2 0x4B4 PUSH2 0x15D8 JUMP JUMPDEST PUSH1 0x40 MLOAD PUSH3 0x461BCD PUSH1 0xE5 SHL DUP2 MSTORE PUSH1 0x20 PUSH1 0x4 DUP3 ADD MSTORE PUSH1 0xF PUSH1 0x24 DUP3 ADD MSTORE PUSH15 0x4E6F742066696E616C697A61626C65 PUSH1 0x88 SHL PUSH1 0x44 DUP3 ADD MSTORE PUSH1 0x64 SWAP1 REVERT JUMPDEST CALLVALUE PUSH2 0x1A7 JUMPI PUSH1 0x0 CALLDATASIZE PUSH1 0x3 NOT ADD SLT PUSH2 0x1A7 JUMPI PUSH1 0x20 PUSH1 0x7 SLOAD PUSH1 0x40 MLOAD SWAP1 DUP2 MSTORE RETURN JUMPDEST CALLVALUE PUSH2 0x1A7 JUMPI PUSH1 0x0 CALLDATASIZE PUSH1 0x3 NOT ADD SLT PUSH2 0x1A7 JUMPI PUSH1 0x0 SLOAD PUSH1 0x40 MLOAD PUSH1 0x1 PUSH1 0x1 PUSH1 0xA0 SHL SUB SWAP1 SWAP2 AND DUP2 MSTORE PUSH1 0x20 SWAP1 RETURN JUMPDEST CALLVALUE PUSH2 0x1A7 JUMPI PUSH1 0x0 CALLDATASIZE PUSH1 0x3 NOT ADD SLT PUSH2 0x1A7 JUMPI PUSH1 0x40 MLOAD DUP1 PUSH1 0x20 PUSH1 0xC SLOAD SWAP3 DUP4 DUP2 MSTORE ADD DUP1 SWAP3 PUSH1 0xC PUSH1 0x0 MSTORE PUSH1 0x20 PUSH1 0x0 KECCAK256 SWAP1 PUSH1 0x0 JUMPDEST DUP2 DUP2 LT PUSH2 0xA4D JUMPI POP POP POP DUP2 PUSH2 0xA01 SWAP2 SUB DUP3 PUSH2 0x10A9 JUMP JUMPDEST PUSH1 0x40 MLOAD SWAP2 DUP3 SWAP2 PUSH1 0x20 DUP4 ADD SWAP1 PUSH1 0x20 DUP5 MSTORE MLOAD DUP1 SWAP2 MSTORE PUSH1 0x40 DUP4 ADD SWAP2 SWAP1 PUSH1 0x0 JUMPDEST DUP2 DUP2 LT PUSH2 0xA2B JUMPI POP POP POP SUB SWAP1 RETURN JUMPDEST DUP3 MLOAD PUSH1 0x1 PUSH1 0x1 PUSH1 0xA0 SHL SUB AND DUP5 MSTORE DUP6 SWAP5 POP PUSH1 0x20 SWAP4 DUP5 ADD SWAP4 SWAP1 SWAP3 ADD SWAP2 PUSH1 0x1 ADD PUSH2 0xA1D JUMP JUMPDEST DUP3 SLOAD PUSH1 0x1 PUSH1 0x1 PUSH1 0xA0 SHL SUB AND DUP5 MSTORE PUSH1 0x20 SWAP1 SWAP4 ADD SWAP3 PUSH1 0x1 SWAP3 DUP4 ADD SWAP3 ADD PUSH2 0x9EB JUMP JUMPDEST CALLVALUE PUSH2 0x1A7 JUMPI PUSH1 0x0 CALLDATASIZE PUSH1 0x3 NOT ADD SLT PUSH2 0x1A7 JUMPI PUSH1 0x20 PUSH1 0x5 SLOAD PUSH1 0x40 MLOAD SWAP1 DUP2 MSTORE RETURN JUMPDEST CALLVALUE PUSH2 0x1A7 JUMPI PUSH1 0x0 CALLDATASIZE PUSH1 0x3 NOT ADD SLT PUSH2 0x1A7 JUMPI PUSH1 0x20 PUSH1 0x10 SLOAD PUSH1 0x40 MLOAD SWAP1 DUP2 MSTORE RETURN JUMPDEST CALLVALUE PUSH2 0x1A7 JUMPI PUSH1 0x0 CALLDATASIZE PUSH1 0x3 NOT ADD SLT PUSH2 0x1A7 JUMPI PUSH2 0xAC1 PUSH2 0x15AF JUMP JUMPDEST PUSH1 0x0 DUP1 SLOAD PUSH1 0x1 PUSH1 0x1 PUSH1 0xA0 SHL SUB NOT DUP2 AND DUP3 SSTORE PUSH1 0x1 PUSH1 0x1 PUSH1 0xA0 SHL SUB AND PUSH32 0x8BE0079C531659141344CD1FD0A4F28419497F9722A3DAAFE3B4186F6B6457E0 DUP3 DUP1 LOG3 STOP JUMPDEST CALLVALUE PUSH2 0x1A7 JUMPI PUSH1 0x0 CALLDATASIZE PUSH1 0x3 NOT ADD SLT PUSH2 0x1A7 JUMPI PUSH1 0x20 PUSH1 0x4 SLOAD PUSH1 0x40 MLOAD SWAP1 DUP2 MSTORE RETURN JUMPDEST CALLVALUE PUSH2 0x1A7 JUMPI PUSH1 0x20 CALLDATASIZE PUSH1 0x3 NOT ADD SLT PUSH2 0x1A7 JUMPI PUSH2 0xB38 PUSH2 0x158D JUMP JUMPDEST PUSH2 0xB40 PUSH2 0x1513 JUMP JUMPDEST PUSH1 0x6 DUP2 LT ISZERO PUSH2 0x654 JUMPI PUSH1 0x2 SUB PUSH2 0xBF0 JUMPI CALLER PUSH1 0x0 MSTORE PUSH1 0xB PUSH1 0x20 MSTORE PUSH1 0x40 PUSH1 0x0 KECCAK256 PUSH1 0x2 DUP2 ADD SWAP1 DUP2 SLOAD PUSH2 0xB74 PUSH1 0xFF DUP3 PUSH1 0x10 SHR AND PUSH2 0x1453 JUMP JUMPDEST PUSH1 0xFF DUP2 AND PUSH2 0xBB7 JUMPI PUSH1 0x4 CALLDATALOAD SWAP1 SWAP2 SSTORE PUSH1 0xFF NOT AND PUSH1 0x1 OR SWAP1 SSTORE CALLER PUSH32 0x2245D2014B9BC41D5CCC6707EDCBA84A49B93B49441335F266A3E83B4E6330FD PUSH1 0x0 DUP1 LOG2 PUSH1 0x1 DUP1 SSTORE STOP JUMPDEST PUSH1 0x40 MLOAD PUSH3 0x461BCD PUSH1 0xE5 SHL DUP2 MSTORE PUSH1 0x20 PUSH1 0x4 DUP3 ADD MSTORE PUSH1 0x11 PUSH1 0x24 DUP3 ADD MSTORE PUSH17 0x105B1C9958591E4818DBDB5B5A5D1D1959 PUSH1 0x7A SHL PUSH1 0x44 DUP3 ADD MSTORE PUSH1 0x64 SWAP1 REVERT JUMPDEST PUSH1 0x40 MLOAD PUSH3 0x461BCD PUSH1 0xE5 SHL DUP2 MSTORE PUSH1 0x20 PUSH1 0x4 DUP3 ADD MSTORE PUSH1 0x10 PUSH1 0x24 DUP3 ADD MSTORE PUSH16 0x4E6F7420636F6D6D6974207068617365 PUSH1 0x80 SHL PUSH1 0x44 DUP3 ADD MSTORE PUSH1 0x64 SWAP1 REVERT JUMPDEST CALLVALUE PUSH2 0x1A7 JUMPI PUSH1 0x0 CALLDATASIZE PUSH1 0x3 NOT ADD SLT PUSH2 0x1A7 JUMPI PUSH1 0x20 PUSH1 0x3 SLOAD PUSH1 0x40 MLOAD SWAP1 DUP2 MSTORE RETURN JUMPDEST CALLVALUE PUSH2 0x1A7 JUMPI PUSH1 0x0 CALLDATASIZE PUSH1 0x3 NOT ADD SLT PUSH2 0x1A7 JUMPI PUSH1 0xA0 PUSH2 0xC61 PUSH2 0x119C JUMP JUMPDEST PUSH1 0x80 PUSH1 0x40 MLOAD SWAP2 DUP1 MLOAD DUP4 MSTORE PUSH1 0x20 DUP2 ADD MLOAD PUSH1 0x20 DUP5 ADD MSTORE PUSH1 0x1 DUP1 DUP6 SHL SUB PUSH1 0x40 DUP3 ADD MLOAD AND PUSH1 0x40 DUP5 ADD MSTORE PUSH1 0x60 DUP2 ADD MLOAD PUSH1 0x60 DUP5 ADD MSTORE ADD MLOAD PUSH1 0x80 DUP3 ADD MSTORE RETURN JUMPDEST CALLVALUE PUSH2 0x1A7 JUMPI PUSH1 0x0 CALLDATASIZE PUSH1 0x3 NOT ADD SLT PUSH2 0x1A7 JUMPI PUSH2 0xCB2 PUSH2 0x158D JUMP JUMPDEST CALLER PUSH1 0x0 MSTORE PUSH1 0x11 PUSH1 0x20 MSTORE PUSH1 0x40 PUSH1 0x0 KECCAK256 SLOAD DUP1 ISZERO PUSH2 0xD8C JUMPI CALLER PUSH1 0x0 MSTORE PUSH1 0x11 PUSH1 0x20 MSTORE PUSH1 0x0 PUSH1 0x40 DUP2 KECCAK256 SSTORE PUSH1 0x0 DUP1 DUP1 DUP1 DUP5 CALLER GAS CALL RETURNDATASIZE ISZERO PUSH2 0xD87 JUMPI RETURNDATASIZE PUSH8 0xFFFFFFFFFFFFFFFF DUP2 GT PUSH2 0x54E JUMPI PUSH1 0x40 MLOAD SWAP1 PUSH2 0xD0E PUSH1 0x1F DUP3 ADD PUSH1 0x1F NOT AND PUSH1 0x20 ADD DUP4 PUSH2 0x10A9 JUMP JUMPDEST DUP2 MSTORE PUSH1 0x0 PUSH1 0x20 RETURNDATASIZE SWAP3 ADD RETURNDATACOPY JUMPDEST ISZERO PUSH2 0xD50 JUMPI PUSH1 0x40 MLOAD SWAP1 DUP2 MSTORE PUSH32 0x7FCF532C15F0A6DB0BD6D0E038BEA71D30D808C7D98CB3BF7268A95BF5081B65 PUSH1 0x20 CALLER SWAP3 LOG2 PUSH1 0x1 DUP1 SSTORE STOP JUMPDEST PUSH1 0x40 MLOAD PUSH3 0x461BCD PUSH1 0xE5 SHL DUP2 MSTORE PUSH1 0x20 PUSH1 0x4 DUP3 ADD MSTORE PUSH1 0xF PUSH1 0x24 DUP3 ADD MSTORE PUSH15 0x15DA5D1A191C985DC819985A5B1959 PUSH1 0x8A SHL PUSH1 0x44 DUP3 ADD MSTORE PUSH1 0x64 SWAP1 REVERT JUMPDEST PUSH2 0xD19 JUMP JUMPDEST PUSH1 0x40 MLOAD PUSH3 0x461BCD PUSH1 0xE5 SHL DUP2 MSTORE PUSH1 0x20 PUSH1 0x4 DUP3 ADD MSTORE PUSH1 0x8 PUSH1 0x24 DUP3 ADD MSTORE PUSH8 0x4E6F2066756E6473 PUSH1 0xC0 SHL PUSH1 0x44 DUP3 ADD MSTORE PUSH1 0x64 SWAP1 REVERT JUMPDEST CALLVALUE PUSH2 0x1A7 JUMPI PUSH1 0x0 CALLDATASIZE PUSH1 0x3 NOT ADD SLT PUSH2 0x1A7 JUMPI PUSH1 0x20 PUSH1 0x2 SLOAD PUSH1 0x40 MLOAD SWAP1 DUP2 MSTORE RETURN JUMPDEST CALLVALUE PUSH2 0x1A7 JUMPI PUSH1 0x40 CALLDATASIZE PUSH1 0x3 NOT ADD SLT PUSH2 0x1A7 JUMPI PUSH1 0x4 CALLDATALOAD PUSH2 0xDF6 PUSH2 0x158D JUMP JUMPDEST PUSH2 0xDFE PUSH2 0x1513 JUMP JUMPDEST PUSH1 0x6 DUP2 LT ISZERO PUSH2 0x654 JUMPI PUSH1 0x3 SUB PUSH2 0xF58 JUMPI CALLER PUSH1 0x0 MSTORE PUSH1 0xB PUSH1 0x20 MSTORE PUSH1 0x40 PUSH1 0x0 KECCAK256 PUSH1 0x2 DUP2 ADD SWAP1 DUP2 SLOAD PUSH1 0xFF DUP2 PUSH1 0x10 SHR AND DUP1 PUSH2 0xF4E JUMPI JUMPDEST ISZERO PUSH2 0xF1D JUMPI PUSH1 0xFF DUP2 PUSH1 0x8 SHR AND PUSH2 0xEE5 JUMPI PUSH1 0x40 MLOAD PUSH1 0x20 DUP2 ADD SWAP1 DUP6 DUP3 MSTORE PUSH1 0x24 CALLDATALOAD PUSH1 0x40 DUP3 ADD MSTORE PUSH1 0x40 DUP2 MSTORE PUSH2 0xE62 PUSH1 0x60 DUP3 PUSH2 0x10A9 JUMP JUMPDEST MLOAD SWAP1 KECCAK256 DUP3 SLOAD SUB PUSH2 0xEAF JUMPI DUP4 PUSH1 0x1 PUSH2 0x100 SWAP4 ADD SSTORE PUSH2 0xFF00 NOT AND OR SWAP1 SSTORE PUSH1 0x40 MLOAD SWAP1 DUP2 MSTORE PUSH32 0x54E8949E94ED0014D3A5385209B286177BA08C3416D2EE667A54F0341C46DD1D PUSH1 0x20 CALLER SWAP3 LOG2 PUSH1 0x1 DUP1 SSTORE STOP JUMPDEST PUSH1 0x40 MLOAD PUSH3 0x461BCD PUSH1 0xE5 SHL DUP2 MSTORE PUSH1 0x20 PUSH1 0x4 DUP3 ADD MSTORE PUSH1 0xE PUSH1 0x24 DUP3 ADD MSTORE PUSH14 0x125B9D985B1A59081C995D99585B PUSH1 0x92 SHL PUSH1 0x44 DUP3 ADD MSTORE PUSH1 0x64 SWAP1 REVERT JUMPDEST PUSH1 0x40 MLOAD PUSH3 0x461BCD PUSH1 0xE5 SHL DUP2 MSTORE PUSH1 0x20 PUSH1 0x4 DUP3 ADD MSTORE PUSH1 0x10 PUSH1 0x24 DUP3 ADD MSTORE PUSH16 0x105B1C9958591E481C995D99585B1959 PUSH1 0x82 SHL PUSH1 0x44 DUP3 ADD MSTORE PUSH1 0x64 SWAP1 REVERT JUMPDEST PUSH1 0x40 MLOAD PUSH3 0x461BCD PUSH1 0xE5 SHL DUP2 MSTORE PUSH1 0x20 PUSH1 0x4 DUP3 ADD MSTORE PUSH1 0x9 PUSH1 0x24 DUP3 ADD MSTORE PUSH9 0x139BC818DBDB5B5A5D PUSH1 0xBA SHL PUSH1 0x44 DUP3 ADD MSTORE PUSH1 0x64 SWAP1 REVERT JUMPDEST POP PUSH1 0xFF DUP2 AND PUSH2 0xE30 JUMP JUMPDEST PUSH1 0x40 MLOAD PUSH3 0x461BCD PUSH1 0xE5 SHL DUP2 MSTORE PUSH1 0x20 PUSH1 0x4 DUP3 ADD MSTORE PUSH1 0x10 PUSH1 0x24 DUP3 ADD MSTORE PUSH16 0x4E6F742072657665616C207068617365 PUSH1 0x80 SHL PUSH1 0x44 DUP3 ADD MSTORE PUSH1 0x64 SWAP1 REVERT JUMPDEST CALLVALUE PUSH2 0x1A7 JUMPI PUSH1 0x20 CALLDATASIZE PUSH1 0x3 NOT ADD SLT PUSH2 0x1A7 JUMPI PUSH1 0x4 CALLDATALOAD PUSH1 0xC SLOAD DUP2 LT ISZERO PUSH2 0x1A7 JUMPI PUSH2 0xFB9 PUSH1 0x20 SWAP2 PUSH2 0x105C JUMP JUMPDEST SWAP1 SLOAD PUSH1 0x40 MLOAD PUSH1 0x3 SWAP3 SWAP1 SWAP3 SHL SHR PUSH1 0x1 PUSH1 0x1 PUSH1 0xA0 SHL SUB AND DUP2 MSTORE RETURN JUMPDEST CALLVALUE PUSH2 0x1A7 JUMPI PUSH1 0x0 CALLDATASIZE PUSH1 0x3 NOT ADD SLT PUSH2 0x1A7 JUMPI PUSH1 0x20 PUSH1 0xE SLOAD PUSH1 0x40 MLOAD SWAP1 DUP2 MSTORE RETURN JUMPDEST CALLVALUE PUSH2 0x1A7 JUMPI PUSH1 0x0 CALLDATASIZE PUSH1 0x3 NOT ADD SLT PUSH2 0x1A7 JUMPI PUSH1 0x20 PUSH1 0x8 SLOAD PUSH1 0x40 MLOAD SWAP1 DUP2 MSTORE RETURN JUMPDEST CALLVALUE PUSH2 0x1A7 JUMPI PUSH1 0x0 CALLDATASIZE PUSH1 0x3 NOT ADD SLT PUSH2 0x1A7 JUMPI PUSH1 0x20 PUSH1 0x6 SLOAD PUSH1 0x40 MLOAD SWAP1 DUP2 MSTORE RETURN JUMPDEST CALLVALUE PUSH2 0x1A7 JUMPI PUSH1 0x0 CALLDATASIZE PUSH1 0x3 NOT ADD SLT PUSH2 0x1A7 JUMPI DUP1 PUSH2 0x261 PUSH1 0xFF PUSH1 0x9 SLOAD AND DUP3 JUMPDEST SWAP2 SWAP1 PUSH1 0x20 DUP4 ADD SWAP3 PUSH1 0x6 DUP3 LT ISZERO PUSH2 0x654 JUMPI MSTORE JUMP JUMPDEST PUSH1 0xC SLOAD DUP2 LT ISZERO PUSH2 0x1077 JUMPI PUSH1 0xC PUSH1 0x0 MSTORE PUSH1 0x20 PUSH1 0x0 KECCAK256 ADD SWAP1 PUSH1 0x0 SWAP1 JUMP JUMPDEST PUSH4 0x4E487B71 PUSH1 0xE0 SHL PUSH1 0x0 MSTORE PUSH1 0x32 PUSH1 0x4 MSTORE PUSH1 0x24 PUSH1 0x0 REVERT JUMPDEST PUSH1 0xA0 DUP2 ADD SWAP1 DUP2 LT PUSH8 0xFFFFFFFFFFFFFFFF DUP3 GT OR PUSH2 0x54E JUMPI PUSH1 0x40 MSTORE JUMP JUMPDEST SWAP1 PUSH1 0x1F DUP1 NOT SWAP2 ADD AND DUP2 ADD SWAP1 DUP2 LT PUSH8 0xFFFFFFFFFFFFFFFF DUP3 GT OR PUSH2 0x54E JUMPI PUSH1 0x40 MSTORE JUMP JUMPDEST SWAP2 SWAP1 DUP3 ADD DUP1 SWAP3 GT PUSH2 0x867 JUMPI JUMP JUMPDEST PUSH1 0x0 NOT DUP2 EQ PUSH2 0x867 JUMPI PUSH1 0x1 ADD SWAP1 JUMP JUMPDEST DUP2 ISZERO PUSH2 0x10F1 JUMPI DIV SWAP1 JUMP JUMPDEST PUSH4 0x4E487B71 PUSH1 0xE0 SHL PUSH1 0x0 MSTORE PUSH1 0x12 PUSH1 0x4 MSTORE PUSH1 0x24 PUSH1 0x0 REVERT JUMPDEST DUP2 DUP2 MUL SWAP3 SWAP2 DUP2 ISZERO SWAP2 DUP5 DIV EQ OR ISZERO PUSH2 0x867 JUMPI JUMP JUMPDEST PUSH8 0xFFFFFFFFFFFFFFFF DUP2 GT PUSH2 0x54E JUMPI PUSH1 0x5 SHL PUSH1 0x20 ADD SWAP1 JUMP JUMPDEST SWAP1 PUSH2 0x113C DUP3 PUSH2 0x111A JUMP JUMPDEST PUSH2 0x1149 PUSH1 0x40 MLOAD SWAP2 DUP3 PUSH2 0x10A9 JUMP JUMPDEST DUP3 DUP2 MSTORE DUP1 SWAP3 PUSH2 0x115A PUSH1 0x1F NOT SWAP2 PUSH2 0x111A JUMP JUMPDEST ADD SWAP1 PUSH1 0x20 CALLDATASIZE SWAP2 ADD CALLDATACOPY JUMP JUMPDEST SWAP2 SWAP1 DUP3 SUB SWAP2 DUP3 GT PUSH2 0x867 JUMPI JUMP JUMPDEST DUP1 MLOAD ISZERO PUSH2 0x1077 JUMPI PUSH1 0x20 ADD SWAP1 JUMP JUMPDEST DUP1 MLOAD DUP3 LT ISZERO PUSH2 0x1077 JUMPI PUSH1 0x20 SWAP2 PUSH1 0x5 SHL ADD ADD SWAP1 JUMP JUMPDEST DUP2 ISZERO PUSH2 0x10F1 JUMPI MOD SWAP1 JUMP JUMPDEST PUSH1 0x40 MLOAD PUSH2 0x11A8 DUP2 PUSH2 0x108D JUMP JUMPDEST PUSH1 0x0 DUP1 DUP3 MSTORE PUSH1 0x20 DUP3 ADD DUP2 DUP2 MSTORE PUSH1 0x40 DUP4 ADD DUP3 DUP2 MSTORE PUSH1 0x60 DUP5 ADD DUP4 DUP2 MSTORE PUSH1 0x80 DUP6 ADD DUP5 DUP2 MSTORE PUSH1 0xC SLOAD SWAP4 DUP6 SWAP4 DUP8 SWAP4 SWAP2 DUP6 JUMPDEST DUP8 DUP2 LT PUSH2 0x13F3 JUMPI POP DUP8 ISZERO PUSH2 0x13CC JUMPI POP POP POP POP POP DUP3 PUSH2 0x11F1 SWAP2 PUSH2 0x10E7 JUMP JUMPDEST SWAP1 DUP2 DUP5 MSTORE DUP2 PUSH1 0x1 SHL SWAP2 DUP1 DUP4 DIV PUSH1 0x2 EQ SWAP1 ISZERO OR ISZERO PUSH2 0x867 JUMPI SWAP2 PUSH1 0x3 PUSH1 0x20 DUP6 ADD SWAP3 DIV DUP3 MSTORE PUSH2 0x121F PUSH1 0x0 NOT SWAP2 PUSH2 0x1132 JUMP JUMPDEST SWAP3 PUSH1 0x0 SWAP3 PUSH1 0x0 SWAP3 JUMPDEST DUP3 DUP5 LT PUSH2 0x12E2 JUMPI POP POP POP POP PUSH1 0x1 DUP2 SUB PUSH2 0x127E JUMPI POP PUSH1 0x1 PUSH1 0x1 PUSH1 0xA0 SHL SUB SWAP1 PUSH2 0x124D SWAP1 PUSH2 0x1171 JUMP JUMPDEST MLOAD AND PUSH1 0x40 DUP3 ADD MSTORE JUMPDEST PUSH1 0x10 SLOAD PUSH2 0x1271 PUSH1 0x64 PUSH2 0x1269 PUSH1 0x7 SLOAD DUP5 PUSH2 0x1107 JUMP JUMPDEST DIV DUP1 SWAP3 PUSH2 0x1164 JUMP JUMPDEST PUSH1 0x60 DUP4 ADD MSTORE PUSH1 0x80 DUP3 ADD MSTORE SWAP1 JUMP JUMPDEST SWAP1 PUSH2 0x12D6 SWAP1 PUSH2 0x12D0 PUSH1 0x40 MLOAD SWAP4 PUSH1 0x20 DUP6 ADD PUSH2 0x12BC DUP7 PUSH2 0x12AE DUP5 PREVRANDAO TIMESTAMP DUP7 SWAP2 PUSH1 0x60 SWAP4 SWAP2 DUP4 MSTORE PUSH1 0x20 DUP4 ADD MSTORE PUSH1 0x40 DUP3 ADD MSTORE ADD SWAP1 JUMP JUMPDEST SUB PUSH1 0x1F NOT DUP2 ADD DUP9 MSTORE DUP8 PUSH2 0x10A9 JUMP JUMPDEST SWAP5 MLOAD SWAP1 SWAP5 KECCAK256 PUSH1 0x1 PUSH1 0x1 PUSH1 0xA0 SHL SUB SWAP5 SWAP1 PUSH2 0x1192 JUMP JUMPDEST SWAP1 PUSH2 0x117E JUMP JUMPDEST MLOAD AND PUSH1 0x40 DUP3 ADD MSTORE PUSH2 0x1255 JUMP JUMPDEST SWAP1 SWAP2 SWAP3 SWAP4 PUSH2 0x12EF DUP6 PUSH2 0x105C JUMP JUMPDEST PUSH1 0x1 DUP1 PUSH1 0xA0 SHL SUB SWAP2 SLOAD SWAP1 PUSH1 0x3 SHL SHR AND PUSH1 0x0 MSTORE PUSH1 0xB PUSH1 0x20 MSTORE PUSH1 0x40 PUSH1 0x0 KECCAK256 PUSH1 0xFF PUSH1 0x2 DUP3 ADD SLOAD PUSH1 0x8 SHR AND ISZERO PUSH2 0x13BF JUMPI PUSH1 0x1 ADD SLOAD DUP4 MLOAD SWAP1 DUP2 DUP2 GT ISZERO PUSH2 0x13B0 JUMPI PUSH2 0x1337 SWAP2 POP DUP5 MLOAD SWAP1 PUSH2 0x1164 JUMP JUMPDEST SWAP2 JUMPDEST DUP1 DUP4 LT ISZERO PUSH2 0x1373 JUMPI POP POP SWAP1 PUSH1 0x1 PUSH2 0x134F DUP6 PUSH2 0x105C JUMP JUMPDEST DUP3 DUP1 PUSH1 0xA0 SHL SUB SWAP2 SLOAD SWAP1 PUSH1 0x3 SHL SHR AND SWAP5 DUP2 SWAP6 PUSH2 0x1369 DUP9 PUSH2 0x1171 JUMP JUMPDEST MSTORE JUMPDEST ADD SWAP3 SWAP2 PUSH2 0x1227 JUMP JUMPDEST SWAP3 SWAP2 SWAP5 DUP4 PUSH1 0x1 SWAP3 SWAP7 SUB PUSH2 0x136B JUMPI PUSH2 0x1389 DUP2 PUSH2 0x105C JUMP JUMPDEST DUP4 DUP1 PUSH1 0xA0 SHL SUB SWAP2 SLOAD SWAP1 PUSH1 0x3 SHL SHR AND PUSH2 0x13AA PUSH2 0x13A3 DUP9 PUSH2 0x10D8 JUMP JUMPDEST SWAP8 DUP10 PUSH2 0x117E JUMP JUMPDEST MSTORE PUSH2 0x136B JUMP JUMPDEST PUSH2 0x13B9 SWAP2 PUSH2 0x1164 JUMP JUMPDEST SWAP2 PUSH2 0x1339 JUMP JUMPDEST POP SWAP4 PUSH1 0x1 SWAP1 SWAP3 SWAP2 SWAP3 PUSH2 0x136B JUMP JUMPDEST PUSH1 0x0 DUP1 DUP7 MSTORE SWAP1 DUP2 SWAP1 MSTORE DUP1 SLOAD PUSH1 0x1 PUSH1 0x1 PUSH1 0xA0 SHL SUB AND SWAP1 SWAP2 MSTORE PUSH1 0x10 SLOAD SWAP1 SWAP2 MSTORE SWAP1 MSTORE SWAP5 SWAP4 POP POP POP POP JUMP JUMPDEST PUSH2 0x13FC DUP2 PUSH2 0x105C JUMP JUMPDEST PUSH1 0x1 DUP1 PUSH1 0xA0 SHL SUB SWAP2 SLOAD SWAP1 PUSH1 0x3 SHL SHR AND PUSH1 0x0 MSTORE PUSH1 0xB PUSH1 0x20 MSTORE PUSH1 0x40 PUSH1 0x0 KECCAK256 PUSH1 0xFF PUSH1 0x2 DUP3 ADD SLOAD PUSH1 0x8 SHR AND PUSH2 0x1431 JUMPI JUMPDEST POP PUSH1 0x1 ADD PUSH2 0x11D4 JUMP JUMPDEST PUSH2 0x1446 PUSH1 0x1 SWAP3 SWAP11 SWAP9 DUP4 PUSH2 0x144C SWAP4 ADD SLOAD SWAP1 PUSH2 0x10CB JUMP JUMPDEST SWAP8 PUSH2 0x10D8 JUMP JUMPDEST SWAP9 SWAP1 PUSH2 0x1428 JUMP JUMPDEST ISZERO PUSH2 0x145A JUMPI JUMP JUMPDEST PUSH1 0x40 MLOAD PUSH3 0x461BCD PUSH1 0xE5 SHL DUP2 MSTORE PUSH1 0x20 PUSH1 0x4 DUP3 ADD MSTORE PUSH1 0xA PUSH1 0x24 DUP3 ADD MSTORE PUSH10 0x139BDD081A9BDA5B9959 PUSH1 0xB2 SHL PUSH1 0x44 DUP3 ADD MSTORE PUSH1 0x64 SWAP1 REVERT JUMPDEST PUSH1 0xC SLOAD PUSH1 0x2 SLOAD GT PUSH2 0x150E JUMPI PUSH2 0x14A6 PUSH1 0xA SLOAD PUSH1 0x8 SLOAD SWAP1 PUSH2 0x10CB JUMP JUMPDEST PUSH2 0x14B2 PUSH1 0x4 SLOAD DUP3 PUSH2 0x10CB JUMP JUMPDEST SWAP1 PUSH2 0x14BF PUSH1 0x5 SLOAD DUP4 PUSH2 0x10CB JUMP JUMPDEST SWAP2 DUP2 TIMESTAMP LT PUSH1 0x0 EQ PUSH2 0x14DA JUMPI POP PUSH2 0x14D7 SWAP2 POP TIMESTAMP SWAP1 PUSH2 0x1164 JUMP JUMPDEST SWAP1 JUMP JUMPDEST DUP1 SWAP2 POP TIMESTAMP LT PUSH1 0x0 EQ PUSH2 0x14F2 JUMPI PUSH2 0x14D7 SWAP2 POP TIMESTAMP SWAP1 PUSH2 0x1164 JUMP JUMPDEST POP DUP1 TIMESTAMP LT PUSH1 0x0 EQ PUSH2 0x1508 JUMPI PUSH2 0x14D7 SWAP1 TIMESTAMP SWAP1 PUSH2 0x1164 JUMP JUMPDEST POP PUSH1 0x0 SWAP1 JUMP JUMPDEST PUSH1 0x0 SWAP1 JUMP JUMPDEST PUSH1 0xFF PUSH1 0x9 SLOAD AND PUSH1 0x6 DUP2 LT ISZERO PUSH2 0x654 JUMPI PUSH1 0x5 EQ PUSH2 0x1588 JUMPI PUSH1 0xC SLOAD PUSH1 0x2 SLOAD GT PUSH2 0x150E JUMPI PUSH2 0x1543 PUSH1 0xA SLOAD PUSH1 0x8 SLOAD SWAP1 PUSH2 0x10CB JUMP JUMPDEST PUSH2 0x154F PUSH1 0x4 SLOAD DUP3 PUSH2 0x10CB JUMP JUMPDEST PUSH2 0x155B PUSH1 0x5 SLOAD DUP3 PUSH2 0x10CB JUMP JUMPDEST SWAP2 TIMESTAMP LT ISZERO PUSH2 0x156A JUMPI POP POP PUSH1 0x1 SWAP1 JUMP JUMPDEST TIMESTAMP LT ISZERO PUSH2 0x1577 JUMPI POP PUSH1 0x2 SWAP1 JUMP JUMPDEST TIMESTAMP LT ISZERO PUSH2 0x1583 JUMPI PUSH1 0x3 SWAP1 JUMP JUMPDEST PUSH1 0x4 SWAP1 JUMP JUMPDEST PUSH1 0x5 SWAP1 JUMP JUMPDEST PUSH1 0x2 PUSH1 0x1 SLOAD EQ PUSH2 0x159E JUMPI PUSH1 0x2 PUSH1 0x1 SSTORE JUMP JUMPDEST PUSH4 0x3EE5AEB5 PUSH1 0xE0 SHL PUSH1 0x0 MSTORE PUSH1 0x4 PUSH1 0x0 REVERT JUMPDEST PUSH1 0x0 SLOAD PUSH1 0x1 PUSH1 0x1 PUSH1 0xA0 SHL SUB AND CALLER SUB PUSH2 0x15C3 JUMPI JUMP JUMPDEST PUSH4 0x118CDAA7 PUSH1 0xE0 SHL PUSH1 0x0 MSTORE CALLER PUSH1 0x4 MSTORE PUSH1 0x24 PUSH1 0x0 REVERT JUMPDEST PUSH1 0x0 DUP1 PUSH1 0xC SLOAD SWAP1 PUSH1 0x0 JUMPDEST DUP3 DUP2 LT PUSH2 0x18F7 JUMPI POP DUP3 ISZERO PUSH2 0x1846 JUMPI DUP3 PUSH2 0x15FA SWAP2 PUSH2 0x10E7 JUMP JUMPDEST DUP1 PUSH1 0xD SSTORE DUP1 PUSH1 0x1 SHL SWAP1 DUP1 DUP3 DIV PUSH1 0x2 EQ SWAP1 ISZERO OR ISZERO PUSH2 0x867 JUMPI PUSH1 0x3 SWAP1 DIV SWAP1 DUP2 PUSH1 0xE SSTORE PUSH2 0x1626 PUSH1 0x0 NOT SWAP4 PUSH2 0x1132 JUMP JUMPDEST SWAP3 PUSH1 0x0 SWAP3 PUSH1 0x0 JUMPDEST DUP4 DUP2 LT PUSH2 0x176C JUMPI POP POP POP POP PUSH1 0x1 DUP2 SUB PUSH2 0x1725 JUMPI POP PUSH1 0x1 PUSH1 0x1 PUSH1 0xA0 SHL SUB SWAP1 PUSH2 0x1653 SWAP1 PUSH2 0x1171 JUMP JUMPDEST MLOAD AND PUSH1 0x1 DUP1 PUSH1 0xA0 SHL SUB NOT PUSH1 0xF SLOAD AND OR PUSH1 0xF SSTORE JUMPDEST PUSH32 0x1D3B18309FCD7BE02B3CB02A6B2EEBF55BDC38F582585BBAD82E449DA17FE810 PUSH1 0x80 PUSH1 0x10 SLOAD PUSH2 0x169D PUSH1 0x64 PUSH2 0x1269 PUSH1 0x7 SLOAD DUP5 PUSH2 0x1107 JUMP JUMPDEST SWAP1 PUSH1 0x1 DUP1 PUSH1 0xA0 SHL SUB PUSH1 0x0 SLOAD AND PUSH1 0x0 MSTORE PUSH1 0x11 PUSH1 0x20 MSTORE PUSH2 0x16C1 PUSH1 0x40 PUSH1 0x0 KECCAK256 SWAP2 DUP3 SLOAD PUSH2 0x10CB JUMP JUMPDEST SWAP1 SSTORE PUSH1 0x1 DUP1 PUSH1 0xA0 SHL SUB PUSH1 0xF SLOAD AND PUSH1 0x0 MSTORE PUSH1 0x11 PUSH1 0x20 MSTORE PUSH1 0x40 PUSH1 0x0 KECCAK256 PUSH2 0x16E6 DUP3 DUP3 SLOAD PUSH2 0x10CB JUMP JUMPDEST SWAP1 SSTORE PUSH2 0x16FA PUSH1 0x5 PUSH1 0xFF NOT PUSH1 0x9 SLOAD AND OR PUSH1 0x9 SSTORE JUMP JUMPDEST PUSH1 0xD SLOAD SWAP1 PUSH1 0xE SLOAD PUSH1 0x1 DUP1 PUSH1 0xA0 SHL SUB PUSH1 0xF SLOAD AND SWAP1 PUSH1 0x40 MLOAD SWAP4 DUP5 MSTORE PUSH1 0x20 DUP5 ADD MSTORE PUSH1 0x40 DUP4 ADD MSTORE PUSH1 0x60 DUP3 ADD MSTORE LOG1 JUMP JUMPDEST SWAP1 PUSH2 0x1755 SWAP1 PUSH2 0x12D0 PUSH1 0x40 MLOAD SWAP4 PUSH1 0x20 DUP6 ADD PUSH2 0x12BC DUP7 PUSH2 0x12AE DUP5 PREVRANDAO TIMESTAMP DUP7 SWAP2 PUSH1 0x60 SWAP4 SWAP2 DUP4 MSTORE PUSH1 0x20 DUP4 ADD MSTORE PUSH1 0x40 DUP3 ADD MSTORE ADD SWAP1 JUMP JUMPDEST MLOAD AND PUSH1 0x1 DUP1 PUSH1 0xA0 SHL SUB NOT PUSH1 0xF SLOAD AND OR PUSH1 0xF SSTORE PUSH2 0x1666 JUMP JUMPDEST PUSH2 0x1775 DUP2 PUSH2 0x105C JUMP JUMPDEST PUSH1 0x1 DUP1 PUSH1 0xA0 SHL SUB SWAP2 SLOAD SWAP1 PUSH1 0x3 SHL SHR AND PUSH1 0x0 MSTORE PUSH1 0xB PUSH1 0x20 MSTORE PUSH1 0x40 PUSH1 0x0 KECCAK256 PUSH1 0xFF PUSH1 0x2 DUP3 ADD SLOAD PUSH1 0x8 SHR AND PUSH2 0x17AA JUMPI JUMPDEST POP PUSH1 0x1 ADD PUSH2 0x162D JUMP JUMPDEST PUSH1 0x1 ADD SLOAD SWAP1 SWAP5 SWAP2 SWAP3 SWAP2 SWAP1 DUP4 DUP1 DUP3 GT ISZERO PUSH2 0x1836 JUMPI PUSH2 0x17C6 SWAP2 PUSH2 0x1164 JUMP JUMPDEST SWAP2 JUMPDEST DUP1 DUP4 LT ISZERO PUSH2 0x1800 JUMPI POP POP SWAP1 PUSH1 0x1 PUSH2 0x17DE DUP6 PUSH2 0x105C JUMP JUMPDEST DUP3 DUP1 PUSH1 0xA0 SHL SUB SWAP2 SLOAD SWAP1 PUSH1 0x3 SHL SHR AND SWAP5 DUP2 SWAP6 PUSH2 0x17F8 DUP9 PUSH2 0x1171 JUMP JUMPDEST MSTORE JUMPDEST SWAP1 PUSH2 0x17A1 JUMP JUMPDEST SWAP3 SWAP2 SWAP5 DUP4 PUSH1 0x1 SWAP3 SWAP7 SUB PUSH2 0x17FA JUMPI PUSH2 0x1816 DUP2 PUSH2 0x105C JUMP JUMPDEST DUP4 DUP1 PUSH1 0xA0 SHL SUB SWAP2 SLOAD SWAP1 PUSH1 0x3 SHL SHR AND PUSH2 0x1830 PUSH2 0x13A3 DUP9 PUSH2 0x10D8 JUMP JUMPDEST MSTORE PUSH2 0x17FA JUMP JUMPDEST SWAP1 PUSH2 0x1840 SWAP2 PUSH2 0x1164 JUMP JUMPDEST SWAP2 PUSH2 0x17C8 JUMP JUMPDEST POP POP POP PUSH1 0x10 SLOAD PUSH1 0x1 DUP1 PUSH1 0xA0 SHL SUB PUSH1 0x0 SLOAD AND PUSH1 0x0 MSTORE PUSH1 0x11 PUSH1 0x20 MSTORE PUSH2 0x186F PUSH1 0x40 PUSH1 0x0 KECCAK256 SWAP2 DUP3 SLOAD PUSH2 0x10CB JUMP JUMPDEST SWAP1 SSTORE PUSH1 0x0 DUP1 SLOAD PUSH1 0xF DUP1 SLOAD PUSH1 0x1 PUSH1 0x1 PUSH1 0xA0 SHL SUB NOT AND PUSH1 0x1 PUSH1 0x1 PUSH1 0xA0 SHL SUB SWAP3 SWAP1 SWAP3 AND SWAP2 SWAP1 SWAP2 OR SWAP1 SSTORE PUSH1 0xD DUP2 SWAP1 SSTORE PUSH1 0xE SSTORE PUSH1 0x9 DUP1 SLOAD PUSH1 0xFF NOT AND PUSH1 0x5 OR SWAP1 SSTORE PUSH32 0x1D3B18309FCD7BE02B3CB02A6B2EEBF55BDC38F582585BBAD82E449DA17FE810 PUSH1 0x80 PUSH1 0x1 DUP1 PUSH1 0xA0 SHL SUB PUSH1 0xF SLOAD AND PUSH1 0x10 SLOAD PUSH1 0x40 MLOAD SWAP2 PUSH1 0x0 DUP4 MSTORE PUSH1 0x0 PUSH1 0x20 DUP5 ADD MSTORE PUSH1 0x40 DUP4 ADD MSTORE PUSH1 0x60 DUP3 ADD MSTORE LOG1 JUMP JUMPDEST PUSH2 0x1900 DUP2 PUSH2 0x105C JUMP JUMPDEST PUSH1 0x1 DUP1 PUSH1 0xA0 SHL SUB SWAP2 SLOAD SWAP1 PUSH1 0x3 SHL SHR AND PUSH1 0x0 MSTORE PUSH1 0xB PUSH1 0x20 MSTORE PUSH1 0x40 PUSH1 0x0 KECCAK256 PUSH1 0xFF PUSH1 0x2 DUP3 ADD SLOAD PUSH1 0x8 SHR AND PUSH2 0x1935 JUMPI JUMPDEST POP PUSH1 0x1 ADD PUSH2 0x15E2 JUMP JUMPDEST PUSH2 0x194A PUSH1 0x1 SWAP3 SWAP6 SWAP4 DUP4 PUSH2 0x1950 SWAP4 ADD SLOAD SWAP1 PUSH2 0x10CB JUMP JUMPDEST SWAP3 PUSH2 0x10D8 JUMP JUMPDEST SWAP4 SWAP1 PUSH2 0x192C JUMP INVALID LOG2 PUSH5 0x6970667358 0x22 SLT KECCAK256 LOG1 OR MSTORE8 0x2B SWAP13 0xE1 PUSH22 0x5889C66D7C7F85EFF1254BEA412A97AC25C3BADECDDC 0xBA SELFDESTRUCT ADDRESS PUSH5 0x736F6C6343 STOP ADDMOD SHR STOP CALLER "},"methodIdentifiers":{"autoStartDelay()":"07f6aee8","average()":"b250717a","commitDuration()":"6f833811","commitGuess(bytes32)":"608a5d95","currentPhase()":"055ad42e","entryFee()":"072ea61c","finalizeGame()":"b03b2030","getPhase()":"eced0280","getPlayerCount()":"c2e52206","getPlayers()":"8b5b9ccc","getResults()":"4717f97c","getTimeRemaining()":"dac6270d","joinGame()":"d4f77b1c","leaveGame()":"b1501f9c","maxPlayers()":"4c2412a2","minPlayers()":"2770c895","minPlayersReachedTime()":"b07ddf8a","owner()":"8da5cb5b","pendingWithdrawals(address)":"f3f43703","playerAddresses(uint256)":"15c6aee2","players(address)":"e2eb41ff","prizePool()":"719ce73e","renounceOwnership()":"715018a6","revealDuration()":"886a6de1","revealGuess(uint256,bytes32)":"180c18c3","serviceFeePercent()":"995bc51e","transferOwnership(address)":"f2fde38b","twoThirdsAverage()":"0a4a922e","winner()":"dfbf53ae","withdraw()":"3ccfd60b"}}}}}