{"contracts/TwoThirdsAverageGame.sol":{"TwoThirdsAverageGame":{"abi":[{"inputs":[{"internalType":"uint256","name":"_minPlayers","type":"uint256"},{"internalType":"uint256","name":"_maxPlayers","type":"uint256"},{"internalType":"uint256","name":"_commitDuration","type":"uint256"},{"internalType":"uint256","name":"_revealDuration","type":"uint256"},{"internalType":"uint256","name":"_entryFee","type":"uint256"},{"internalType":"uint256","name":"_serviceFeePercent","type":"uint256"},{"internalType":"uint256","name":"_autoStartDelay","type":"uint256"}],"stateMutability":"nonpayable","type":"constructor"},{"inputs":[{"internalType":"address","name":"owner","type":"address"}],"name":"OwnableInvalidOwner","type":"error"},{"inputs":[{"internalType":"address","name":"account","type":"address"}],"name":"OwnableUnauthorizedAccount","type":"error"},{"inputs":[],"name":"ReentrancyGuardReentrantCall","type":"error"},{"anonymous":false,"inputs":[{"indexed":false,"internalType":"uint256","name":"startTime","type":"uint256"},{"indexed":false,"internalType":"uint256","name":"endTime","type":"uint256"}],"name":"CommitPhaseStarted","type":"event"},{"anonymous":false,"inputs":[{"indexed":false,"internalType":"uint256","name":"average","type":"uint256"},{"indexed":false,"internalType":"uint256","name":"twoThirdsAverage","type":"uint256"},{"indexed":false,"internalType":"address","name":"winner","type":"address"},{"indexed":false,"internalType":"uint256","name":"prize","type":"uint256"}],"name":"GameEnded","type":"event"},{"anonymous":false,"inputs":[{"indexed":false,"internalType":"uint256","name":"startTime","type":"uint256"},{"indexed":false,"internalType":"uint256","name":"commitStart","type":"uint256"},{"indexed":false,"internalType":"uint256","name":"commitEnd","type":"uint256"},{"indexed":false,"internalType":"uint256","name":"entryFee","type":"uint256"},{"indexed":false,"internalType":"uint256","name":"minPlayers","type":"uint256"},{"indexed":false,"internalType":"uint256","name":"maxPlayers","type":"uint256"}],"name":"GameStarting","type":"event"},{"anonymous":false,"inputs":[{"indexed":true,"internalType":"address","name":"player","type":"address"}],"name":"GuessCommitted","type":"event"},{"anonymous":false,"inputs":[{"indexed":true,"internalType":"address","name":"player","type":"address"},{"indexed":false,"internalType":"uint256","name":"guess","type":"uint256"}],"name":"GuessRevealed","type":"event"},{"anonymous":false,"inputs":[{"indexed":true,"internalType":"address","name":"previousOwner","type":"address"},{"indexed":true,"internalType":"address","name":"newOwner","type":"address"}],"name":"OwnershipTransferred","type":"event"},{"anonymous":false,"inputs":[{"indexed":false,"internalType":"enum TwoThirdsAverageGame.GamePhase","name":"from","type":"uint8"},{"indexed":false,"internalType":"enum TwoThirdsAverageGame.GamePhase","name":"to","type":"uint8"},{"indexed":false,"internalType":"uint256","name":"timestamp","type":"uint256"}],"name":"PhaseAdvanced","type":"event"},{"anonymous":false,"inputs":[{"indexed":true,"internalType":"address","name":"player","type":"address"},{"indexed":false,"internalType":"uint256","name":"entryFeePaid","type":"uint256"}],"name":"PlayerJoined","type":"event"},{"anonymous":false,"inputs":[{"indexed":false,"internalType":"uint256","name":"startTime","type":"uint256"},{"indexed":false,"internalType":"uint256","name":"endTime","type":"uint256"}],"name":"RevealPhaseStarted","type":"event"},{"anonymous":false,"inputs":[{"indexed":true,"internalType":"address","name":"recipient","type":"address"},{"indexed":false,"internalType":"uint256","name":"amount","type":"uint256"}],"name":"Withdrawal","type":"event"},{"inputs":[],"name":"autoStartDelay","outputs":[{"internalType":"uint256","name":"","type":"uint256"}],"stateMutability":"view","type":"function"},{"inputs":[],"name":"average","outputs":[{"internalType":"uint256","name":"","type":"uint256"}],"stateMutability":"view","type":"function"},{"inputs":[],"name":"catchUp","outputs":[],"stateMutability":"nonpayable","type":"function"},{"inputs":[],"name":"commitDuration","outputs":[{"internalType":"uint256","name":"","type":"uint256"}],"stateMutability":"view","type":"function"},{"inputs":[],"name":"commitEndTime","outputs":[{"internalType":"uint256","name":"","type":"uint256"}],"stateMutability":"view","type":"function"},{"inputs":[{"internalType":"bytes32","name":"hash","type":"bytes32"}],"name":"commitGuess","outputs":[],"stateMutability":"nonpayable","type":"function"},{"inputs":[],"name":"currentPhase","outputs":[{"internalType":"enum TwoThirdsAverageGame.GamePhase","name":"","type":"uint8"}],"stateMutability":"view","type":"function"},{"inputs":[],"name":"entryFee","outputs":[{"internalType":"uint256","name":"","type":"uint256"}],"stateMutability":"view","type":"function"},{"inputs":[],"name":"finalizeGame","outputs":[],"stateMutability":"nonpayable","type":"function"},{"inputs":[],"name":"getCommitEndTime","outputs":[{"internalType":"uint256","name":"","type":"uint256"}],"stateMutability":"view","type":"function"},{"inputs":[{"internalType":"address","name":"player","type":"address"}],"name":"getPendingWithdrawal","outputs":[{"internalType":"uint256","name":"","type":"uint256"}],"stateMutability":"view","type":"function"},{"inputs":[],"name":"getPhase","outputs":[{"internalType":"enum TwoThirdsAverageGame.GamePhase","name":"","type":"uint8"}],"stateMutability":"view","type":"function"},{"inputs":[],"name":"getPlayerCount","outputs":[{"internalType":"uint256","name":"","type":"uint256"}],"stateMutability":"view","type":"function"},{"inputs":[],"name":"getPlayers","outputs":[{"internalType":"address[]","name":"","type":"address[]"}],"stateMutability":"view","type":"function"},{"inputs":[],"name":"getPrizePool","outputs":[{"internalType":"uint256","name":"","type":"uint256"}],"stateMutability":"view","type":"function"},{"inputs":[],"name":"getRevealEndTime","outputs":[{"internalType":"uint256","name":"","type":"uint256"}],"stateMutability":"view","type":"function"},{"inputs":[],"name":"getTimeRemaining","outputs":[{"internalType":"uint256","name":"","type":"uint256"}],"stateMutability":"view","type":"function"},{"inputs":[],"name":"joinGame","outputs":[],"stateMutability":"payable","type":"function"},{"inputs":[],"name":"leaveGame","outputs":[],"stateMutability":"nonpayable","type":"function"},{"inputs":[],"name":"maxPlayers","outputs":[{"internalType":"uint256","name":"","type":"uint256"}],"stateMutability":"view","type":"function"},{"inputs":[],"name":"minPlayers","outputs":[{"internalType":"uint256","name":"","type":"uint256"}],"stateMutability":"view","type":"function"},{"inputs":[],"name":"minPlayersReachedTime","outputs":[{"internalType":"uint256","name":"","type":"uint256"}],"stateMutability":"view","type":"function"},{"inputs":[],"name":"owner","outputs":[{"internalType":"address","name":"","type":"address"}],"stateMutability":"view","type":"function"},{"inputs":[{"internalType":"address","name":"","type":"address"}],"name":"pendingWithdrawals","outputs":[{"internalType":"uint256","name":"","type":"uint256"}],"stateMutability":"view","type":"function"},{"inputs":[{"internalType":"enum TwoThirdsAverageGame.GamePhase","name":"","type":"uint8"}],"name":"phaseStartTime","outputs":[{"internalType":"uint256","name":"","type":"uint256"}],"stateMutability":"view","type":"function"},{"inputs":[{"internalType":"uint256","name":"","type":"uint256"}],"name":"playerAddresses","outputs":[{"internalType":"address","name":"","type":"address"}],"stateMutability":"view","type":"function"},{"inputs":[{"internalType":"address","name":"","type":"address"}],"name":"players","outputs":[{"internalType":"bytes32","name":"commitment","type":"bytes32"},{"internalType":"uint256","name":"revealedGuess","type":"uint256"},{"internalType":"bool","name":"hasCommitted","type":"bool"},{"internalType":"bool","name":"hasRevealed","type":"bool"},{"internalType":"bool","name":"hasJoined","type":"bool"}],"stateMutability":"view","type":"function"},{"inputs":[],"name":"prizePool","outputs":[{"internalType":"uint256","name":"","type":"uint256"}],"stateMutability":"view","type":"function"},{"inputs":[],"name":"renounceOwnership","outputs":[],"stateMutability":"nonpayable","type":"function"},{"inputs":[],"name":"revealDuration","outputs":[{"internalType":"uint256","name":"","type":"uint256"}],"stateMutability":"view","type":"function"},{"inputs":[],"name":"revealEndTime","outputs":[{"internalType":"uint256","name":"","type":"uint256"}],"stateMutability":"view","type":"function"},{"inputs":[{"internalType":"uint256","name":"guess","type":"uint256"},{"internalType":"bytes32","name":"salt","type":"bytes32"}],"name":"revealGuess","outputs":[],"stateMutability":"nonpayable","type":"function"},{"inputs":[],"name":"serviceFeePercent","outputs":[{"internalType":"uint256","name":"","type":"uint256"}],"stateMutability":"view","type":"function"},{"inputs":[{"internalType":"address","name":"newOwner","type":"address"}],"name":"transferOwnership","outputs":[],"stateMutability":"nonpayable","type":"function"},{"inputs":[],"name":"twoThirdsAverage","outputs":[{"internalType":"uint256","name":"","type":"uint256"}],"stateMutability":"view","type":"function"},{"inputs":[],"name":"winner","outputs":[{"internalType":"address","name":"","type":"address"}],"stateMutability":"view","type":"function"},{"inputs":[],"name":"withdraw","outputs":[],"stateMutability":"nonpayable","type":"function"}],"evm":{"bytecode":{"linkReferences":{},"object":"60803461029957600090611f9c3881900390601f8201601f191683016001600160401b03811184821017610285579180849260e094604052833981010312610281578051906020810151604082015160608301519060808401519260c060a086015195015195331561026d578754336001600160a01b0319821681178a55604051916001600160a01b03167f8be0079c531659141344cd1fd0a4f28419497f9722a3daafe3b4186f6b6457e08b80a360018055600382106102385750808211156102075782156101d157831561019b57861561016a576014861161013857600255600355600455600555600655600755600855506009805460ff1916905560008052600a602052427f13da86008ba1c6922daee3e07db95305ef49ebced9f5467a0b8613fcc6b343e355604051611cfd908161029f8239f35b60405162461bcd60e51b815260206004820152600a602482015269466565203c3d2032302560b01b6044820152606490fd5b60405162461bcd60e51b8152602060048201526009602482015268044656c6179203e20360bc1b6044820152606490fd5b60405162461bcd60e51b815260206004820152600e60248201526d052657665616c20647572203e20360941b6044820152606490fd5b60405162461bcd60e51b815260206004820152600e60248201526d0436f6d6d697420647572203e20360941b6044820152606490fd5b60405162461bcd60e51b815260206004820152600960248201526826b0bc101f1036b4b760b91b6044820152606490fd5b62461bcd60e51b815260206004820152601060248201526f4d696e20706c6179657273203e3d203360801b6044820152606490fd5b631e4fbdf760e01b88526004889052602488fd5b5080fd5b634e487b7160e01b85526041600452602485fd5b600080fdfe608080604052600436101561001357600080fd5b60003560e01c908163055ad42e1461168d57508063072ea61c1461166f57806307f6aee8146116515780630a4a922e146116335780630ee70881146112b457806315c6aee2146115f1578063180c18c3146114315780632770c895146114135780632a5aa13d146109305780633ccfd60b146112f05780634c2412a2146112d25780635a7013aa146112b4578063608a5d951461116e5780636f83381114611150578063715018a6146110f7578063719ce73e146110d95780637ee8b2f8146101b6578063884bf67c146110d9578063886a6de1146110bb5780638b5b9ccc1461100b5780638b7a295514610fda5780638d6b8b4114610e105780638da5cb5b14610de7578063995bc51e14610dc9578063b03b203014610b9a578063b07ddf8a14610b7c578063b1501f9c1461098a578063b250717a1461096c578063c2e522061461094e578063d49dc1d814610930578063d4f77b1c1461036e578063dac6270d1461034b578063dfbf53ae14610322578063e2eb41ff146102ae578063eced028014610286578063f2fde38b146101f95763f3f43703146101b657600080fd5b346101f45760203660031901126101f4576004356001600160a01b038116908190036101f45760005260146020526020604060002054604051908152f35b600080fd5b346101f45760203660031901126101f4576004356001600160a01b038116908190036101f457610227611858565b801561027057600080546001600160a01b03198116831782556001600160a01b0316907f8be0079c531659141344cd1fd0a4f28419497f9722a3daafe3b4186f6b6457e09080a3005b631e4fbdf760e01b600052600060045260246000fd5b346101f45760003660031901126101f457602060ff600954166102ac60405180926116ac565bf35b346101f45760203660031901126101f4576004356001600160a01b038116908190036101f457600052600e60205260a0604060002060ff8154916002600182015491015490604051938452602084015281811615156040840152818160081c161515606084015260101c1615156080820152f35b346101f45760003660031901126101f4576012546040516001600160a01b039091168152602090f35b346101f45760003660031901126101f45760206103666117b7565b604051908152f35b60003660031901126101f457610382611836565b60ff600954166006811015806107325781158015610923575b156108f05761073257600114806108d8575b61089e57600f54600354111561086d5733600052600e60205260ff60026040600020015460101c166108375760065434036108005760405160a0810181811067ffffffffffffffff8211176107ea57604052600081526020810160008152604082019160008352600260608201916000835260808101936001855233600052600e602052604060002091518255516001820155019251151560ff8019855416911617835551151561ff0083549160081b169061ff00191617825551151562ff000082549160101b169062ff00001916179055600f54600160401b8110156107ea576104a18160016104bf9301600f556116b9565b81546001600160a01b0360039290921b91821b19163390911b179055565b6104cb3460135461179d565b6013556040513481527f3330a6773675f31f62070870f40379f8c6d42e3761410011a4dfc42b18043d2f60203392a2600f546002541115806107e0575b610748575b60ff600954166006811015610732576001148061071a575b610530575b60018055005b610538611836565b600060015b15610706575b50600080610556600b546008549061179d565b60ff6009541660068110156106f25760011490816106e7575b506106855760ff6009541660068110156106035760021480610679575b6106175760ff60095416600681101561060357600314806105f7575b1561053d5790506105c1600460ff196009541617600955565b600080516020611ca883398151915260606040516003815260046020820152426040820152a16105ef6118c9565b60019061053d565b50600d544210156105a8565b634e487b7160e01b82526021600452602482fd5b905061062b600360ff196009541617600955565b4261063a60ff600954166116ea565b55600080516020611ca883398151915260606106586005544261179d565b80600d556040519060028252600360208301526040820152a160019061053d565b50600c5442101561058c565b9050610699600260ff196009541617600955565b426106a860ff600954166116ea565b55600080516020611ca883398151915260606106c66004544261179d565b80600c556040519060018252600260208301526040820152a160019061053d565b90504210158361056f565b634e487b7160e01b83526021600452602483fd5b156107115780610543565b6001805561052a565b5061072a600b546008549061179d565b421015610525565b634e487b7160e01b600052602160045260246000fd5b42600b55600160ff1960095416176009554261076860ff600954166116ea565b557ff2546de66f180061ee75953fe1999fc0475daef64d87e75ad834022b57031d2f60c06008546107af6107a661079f834261179d565b924261179d565b6004549061179d565b600654600254906003549260405194428652602086015260408501526060840152608083015260a0820152a161050d565b50600b5415610508565b634e487b7160e01b600052604160045260246000fd5b60405162461bcd60e51b815260206004820152600f60248201526e57726f6e6720656e7472792066656560881b6044820152606490fd5b60405162461bcd60e51b815260206004820152600e60248201526d105b1c9958591e481a9bda5b995960921b6044820152606490fd5b60405162461bcd60e51b815260206004820152600960248201526811d85b5948199d5b1b60ba1b6044820152606490fd5b60405162461bcd60e51b8152602060048201526012602482015271129bda5b881dda5b991bddc818db1bdcd95960721b6044820152606490fd5b506108e8600b546008549061179d565b4210156103ad565b60405162461bcd60e51b815260206004820152600b60248201526a21b0b73737ba103537b4b760a91b6044820152606490fd5b505060006001821461039b565b346101f45760003660031901126101f4576020600d54604051908152f35b346101f45760003660031901126101f4576020600f54604051908152f35b346101f45760003660031901126101f4576020601054604051908152f35b346101f45760003660031901126101f4576109a3611836565b60ff60095416600681101561073257610b435733600052600e6020526109d660ff60026040600020015460101c16611764565b33600052600e602052600260406000200162ff0000198154169055600654610a00816013546117aa565b601355336000526014602052610a1c604060002091825461179d565b9055600f546000805b828110610b12575b506000198201918211610afc57610a61610a49610a85936116b9565b905460039190911b1c6001600160a01b0316916116b9565b81546001600160a01b0393841660039290921b91821b9390911b1916919091179055565b600f548015610ae65760001901610a9b816116b9565b81549060018060a01b039060031b1b19169055600f556006546040519081527f7fcf532c15f0a6db0bd6d0e038bea71d30d808c7d98cb3bf7268a95bf5081b6560203392a260018055005b634e487b7160e01b600052603160045260246000fd5b634e487b7160e01b600052601160045260246000fd5b610b1b816116b9565b905460039190911b1c6001600160a01b03163314610b3b57600101610a25565b905082610a2d565b60405162461bcd60e51b8152602060048201526011602482015270546f6f206c61746520746f206c6561766560781b6044820152606490fd5b346101f45760003660031901126101f4576020600b54604051908152f35b346101f45760003660031901126101f457610bb3611836565b60ff600954166006811015610732576003610bce9114611703565b600d544210610d9057610bdf611836565b600060015b15610d85575b50600080610bfd600b546008549061179d565b60ff6009541660068110156106f2576001149081610d7a575b50610d185760ff6009541660068110156106035760021480610d0c575b610caa5760ff6009541660068110156106035760031480610c9e575b15610be4579050610c68600460ff196009541617600955565b600080516020611ca883398151915260606040516003815260046020820152426040820152a1610c966118c9565b600190610be4565b50600d54421015610c4f565b9050610cbe600360ff196009541617600955565b42610ccd60ff600954166116ea565b55600080516020611ca88339815191526060610ceb6005544261179d565b80600d556040519060028252600360208301526040820152a1600190610be4565b50600c54421015610c33565b9050610d2c600260ff196009541617600955565b42610d3b60ff600954166116ea565b55600080516020611ca88339815191526060610d596004544261179d565b80600c556040519060018252600260208301526040820152a1600190610be4565b905042101583610c16565b1561052a5780610bea565b60405162461bcd60e51b81526020600482015260116024820152702932bb32b0b61039ba34b6361037b832b760791b6044820152606490fd5b346101f45760003660031901126101f4576020600754604051908152f35b346101f45760003660031901126101f4576000546040516001600160a01b039091168152602090f35b346101f45760003660031901126101f457610e29611836565b600060015b15610fcf575b50600080610e47600b546008549061179d565b60ff6009541660068110156106f2576001149081610fc4575b50610f625760ff6009541660068110156106035760021480610f56575b610ef45760ff6009541660068110156106035760031480610ee8575b15610e2e579050610eb2600460ff196009541617600955565b600080516020611ca883398151915260606040516003815260046020820152426040820152a1610ee06118c9565b600190610e2e565b50600d54421015610e99565b9050610f08600360ff196009541617600955565b42610f1760ff600954166116ea565b55600080516020611ca88339815191526060610f356005544261179d565b80600d556040519060028252600360208301526040820152a1600190610e2e565b50600c54421015610e7d565b9050610f76600260ff196009541617600955565b42610f8560ff600954166116ea565b55600080516020611ca88339815191526060610fa36004544261179d565b80600c556040519060018252600260208301526040820152a1600190610e2e565b905042101583610e60565b1561052a5780610e34565b346101f45760203660031901126101f45760043560068110156101f4576110026020916116ea565b54604051908152f35b346101f45760003660031901126101f457604051806020600f5492838152018092600f60005260206000209060005b81811061109c5750505081611050910382611742565b6040519182916020830190602084525180915260408301919060005b81811061107a575050500390f35b82516001600160a01b031684528594506020938401939092019160010161106c565b82546001600160a01b031684526020909301926001928301920161103a565b346101f45760003660031901126101f4576020600554604051908152f35b346101f45760003660031901126101f4576020601354604051908152f35b346101f45760003660031901126101f457611110611858565b600080546001600160a01b0319811682556001600160a01b03167f8be0079c531659141344cd1fd0a4f28419497f9722a3daafe3b4186f6b6457e08280a3005b346101f45760003660031901126101f4576020600454604051908152f35b346101f45760203660031901126101f457611187611836565b60ff6009541660068110156107325760020361127c57600c544210156112475733600052600e6020526040600020600281019081546111cb60ff8260101c16611764565b60ff811661120e5760043590915560ff19166001179055337f2245d2014b9bc41d5ccc6707edcba84a49b93b49441335f266a3e83b4e6330fd600080a260018055005b60405162461bcd60e51b8152602060048201526011602482015270105b1c9958591e4818dbdb5b5a5d1d1959607a1b6044820152606490fd5b60405162461bcd60e51b815260206004820152600d60248201526c10dbdb5b5a5d0818db1bdcd959609a1b6044820152606490fd5b60405162461bcd60e51b815260206004820152601060248201526f4e6f7420636f6d6d697420706861736560801b6044820152606490fd5b346101f45760003660031901126101f4576020600c54604051908152f35b346101f45760003660031901126101f4576020600354604051908152f35b346101f45760003660031901126101f457611309611836565b33600052601460205260406000205480156113e35733600052601460205260006040812055600080808084335af13d156113de573d67ffffffffffffffff81116107ea5760405190611365601f8201601f191660200183611742565b8152600060203d92013e5b156113a7576040519081527f7fcf532c15f0a6db0bd6d0e038bea71d30d808c7d98cb3bf7268a95bf5081b6560203392a260018055005b60405162461bcd60e51b815260206004820152600f60248201526e15da5d1a191c985dc819985a5b1959608a1b6044820152606490fd5b611370565b60405162461bcd60e51b81526020600482015260086024820152674e6f2066756e647360c01b6044820152606490fd5b346101f45760003660031901126101f4576020600254604051908152f35b346101f45760403660031901126101f45760043561144d611836565b60ff6009541660068110156107325760036114689114611703565b600d544210156115bc5733600052600e60205260406000206002810190815460ff8160101c16806115b2575b156115815760ff8160081c166115495760405160208101908582526024356040820152604081526114c6606082611742565b5190208254036115135783600161010093015561ff0019161790556040519081527f54e8949e94ed0014d3a5385209b286177ba08c3416d2ee667a54f0341c46dd1d60203392a260018055005b60405162461bcd60e51b815260206004820152600e60248201526d125b9d985b1a59081c995d99585b60921b6044820152606490fd5b60405162461bcd60e51b815260206004820152601060248201526f105b1c9958591e481c995d99585b195960821b6044820152606490fd5b60405162461bcd60e51b8152602060048201526009602482015268139bc818dbdb5b5a5d60ba1b6044820152606490fd5b5060ff8116611494565b60405162461bcd60e51b815260206004820152600d60248201526c14995d99585b0818db1bdcd959609a1b6044820152606490fd5b346101f45760203660031901126101f457600435600f548110156101f45761161a6020916116b9565b905460405160039290921b1c6001600160a01b03168152f35b346101f45760003660031901126101f4576020601154604051908152f35b346101f45760003660031901126101f4576020600854604051908152f35b346101f45760003660031901126101f4576020600654604051908152f35b346101f45760003660031901126101f457806102ac60209260ff600954165b9060068210156107325752565b600f548110156116d457600f60005260206000200190600090565b634e487b7160e01b600052603260045260246000fd5b600681101561073257600052600a602052604060002090565b1561170a57565b60405162461bcd60e51b815260206004820152601060248201526f4e6f742072657665616c20706861736560801b6044820152606490fd5b90601f8019910116810190811067ffffffffffffffff8211176107ea57604052565b1561176b57565b60405162461bcd60e51b815260206004820152600a602482015269139bdd081a9bda5b995960b21b6044820152606490fd5b91908201809211610afc57565b91908203918211610afc57565b60ff600954166117c6816116ea565b5460009160068110156106f2576001810361180657506117ea91506008549061179d565b80421015611800576117fd9042906117aa565b90565b50600090565b6002810361181d57506117ea91506004549061179d565b600303611832576117ea91506005549061179d565b5090565b600260015414611847576002600155565b633ee5aeb560e01b60005260046000fd5b6000546001600160a01b0316330361186c57565b63118cdaa760e01b6000523360045260246000fd5b6000198114610afc5760010190565b67ffffffffffffffff81116107ea5760051b60200190565b8051156116d45760200190565b80518210156116d45760209160051b010190565b600080600f549060005b828110611c4757508215611b9657829004806010558060011b9080820460021490151715610afc5760039004908160115560001961191084611890565b9361191e6040519586611742565b80855261192d601f1991611890565b0136602086013760009260005b838110611ab5575050505060018103611a4357506001600160a01b0390611960906118a8565b511660018060a01b031960125416176012555b611985600560ff196009541617600955565b601354600754808202908282041482151715610afc577f1d3b18309fcd7be02b3cb02a6b2eebf55bdc38f582585bbad82e449da17fe810916119cd60646080930480926117aa565b9060018060a01b036000541660005260146020526119f1604060002091825461179d565b905560018060a01b036012541660005260146020526040600020611a1682825461179d565b90556010549060115460018060a01b036012541690604051938452602084015260408301526060820152a1565b604051602081019042825244604082015282606082015260608152611a69608082611742565b519020918115611a9f576001600160a01b0392611a88929006906118b5565b511660018060a01b03196012541617601255611973565b634e487b7160e01b600052601260045260246000fd5b611abe816116b9565b60018060a01b0391549060031b1c16600052600e602052604060002060ff600282015460081c16611af3575b5060010161193a565b600101549094919291908380821115611b8657611b0f916117aa565b915b80831015611b49575050906001611b27856116b9565b828060a01b0391549060031b1c16948195611b41886118a8565b525b90611aea565b929194836001929603611b4357611b5f816116b9565b838060a01b0391549060031b1c16611b80611b7988611881565b97896118b5565b52611b43565b90611b90916117aa565b91611b11565b50505060135460018060a01b03600054166000526014602052611bbf604060002091825461179d565b905560008054601280546001600160a01b0319166001600160a01b039290921691909117905560108190556011556009805460ff191660051790557f1d3b18309fcd7be02b3cb02a6b2eebf55bdc38f582585bbad82e449da17fe810608060018060a01b036000541660135460405191600083526000602084015260408301526060820152a1565b611c50816116b9565b60018060a01b0391549060031b1c16600052600e602052604060002060ff600282015460081c16611c85575b506001016118d3565b611c9a600192959383611ca09301549061179d565b92611881565b9390611c7c56fea0b56c84658cbeecacafb795505a4cd8f1a2bd2e60c417ee92882b9079789ea1a2646970667358221220aa8d9f54a82cc76d8dddcca5ccd47dc0a3491bae31e00e40dfbbcd9be13cfb0664736f6c634300081c0033","opcodes":"PUSH1 0x80 CALLVALUE PUSH2 0x299 JUMPI PUSH1 0x0 SWAP1 PUSH2 0x1F9C CODESIZE DUP2 SWAP1 SUB SWAP1 PUSH1 0x1F DUP3 ADD PUSH1 0x1F NOT AND DUP4 ADD PUSH1 0x1 PUSH1 0x1 PUSH1 0x40 SHL SUB DUP2 GT DUP5 DUP3 LT OR PUSH2 0x285 JUMPI SWAP2 DUP1 DUP5 SWAP3 PUSH1 0xE0 SWAP5 PUSH1 0x40 MSTORE DUP4 CODECOPY DUP2 ADD SUB SLT PUSH2 0x281 JUMPI DUP1 MLOAD SWAP1 PUSH1 0x20 DUP2 ADD MLOAD PUSH1 0x40 DUP3 ADD MLOAD PUSH1 0x60 DUP4 ADD MLOAD SWAP1 PUSH1 0x80 DUP5 ADD MLOAD SWAP3 PUSH1 0xC0 PUSH1 0xA0 DUP7 ADD MLOAD SWAP6 ADD MLOAD SWAP6 CALLER ISZERO PUSH2 0x26D JUMPI DUP8 SLOAD CALLER PUSH1 0x1 PUSH1 0x1 PUSH1 0xA0 SHL SUB NOT DUP3 AND DUP2 OR DUP11 SSTORE PUSH1 0x40 MLOAD SWAP2 PUSH1 0x1 PUSH1 0x1 PUSH1 0xA0 SHL SUB AND PUSH32 0x8BE0079C531659141344CD1FD0A4F28419497F9722A3DAAFE3B4186F6B6457E0 DUP12 DUP1 LOG3 PUSH1 0x1 DUP1 SSTORE PUSH1 0x3 DUP3 LT PUSH2 0x238 JUMPI POP DUP1 DUP3 GT ISZERO PUSH2 0x207 JUMPI DUP3 ISZERO PUSH2 0x1D1 JUMPI DUP4 ISZERO PUSH2 0x19B JUMPI DUP7 ISZERO PUSH2 0x16A JUMPI PUSH1 0x14 DUP7 GT PUSH2 0x138 JUMPI PUSH1 0x2 SSTORE PUSH1 0x3 SSTORE PUSH1 0x4 SSTORE PUSH1 0x5 SSTORE PUSH1 0x6 SSTORE PUSH1 0x7 SSTORE PUSH1 0x8 SSTORE POP PUSH1 0x9 DUP1 SLOAD PUSH1 0xFF NOT AND SWAP1 SSTORE PUSH1 0x0 DUP1 MSTORE PUSH1 0xA PUSH1 0x20 MSTORE TIMESTAMP PUSH32 0x13DA86008BA1C6922DAEE3E07DB95305EF49EBCED9F5467A0B8613FCC6B343E3 SSTORE PUSH1 0x40 MLOAD PUSH2 0x1CFD SWAP1 DUP2 PUSH2 0x29F DUP3 CODECOPY RETURN JUMPDEST PUSH1 0x40 MLOAD PUSH3 0x461BCD PUSH1 0xE5 SHL DUP2 MSTORE PUSH1 0x20 PUSH1 0x4 DUP3 ADD MSTORE PUSH1 0xA PUSH1 0x24 DUP3 ADD MSTORE PUSH10 0x466565203C3D20323025 PUSH1 0xB0 SHL PUSH1 0x44 DUP3 ADD MSTORE PUSH1 0x64 SWAP1 REVERT JUMPDEST PUSH1 0x40 MLOAD PUSH3 0x461BCD PUSH1 0xE5 SHL DUP2 MSTORE PUSH1 0x20 PUSH1 0x4 DUP3 ADD MSTORE PUSH1 0x9 PUSH1 0x24 DUP3 ADD MSTORE PUSH9 0x44656C6179203E203 PUSH1 0xBC SHL PUSH1 0x44 DUP3 ADD MSTORE PUSH1 0x64 SWAP1 REVERT JUMPDEST PUSH1 0x40 MLOAD PUSH3 0x461BCD PUSH1 0xE5 SHL DUP2 MSTORE PUSH1 0x20 PUSH1 0x4 DUP3 ADD MSTORE PUSH1 0xE PUSH1 0x24 DUP3 ADD MSTORE PUSH14 0x52657665616C20647572203E203 PUSH1 0x94 SHL PUSH1 0x44 DUP3 ADD MSTORE PUSH1 0x64 SWAP1 REVERT JUMPDEST PUSH1 0x40 MLOAD PUSH3 0x461BCD PUSH1 0xE5 SHL DUP2 MSTORE PUSH1 0x20 PUSH1 0x4 DUP3 ADD MSTORE PUSH1 0xE PUSH1 0x24 DUP3 ADD MSTORE PUSH14 0x436F6D6D697420647572203E203 PUSH1 0x94 SHL PUSH1 0x44 DUP3 ADD MSTORE PUSH1 0x64 SWAP1 REVERT JUMPDEST PUSH1 0x40 MLOAD PUSH3 0x461BCD PUSH1 0xE5 SHL DUP2 MSTORE PUSH1 0x20 PUSH1 0x4 DUP3 ADD MSTORE PUSH1 0x9 PUSH1 0x24 DUP3 ADD MSTORE PUSH9 0x26B0BC101F1036B4B7 PUSH1 0xB9 SHL PUSH1 0x44 DUP3 ADD MSTORE PUSH1 0x64 SWAP1 REVERT JUMPDEST PUSH3 0x461BCD PUSH1 0xE5 SHL DUP2 MSTORE PUSH1 0x20 PUSH1 0x4 DUP3 ADD MSTORE PUSH1 0x10 PUSH1 0x24 DUP3 ADD MSTORE PUSH16 0x4D696E20706C6179657273203E3D2033 PUSH1 0x80 SHL PUSH1 0x44 DUP3 ADD MSTORE PUSH1 0x64 SWAP1 REVERT JUMPDEST PUSH4 0x1E4FBDF7 PUSH1 0xE0 SHL DUP9 MSTORE PUSH1 0x4 DUP9 SWAP1 MSTORE PUSH1 0x24 DUP9 REVERT JUMPDEST POP DUP1 REVERT JUMPDEST PUSH4 0x4E487B71 PUSH1 0xE0 SHL DUP6 MSTORE PUSH1 0x41 PUSH1 0x4 MSTORE PUSH1 0x24 DUP6 REVERT JUMPDEST PUSH1 0x0 DUP1 REVERT INVALID PUSH1 0x80 DUP1 PUSH1 0x40 MSTORE PUSH1 0x4 CALLDATASIZE LT ISZERO PUSH2 0x13 JUMPI PUSH1 0x0 DUP1 REVERT JUMPDEST PUSH1 0x0 CALLDATALOAD PUSH1 0xE0 SHR SWAP1 DUP2 PUSH4 0x55AD42E EQ PUSH2 0x168D JUMPI POP DUP1 PUSH4 0x72EA61C EQ PUSH2 0x166F JUMPI DUP1 PUSH4 0x7F6AEE8 EQ PUSH2 0x1651 JUMPI DUP1 PUSH4 0xA4A922E EQ PUSH2 0x1633 JUMPI DUP1 PUSH4 0xEE70881 EQ PUSH2 0x12B4 JUMPI DUP1 PUSH4 0x15C6AEE2 EQ PUSH2 0x15F1 JUMPI DUP1 PUSH4 0x180C18C3 EQ PUSH2 0x1431 JUMPI DUP1 PUSH4 0x2770C895 EQ PUSH2 0x1413 JUMPI DUP1 PUSH4 0x2A5AA13D EQ PUSH2 0x930 JUMPI DUP1 PUSH4 0x3CCFD60B EQ PUSH2 0x12F0 JUMPI DUP1 PUSH4 0x4C2412A2 EQ PUSH2 0x12D2 JUMPI DUP1 PUSH4 0x5A7013AA EQ PUSH2 0x12B4 JUMPI DUP1 PUSH4 0x608A5D95 EQ PUSH2 0x116E JUMPI DUP1 PUSH4 0x6F833811 EQ PUSH2 0x1150 JUMPI DUP1 PUSH4 0x715018A6 EQ PUSH2 0x10F7 JUMPI DUP1 PUSH4 0x719CE73E EQ PUSH2 0x10D9 JUMPI DUP1 PUSH4 0x7EE8B2F8 EQ PUSH2 0x1B6 JUMPI DUP1 PUSH4 0x884BF67C EQ PUSH2 0x10D9 JUMPI DUP1 PUSH4 0x886A6DE1 EQ PUSH2 0x10BB JUMPI DUP1 PUSH4 0x8B5B9CCC EQ PUSH2 0x100B JUMPI DUP1 PUSH4 0x8B7A2955 EQ PUSH2 0xFDA JUMPI DUP1 PUSH4 0x8D6B8B41 EQ PUSH2 0xE10 JUMPI DUP1 PUSH4 0x8DA5CB5B EQ PUSH2 0xDE7 JUMPI DUP1 PUSH4 0x995BC51E EQ PUSH2 0xDC9 JUMPI DUP1 PUSH4 0xB03B2030 EQ PUSH2 0xB9A JUMPI DUP1 PUSH4 0xB07DDF8A EQ PUSH2 0xB7C JUMPI DUP1 PUSH4 0xB1501F9C EQ PUSH2 0x98A JUMPI DUP1 PUSH4 0xB250717A EQ PUSH2 0x96C JUMPI DUP1 PUSH4 0xC2E52206 EQ PUSH2 0x94E JUMPI DUP1 PUSH4 0xD49DC1D8 EQ PUSH2 0x930 JUMPI DUP1 PUSH4 0xD4F77B1C EQ PUSH2 0x36E JUMPI DUP1 PUSH4 0xDAC6270D EQ PUSH2 0x34B JUMPI DUP1 PUSH4 0xDFBF53AE EQ PUSH2 0x322 JUMPI DUP1 PUSH4 0xE2EB41FF EQ PUSH2 0x2AE JUMPI DUP1 PUSH4 0xECED0280 EQ PUSH2 0x286 JUMPI DUP1 PUSH4 0xF2FDE38B EQ PUSH2 0x1F9 JUMPI PUSH4 0xF3F43703 EQ PUSH2 0x1B6 JUMPI PUSH1 0x0 DUP1 REVERT JUMPDEST CALLVALUE PUSH2 0x1F4 JUMPI PUSH1 0x20 CALLDATASIZE PUSH1 0x3 NOT ADD SLT PUSH2 0x1F4 JUMPI PUSH1 0x4 CALLDATALOAD PUSH1 0x1 PUSH1 0x1 PUSH1 0xA0 SHL SUB DUP2 AND SWAP1 DUP2 SWAP1 SUB PUSH2 0x1F4 JUMPI PUSH1 0x0 MSTORE PUSH1 0x14 PUSH1 0x20 MSTORE PUSH1 0x20 PUSH1 0x40 PUSH1 0x0 KECCAK256 SLOAD PUSH1 0x40 MLOAD SWAP1 DUP2 MSTORE RETURN JUMPDEST PUSH1 0x0 DUP1 REVERT JUMPDEST CALLVALUE PUSH2 0x1F4 JUMPI PUSH1 0x20 CALLDATASIZE PUSH1 0x3 NOT ADD SLT PUSH2 0x1F4 JUMPI PUSH1 0x4 CALLDATALOAD PUSH1 0x1 PUSH1 0x1 PUSH1 0xA0 SHL SUB DUP2 AND SWAP1 DUP2 SWAP1 SUB PUSH2 0x1F4 JUMPI PUSH2 0x227 PUSH2 0x1858 JUMP JUMPDEST DUP1 ISZERO PUSH2 0x270 JUMPI PUSH1 0x0 DUP1 SLOAD PUSH1 0x1 PUSH1 0x1 PUSH1 0xA0 SHL SUB NOT DUP2 AND DUP4 OR DUP3 SSTORE PUSH1 0x1 PUSH1 0x1 PUSH1 0xA0 SHL SUB AND SWAP1 PUSH32 0x8BE0079C531659141344CD1FD0A4F28419497F9722A3DAAFE3B4186F6B6457E0 SWAP1 DUP1 LOG3 STOP JUMPDEST PUSH4 0x1E4FBDF7 PUSH1 0xE0 SHL PUSH1 0x0 MSTORE PUSH1 0x0 PUSH1 0x4 MSTORE PUSH1 0x24 PUSH1 0x0 REVERT JUMPDEST CALLVALUE PUSH2 0x1F4 JUMPI PUSH1 0x0 CALLDATASIZE PUSH1 0x3 NOT ADD SLT PUSH2 0x1F4 JUMPI PUSH1 0x20 PUSH1 0xFF PUSH1 0x9 SLOAD AND PUSH2 0x2AC PUSH1 0x40 MLOAD DUP1 SWAP3 PUSH2 0x16AC JUMP JUMPDEST RETURN JUMPDEST CALLVALUE PUSH2 0x1F4 JUMPI PUSH1 0x20 CALLDATASIZE PUSH1 0x3 NOT ADD SLT PUSH2 0x1F4 JUMPI PUSH1 0x4 CALLDATALOAD PUSH1 0x1 PUSH1 0x1 PUSH1 0xA0 SHL SUB DUP2 AND SWAP1 DUP2 SWAP1 SUB PUSH2 0x1F4 JUMPI PUSH1 0x0 MSTORE PUSH1 0xE PUSH1 0x20 MSTORE PUSH1 0xA0 PUSH1 0x40 PUSH1 0x0 KECCAK256 PUSH1 0xFF DUP2 SLOAD SWAP2 PUSH1 0x2 PUSH1 0x1 DUP3 ADD SLOAD SWAP2 ADD SLOAD SWAP1 PUSH1 0x40 MLOAD SWAP4 DUP5 MSTORE PUSH1 0x20 DUP5 ADD MSTORE DUP2 DUP2 AND ISZERO ISZERO PUSH1 0x40 DUP5 ADD MSTORE DUP2 DUP2 PUSH1 0x8 SHR AND ISZERO ISZERO PUSH1 0x60 DUP5 ADD MSTORE PUSH1 0x10 SHR AND ISZERO ISZERO PUSH1 0x80 DUP3 ADD MSTORE RETURN JUMPDEST CALLVALUE PUSH2 0x1F4 JUMPI PUSH1 0x0 CALLDATASIZE PUSH1 0x3 NOT ADD SLT PUSH2 0x1F4 JUMPI PUSH1 0x12 SLOAD PUSH1 0x40 MLOAD PUSH1 0x1 PUSH1 0x1 PUSH1 0xA0 SHL SUB SWAP1 SWAP2 AND DUP2 MSTORE PUSH1 0x20 SWAP1 RETURN JUMPDEST CALLVALUE PUSH2 0x1F4 JUMPI PUSH1 0x0 CALLDATASIZE PUSH1 0x3 NOT ADD SLT PUSH2 0x1F4 JUMPI PUSH1 0x20 PUSH2 0x366 PUSH2 0x17B7 JUMP JUMPDEST PUSH1 0x40 MLOAD SWAP1 DUP2 MSTORE RETURN JUMPDEST PUSH1 0x0 CALLDATASIZE PUSH1 0x3 NOT ADD SLT PUSH2 0x1F4 JUMPI PUSH2 0x382 PUSH2 0x1836 JUMP JUMPDEST PUSH1 0xFF PUSH1 0x9 SLOAD AND PUSH1 0x6 DUP2 LT ISZERO DUP1 PUSH2 0x732 JUMPI DUP2 ISZERO DUP1 ISZERO PUSH2 0x923 JUMPI JUMPDEST ISZERO PUSH2 0x8F0 JUMPI PUSH2 0x732 JUMPI PUSH1 0x1 EQ DUP1 PUSH2 0x8D8 JUMPI JUMPDEST PUSH2 0x89E JUMPI PUSH1 0xF SLOAD PUSH1 0x3 SLOAD GT ISZERO PUSH2 0x86D JUMPI CALLER PUSH1 0x0 MSTORE PUSH1 0xE PUSH1 0x20 MSTORE PUSH1 0xFF PUSH1 0x2 PUSH1 0x40 PUSH1 0x0 KECCAK256 ADD SLOAD PUSH1 0x10 SHR AND PUSH2 0x837 JUMPI PUSH1 0x6 SLOAD CALLVALUE SUB PUSH2 0x800 JUMPI PUSH1 0x40 MLOAD PUSH1 0xA0 DUP2 ADD DUP2 DUP2 LT PUSH8 0xFFFFFFFFFFFFFFFF DUP3 GT OR PUSH2 0x7EA JUMPI PUSH1 0x40 MSTORE PUSH1 0x0 DUP2 MSTORE PUSH1 0x20 DUP2 ADD PUSH1 0x0 DUP2 MSTORE PUSH1 0x40 DUP3 ADD SWAP2 PUSH1 0x0 DUP4 MSTORE PUSH1 0x2 PUSH1 0x60 DUP3 ADD SWAP2 PUSH1 0x0 DUP4 MSTORE PUSH1 0x80 DUP2 ADD SWAP4 PUSH1 0x1 DUP6 MSTORE CALLER PUSH1 0x0 MSTORE PUSH1 0xE PUSH1 0x20 MSTORE PUSH1 0x40 PUSH1 0x0 KECCAK256 SWAP2 MLOAD DUP3 SSTORE MLOAD PUSH1 0x1 DUP3 ADD SSTORE ADD SWAP3 MLOAD ISZERO ISZERO PUSH1 0xFF DUP1 NOT DUP6 SLOAD AND SWAP2 AND OR DUP4 SSTORE MLOAD ISZERO ISZERO PUSH2 0xFF00 DUP4 SLOAD SWAP2 PUSH1 0x8 SHL AND SWAP1 PUSH2 0xFF00 NOT AND OR DUP3 SSTORE MLOAD ISZERO ISZERO PUSH3 0xFF0000 DUP3 SLOAD SWAP2 PUSH1 0x10 SHL AND SWAP1 PUSH3 0xFF0000 NOT AND OR SWAP1 SSTORE PUSH1 0xF SLOAD PUSH1 0x1 PUSH1 0x40 SHL DUP2 LT ISZERO PUSH2 0x7EA JUMPI PUSH2 0x4A1 DUP2 PUSH1 0x1 PUSH2 0x4BF SWAP4 ADD PUSH1 0xF SSTORE PUSH2 0x16B9 JUMP JUMPDEST DUP2 SLOAD PUSH1 0x1 PUSH1 0x1 PUSH1 0xA0 SHL SUB PUSH1 0x3 SWAP3 SWAP1 SWAP3 SHL SWAP2 DUP3 SHL NOT AND CALLER SWAP1 SWAP2 SHL OR SWAP1 SSTORE JUMP JUMPDEST PUSH2 0x4CB CALLVALUE PUSH1 0x13 SLOAD PUSH2 0x179D JUMP JUMPDEST PUSH1 0x13 SSTORE PUSH1 0x40 MLOAD CALLVALUE DUP2 MSTORE PUSH32 0x3330A6773675F31F62070870F40379F8C6D42E3761410011A4DFC42B18043D2F PUSH1 0x20 CALLER SWAP3 LOG2 PUSH1 0xF SLOAD PUSH1 0x2 SLOAD GT ISZERO DUP1 PUSH2 0x7E0 JUMPI JUMPDEST PUSH2 0x748 JUMPI JUMPDEST PUSH1 0xFF PUSH1 0x9 SLOAD AND PUSH1 0x6 DUP2 LT ISZERO PUSH2 0x732 JUMPI PUSH1 0x1 EQ DUP1 PUSH2 0x71A JUMPI JUMPDEST PUSH2 0x530 JUMPI JUMPDEST PUSH1 0x1 DUP1 SSTORE STOP JUMPDEST PUSH2 0x538 PUSH2 0x1836 JUMP JUMPDEST PUSH1 0x0 PUSH1 0x1 JUMPDEST ISZERO PUSH2 0x706 JUMPI JUMPDEST POP PUSH1 0x0 DUP1 PUSH2 0x556 PUSH1 0xB SLOAD PUSH1 0x8 SLOAD SWAP1 PUSH2 0x179D JUMP JUMPDEST PUSH1 0xFF PUSH1 0x9 SLOAD AND PUSH1 0x6 DUP2 LT ISZERO PUSH2 0x6F2 JUMPI PUSH1 0x1 EQ SWAP1 DUP2 PUSH2 0x6E7 JUMPI JUMPDEST POP PUSH2 0x685 JUMPI PUSH1 0xFF PUSH1 0x9 SLOAD AND PUSH1 0x6 DUP2 LT ISZERO PUSH2 0x603 JUMPI PUSH1 0x2 EQ DUP1 PUSH2 0x679 JUMPI JUMPDEST PUSH2 0x617 JUMPI PUSH1 0xFF PUSH1 0x9 SLOAD AND PUSH1 0x6 DUP2 LT ISZERO PUSH2 0x603 JUMPI PUSH1 0x3 EQ DUP1 PUSH2 0x5F7 JUMPI JUMPDEST ISZERO PUSH2 0x53D JUMPI SWAP1 POP PUSH2 0x5C1 PUSH1 0x4 PUSH1 0xFF NOT PUSH1 0x9 SLOAD AND OR PUSH1 0x9 SSTORE JUMP JUMPDEST PUSH1 0x0 DUP1 MLOAD PUSH1 0x20 PUSH2 0x1CA8 DUP4 CODECOPY DUP2 MLOAD SWAP2 MSTORE PUSH1 0x60 PUSH1 0x40 MLOAD PUSH1 0x3 DUP2 MSTORE PUSH1 0x4 PUSH1 0x20 DUP3 ADD MSTORE TIMESTAMP PUSH1 0x40 DUP3 ADD MSTORE LOG1 PUSH2 0x5EF PUSH2 0x18C9 JUMP JUMPDEST PUSH1 0x1 SWAP1 PUSH2 0x53D JUMP JUMPDEST POP PUSH1 0xD SLOAD TIMESTAMP LT ISZERO PUSH2 0x5A8 JUMP JUMPDEST PUSH4 0x4E487B71 PUSH1 0xE0 SHL DUP3 MSTORE PUSH1 0x21 PUSH1 0x4 MSTORE PUSH1 0x24 DUP3 REVERT JUMPDEST SWAP1 POP PUSH2 0x62B PUSH1 0x3 PUSH1 0xFF NOT PUSH1 0x9 SLOAD AND OR PUSH1 0x9 SSTORE JUMP JUMPDEST TIMESTAMP PUSH2 0x63A PUSH1 0xFF PUSH1 0x9 SLOAD AND PUSH2 0x16EA JUMP JUMPDEST SSTORE PUSH1 0x0 DUP1 MLOAD PUSH1 0x20 PUSH2 0x1CA8 DUP4 CODECOPY DUP2 MLOAD SWAP2 MSTORE PUSH1 0x60 PUSH2 0x658 PUSH1 0x5 SLOAD TIMESTAMP PUSH2 0x179D JUMP JUMPDEST DUP1 PUSH1 0xD SSTORE PUSH1 0x40 MLOAD SWAP1 PUSH1 0x2 DUP3 MSTORE PUSH1 0x3 PUSH1 0x20 DUP4 ADD MSTORE PUSH1 0x40 DUP3 ADD MSTORE LOG1 PUSH1 0x1 SWAP1 PUSH2 0x53D JUMP JUMPDEST POP PUSH1 0xC SLOAD TIMESTAMP LT ISZERO PUSH2 0x58C JUMP JUMPDEST SWAP1 POP PUSH2 0x699 PUSH1 0x2 PUSH1 0xFF NOT PUSH1 0x9 SLOAD AND OR PUSH1 0x9 SSTORE JUMP JUMPDEST TIMESTAMP PUSH2 0x6A8 PUSH1 0xFF PUSH1 0x9 SLOAD AND PUSH2 0x16EA JUMP JUMPDEST SSTORE PUSH1 0x0 DUP1 MLOAD PUSH1 0x20 PUSH2 0x1CA8 DUP4 CODECOPY DUP2 MLOAD SWAP2 MSTORE PUSH1 0x60 PUSH2 0x6C6 PUSH1 0x4 SLOAD TIMESTAMP PUSH2 0x179D JUMP JUMPDEST DUP1 PUSH1 0xC SSTORE PUSH1 0x40 MLOAD SWAP1 PUSH1 0x1 DUP3 MSTORE PUSH1 0x2 PUSH1 0x20 DUP4 ADD MSTORE PUSH1 0x40 DUP3 ADD MSTORE LOG1 PUSH1 0x1 SWAP1 PUSH2 0x53D JUMP JUMPDEST SWAP1 POP TIMESTAMP LT ISZERO DUP4 PUSH2 0x56F JUMP JUMPDEST PUSH4 0x4E487B71 PUSH1 0xE0 SHL DUP4 MSTORE PUSH1 0x21 PUSH1 0x4 MSTORE PUSH1 0x24 DUP4 REVERT JUMPDEST ISZERO PUSH2 0x711 JUMPI DUP1 PUSH2 0x543 JUMP JUMPDEST PUSH1 0x1 DUP1 SSTORE PUSH2 0x52A JUMP JUMPDEST POP PUSH2 0x72A PUSH1 0xB SLOAD PUSH1 0x8 SLOAD SWAP1 PUSH2 0x179D JUMP JUMPDEST TIMESTAMP LT ISZERO PUSH2 0x525 JUMP JUMPDEST PUSH4 0x4E487B71 PUSH1 0xE0 SHL PUSH1 0x0 MSTORE PUSH1 0x21 PUSH1 0x4 MSTORE PUSH1 0x24 PUSH1 0x0 REVERT JUMPDEST TIMESTAMP PUSH1 0xB SSTORE PUSH1 0x1 PUSH1 0xFF NOT PUSH1 0x9 SLOAD AND OR PUSH1 0x9 SSTORE TIMESTAMP PUSH2 0x768 PUSH1 0xFF PUSH1 0x9 SLOAD AND PUSH2 0x16EA JUMP JUMPDEST SSTORE PUSH32 0xF2546DE66F180061EE75953FE1999FC0475DAEF64D87E75AD834022B57031D2F PUSH1 0xC0 PUSH1 0x8 SLOAD PUSH2 0x7AF PUSH2 0x7A6 PUSH2 0x79F DUP4 TIMESTAMP PUSH2 0x179D JUMP JUMPDEST SWAP3 TIMESTAMP PUSH2 0x179D JUMP JUMPDEST PUSH1 0x4 SLOAD SWAP1 PUSH2 0x179D JUMP JUMPDEST PUSH1 0x6 SLOAD PUSH1 0x2 SLOAD SWAP1 PUSH1 0x3 SLOAD SWAP3 PUSH1 0x40 MLOAD SWAP5 TIMESTAMP DUP7 MSTORE PUSH1 0x20 DUP7 ADD MSTORE PUSH1 0x40 DUP6 ADD MSTORE PUSH1 0x60 DUP5 ADD MSTORE PUSH1 0x80 DUP4 ADD MSTORE PUSH1 0xA0 DUP3 ADD MSTORE LOG1 PUSH2 0x50D JUMP JUMPDEST POP PUSH1 0xB SLOAD ISZERO PUSH2 0x508 JUMP JUMPDEST PUSH4 0x4E487B71 PUSH1 0xE0 SHL PUSH1 0x0 MSTORE PUSH1 0x41 PUSH1 0x4 MSTORE PUSH1 0x24 PUSH1 0x0 REVERT JUMPDEST PUSH1 0x40 MLOAD PUSH3 0x461BCD PUSH1 0xE5 SHL DUP2 MSTORE PUSH1 0x20 PUSH1 0x4 DUP3 ADD MSTORE PUSH1 0xF PUSH1 0x24 DUP3 ADD MSTORE PUSH15 0x57726F6E6720656E74727920666565 PUSH1 0x88 SHL PUSH1 0x44 DUP3 ADD MSTORE PUSH1 0x64 SWAP1 REVERT JUMPDEST PUSH1 0x40 MLOAD PUSH3 0x461BCD PUSH1 0xE5 SHL DUP2 MSTORE PUSH1 0x20 PUSH1 0x4 DUP3 ADD MSTORE PUSH1 0xE PUSH1 0x24 DUP3 ADD MSTORE PUSH14 0x105B1C9958591E481A9BDA5B9959 PUSH1 0x92 SHL PUSH1 0x44 DUP3 ADD MSTORE PUSH1 0x64 SWAP1 REVERT JUMPDEST PUSH1 0x40 MLOAD PUSH3 0x461BCD PUSH1 0xE5 SHL DUP2 MSTORE PUSH1 0x20 PUSH1 0x4 DUP3 ADD MSTORE PUSH1 0x9 PUSH1 0x24 DUP3 ADD MSTORE PUSH9 0x11D85B5948199D5B1B PUSH1 0xBA SHL PUSH1 0x44 DUP3 ADD MSTORE PUSH1 0x64 SWAP1 REVERT JUMPDEST PUSH1 0x40 MLOAD PUSH3 0x461BCD PUSH1 0xE5 SHL DUP2 MSTORE PUSH1 0x20 PUSH1 0x4 DUP3 ADD MSTORE PUSH1 0x12 PUSH1 0x24 DUP3 ADD MSTORE PUSH18 0x129BDA5B881DDA5B991BDDC818DB1BDCD959 PUSH1 0x72 SHL PUSH1 0x44 DUP3 ADD MSTORE PUSH1 0x64 SWAP1 REVERT JUMPDEST POP PUSH2 0x8E8 PUSH1 0xB SLOAD PUSH1 0x8 SLOAD SWAP1 PUSH2 0x179D JUMP JUMPDEST TIMESTAMP LT ISZERO PUSH2 0x3AD JUMP JUMPDEST PUSH1 0x40 MLOAD PUSH3 0x461BCD PUSH1 0xE5 SHL DUP2 MSTORE PUSH1 0x20 PUSH1 0x4 DUP3 ADD MSTORE PUSH1 0xB PUSH1 0x24 DUP3 ADD MSTORE PUSH11 0x21B0B73737BA103537B4B7 PUSH1 0xA9 SHL PUSH1 0x44 DUP3 ADD MSTORE PUSH1 0x64 SWAP1 REVERT JUMPDEST POP POP PUSH1 0x0 PUSH1 0x1 DUP3 EQ PUSH2 0x39B JUMP JUMPDEST CALLVALUE PUSH2 0x1F4 JUMPI PUSH1 0x0 CALLDATASIZE PUSH1 0x3 NOT ADD SLT PUSH2 0x1F4 JUMPI PUSH1 0x20 PUSH1 0xD SLOAD PUSH1 0x40 MLOAD SWAP1 DUP2 MSTORE RETURN JUMPDEST CALLVALUE PUSH2 0x1F4 JUMPI PUSH1 0x0 CALLDATASIZE PUSH1 0x3 NOT ADD SLT PUSH2 0x1F4 JUMPI PUSH1 0x20 PUSH1 0xF SLOAD PUSH1 0x40 MLOAD SWAP1 DUP2 MSTORE RETURN JUMPDEST CALLVALUE PUSH2 0x1F4 JUMPI PUSH1 0x0 CALLDATASIZE PUSH1 0x3 NOT ADD SLT PUSH2 0x1F4 JUMPI PUSH1 0x20 PUSH1 0x10 SLOAD PUSH1 0x40 MLOAD SWAP1 DUP2 MSTORE RETURN JUMPDEST CALLVALUE PUSH2 0x1F4 JUMPI PUSH1 0x0 CALLDATASIZE PUSH1 0x3 NOT ADD SLT PUSH2 0x1F4 JUMPI PUSH2 0x9A3 PUSH2 0x1836 JUMP JUMPDEST PUSH1 0xFF PUSH1 0x9 SLOAD AND PUSH1 0x6 DUP2 LT ISZERO PUSH2 0x732 JUMPI PUSH2 0xB43 JUMPI CALLER PUSH1 0x0 MSTORE PUSH1 0xE PUSH1 0x20 MSTORE PUSH2 0x9D6 PUSH1 0xFF PUSH1 0x2 PUSH1 0x40 PUSH1 0x0 KECCAK256 ADD SLOAD PUSH1 0x10 SHR AND PUSH2 0x1764 JUMP JUMPDEST CALLER PUSH1 0x0 MSTORE PUSH1 0xE PUSH1 0x20 MSTORE PUSH1 0x2 PUSH1 0x40 PUSH1 0x0 KECCAK256 ADD PUSH3 0xFF0000 NOT DUP2 SLOAD AND SWAP1 SSTORE PUSH1 0x6 SLOAD PUSH2 0xA00 DUP2 PUSH1 0x13 SLOAD PUSH2 0x17AA JUMP JUMPDEST PUSH1 0x13 SSTORE CALLER PUSH1 0x0 MSTORE PUSH1 0x14 PUSH1 0x20 MSTORE PUSH2 0xA1C PUSH1 0x40 PUSH1 0x0 KECCAK256 SWAP2 DUP3 SLOAD PUSH2 0x179D JUMP JUMPDEST SWAP1 SSTORE PUSH1 0xF SLOAD PUSH1 0x0 DUP1 JUMPDEST DUP3 DUP2 LT PUSH2 0xB12 JUMPI JUMPDEST POP PUSH1 0x0 NOT DUP3 ADD SWAP2 DUP3 GT PUSH2 0xAFC JUMPI PUSH2 0xA61 PUSH2 0xA49 PUSH2 0xA85 SWAP4 PUSH2 0x16B9 JUMP JUMPDEST SWAP1 SLOAD PUSH1 0x3 SWAP2 SWAP1 SWAP2 SHL SHR PUSH1 0x1 PUSH1 0x1 PUSH1 0xA0 SHL SUB AND SWAP2 PUSH2 0x16B9 JUMP JUMPDEST DUP2 SLOAD PUSH1 0x1 PUSH1 0x1 PUSH1 0xA0 SHL SUB SWAP4 DUP5 AND PUSH1 0x3 SWAP3 SWAP1 SWAP3 SHL SWAP2 DUP3 SHL SWAP4 SWAP1 SWAP2 SHL NOT AND SWAP2 SWAP1 SWAP2 OR SWAP1 SSTORE JUMP JUMPDEST PUSH1 0xF SLOAD DUP1 ISZERO PUSH2 0xAE6 JUMPI PUSH1 0x0 NOT ADD PUSH2 0xA9B DUP2 PUSH2 0x16B9 JUMP JUMPDEST DUP2 SLOAD SWAP1 PUSH1 0x1 DUP1 PUSH1 0xA0 SHL SUB SWAP1 PUSH1 0x3 SHL SHL NOT AND SWAP1 SSTORE PUSH1 0xF SSTORE PUSH1 0x6 SLOAD PUSH1 0x40 MLOAD SWAP1 DUP2 MSTORE PUSH32 0x7FCF532C15F0A6DB0BD6D0E038BEA71D30D808C7D98CB3BF7268A95BF5081B65 PUSH1 0x20 CALLER SWAP3 LOG2 PUSH1 0x1 DUP1 SSTORE STOP JUMPDEST PUSH4 0x4E487B71 PUSH1 0xE0 SHL PUSH1 0x0 MSTORE PUSH1 0x31 PUSH1 0x4 MSTORE PUSH1 0x24 PUSH1 0x0 REVERT JUMPDEST PUSH4 0x4E487B71 PUSH1 0xE0 SHL PUSH1 0x0 MSTORE PUSH1 0x11 PUSH1 0x4 MSTORE PUSH1 0x24 PUSH1 0x0 REVERT JUMPDEST PUSH2 0xB1B DUP2 PUSH2 0x16B9 JUMP JUMPDEST SWAP1 SLOAD PUSH1 0x3 SWAP2 SWAP1 SWAP2 SHL SHR PUSH1 0x1 PUSH1 0x1 PUSH1 0xA0 SHL SUB AND CALLER EQ PUSH2 0xB3B JUMPI PUSH1 0x1 ADD PUSH2 0xA25 JUMP JUMPDEST SWAP1 POP DUP3 PUSH2 0xA2D JUMP JUMPDEST PUSH1 0x40 MLOAD PUSH3 0x461BCD PUSH1 0xE5 SHL DUP2 MSTORE PUSH1 0x20 PUSH1 0x4 DUP3 ADD MSTORE PUSH1 0x11 PUSH1 0x24 DUP3 ADD MSTORE PUSH17 0x546F6F206C61746520746F206C65617665 PUSH1 0x78 SHL PUSH1 0x44 DUP3 ADD MSTORE PUSH1 0x64 SWAP1 REVERT JUMPDEST CALLVALUE PUSH2 0x1F4 JUMPI PUSH1 0x0 CALLDATASIZE PUSH1 0x3 NOT ADD SLT PUSH2 0x1F4 JUMPI PUSH1 0x20 PUSH1 0xB SLOAD PUSH1 0x40 MLOAD SWAP1 DUP2 MSTORE RETURN JUMPDEST CALLVALUE PUSH2 0x1F4 JUMPI PUSH1 0x0 CALLDATASIZE PUSH1 0x3 NOT ADD SLT PUSH2 0x1F4 JUMPI PUSH2 0xBB3 PUSH2 0x1836 JUMP JUMPDEST PUSH1 0xFF PUSH1 0x9 SLOAD AND PUSH1 0x6 DUP2 LT ISZERO PUSH2 0x732 JUMPI PUSH1 0x3 PUSH2 0xBCE SWAP2 EQ PUSH2 0x1703 JUMP JUMPDEST PUSH1 0xD SLOAD TIMESTAMP LT PUSH2 0xD90 JUMPI PUSH2 0xBDF PUSH2 0x1836 JUMP JUMPDEST PUSH1 0x0 PUSH1 0x1 JUMPDEST ISZERO PUSH2 0xD85 JUMPI JUMPDEST POP PUSH1 0x0 DUP1 PUSH2 0xBFD PUSH1 0xB SLOAD PUSH1 0x8 SLOAD SWAP1 PUSH2 0x179D JUMP JUMPDEST PUSH1 0xFF PUSH1 0x9 SLOAD AND PUSH1 0x6 DUP2 LT ISZERO PUSH2 0x6F2 JUMPI PUSH1 0x1 EQ SWAP1 DUP2 PUSH2 0xD7A JUMPI JUMPDEST POP PUSH2 0xD18 JUMPI PUSH1 0xFF PUSH1 0x9 SLOAD AND PUSH1 0x6 DUP2 LT ISZERO PUSH2 0x603 JUMPI PUSH1 0x2 EQ DUP1 PUSH2 0xD0C JUMPI JUMPDEST PUSH2 0xCAA JUMPI PUSH1 0xFF PUSH1 0x9 SLOAD AND PUSH1 0x6 DUP2 LT ISZERO PUSH2 0x603 JUMPI PUSH1 0x3 EQ DUP1 PUSH2 0xC9E JUMPI JUMPDEST ISZERO PUSH2 0xBE4 JUMPI SWAP1 POP PUSH2 0xC68 PUSH1 0x4 PUSH1 0xFF NOT PUSH1 0x9 SLOAD AND OR PUSH1 0x9 SSTORE JUMP JUMPDEST PUSH1 0x0 DUP1 MLOAD PUSH1 0x20 PUSH2 0x1CA8 DUP4 CODECOPY DUP2 MLOAD SWAP2 MSTORE PUSH1 0x60 PUSH1 0x40 MLOAD PUSH1 0x3 DUP2 MSTORE PUSH1 0x4 PUSH1 0x20 DUP3 ADD MSTORE TIMESTAMP PUSH1 0x40 DUP3 ADD MSTORE LOG1 PUSH2 0xC96 PUSH2 0x18C9 JUMP JUMPDEST PUSH1 0x1 SWAP1 PUSH2 0xBE4 JUMP JUMPDEST POP PUSH1 0xD SLOAD TIMESTAMP LT ISZERO PUSH2 0xC4F JUMP JUMPDEST SWAP1 POP PUSH2 0xCBE PUSH1 0x3 PUSH1 0xFF NOT PUSH1 0x9 SLOAD AND OR PUSH1 0x9 SSTORE JUMP JUMPDEST TIMESTAMP PUSH2 0xCCD PUSH1 0xFF PUSH1 0x9 SLOAD AND PUSH2 0x16EA JUMP JUMPDEST SSTORE PUSH1 0x0 DUP1 MLOAD PUSH1 0x20 PUSH2 0x1CA8 DUP4 CODECOPY DUP2 MLOAD SWAP2 MSTORE PUSH1 0x60 PUSH2 0xCEB PUSH1 0x5 SLOAD TIMESTAMP PUSH2 0x179D JUMP JUMPDEST DUP1 PUSH1 0xD SSTORE PUSH1 0x40 MLOAD SWAP1 PUSH1 0x2 DUP3 MSTORE PUSH1 0x3 PUSH1 0x20 DUP4 ADD MSTORE PUSH1 0x40 DUP3 ADD MSTORE LOG1 PUSH1 0x1 SWAP1 PUSH2 0xBE4 JUMP JUMPDEST POP PUSH1 0xC SLOAD TIMESTAMP LT ISZERO PUSH2 0xC33 JUMP JUMPDEST SWAP1 POP PUSH2 0xD2C PUSH1 0x2 PUSH1 0xFF NOT PUSH1 0x9 SLOAD AND OR PUSH1 0x9 SSTORE JUMP JUMPDEST TIMESTAMP PUSH2 0xD3B PUSH1 0xFF PUSH1 0x9 SLOAD AND PUSH2 0x16EA JUMP JUMPDEST SSTORE PUSH1 0x0 DUP1 MLOAD PUSH1 0x20 PUSH2 0x1CA8 DUP4 CODECOPY DUP2 MLOAD SWAP2 MSTORE PUSH1 0x60 PUSH2 0xD59 PUSH1 0x4 SLOAD TIMESTAMP PUSH2 0x179D JUMP JUMPDEST DUP1 PUSH1 0xC SSTORE PUSH1 0x40 MLOAD SWAP1 PUSH1 0x1 DUP3 MSTORE PUSH1 0x2 PUSH1 0x20 DUP4 ADD MSTORE PUSH1 0x40 DUP3 ADD MSTORE LOG1 PUSH1 0x1 SWAP1 PUSH2 0xBE4 JUMP JUMPDEST SWAP1 POP TIMESTAMP LT ISZERO DUP4 PUSH2 0xC16 JUMP JUMPDEST ISZERO PUSH2 0x52A JUMPI DUP1 PUSH2 0xBEA JUMP JUMPDEST PUSH1 0x40 MLOAD PUSH3 0x461BCD PUSH1 0xE5 SHL DUP2 MSTORE PUSH1 0x20 PUSH1 0x4 DUP3 ADD MSTORE PUSH1 0x11 PUSH1 0x24 DUP3 ADD MSTORE PUSH17 0x2932BB32B0B61039BA34B6361037B832B7 PUSH1 0x79 SHL PUSH1 0x44 DUP3 ADD MSTORE PUSH1 0x64 SWAP1 REVERT JUMPDEST CALLVALUE PUSH2 0x1F4 JUMPI PUSH1 0x0 CALLDATASIZE PUSH1 0x3 NOT ADD SLT PUSH2 0x1F4 JUMPI PUSH1 0x20 PUSH1 0x7 SLOAD PUSH1 0x40 MLOAD SWAP1 DUP2 MSTORE RETURN JUMPDEST CALLVALUE PUSH2 0x1F4 JUMPI PUSH1 0x0 CALLDATASIZE PUSH1 0x3 NOT ADD SLT PUSH2 0x1F4 JUMPI PUSH1 0x0 SLOAD PUSH1 0x40 MLOAD PUSH1 0x1 PUSH1 0x1 PUSH1 0xA0 SHL SUB SWAP1 SWAP2 AND DUP2 MSTORE PUSH1 0x20 SWAP1 RETURN JUMPDEST CALLVALUE PUSH2 0x1F4 JUMPI PUSH1 0x0 CALLDATASIZE PUSH1 0x3 NOT ADD SLT PUSH2 0x1F4 JUMPI PUSH2 0xE29 PUSH2 0x1836 JUMP JUMPDEST PUSH1 0x0 PUSH1 0x1 JUMPDEST ISZERO PUSH2 0xFCF JUMPI JUMPDEST POP PUSH1 0x0 DUP1 PUSH2 0xE47 PUSH1 0xB SLOAD PUSH1 0x8 SLOAD SWAP1 PUSH2 0x179D JUMP JUMPDEST PUSH1 0xFF PUSH1 0x9 SLOAD AND PUSH1 0x6 DUP2 LT ISZERO PUSH2 0x6F2 JUMPI PUSH1 0x1 EQ SWAP1 DUP2 PUSH2 0xFC4 JUMPI JUMPDEST POP PUSH2 0xF62 JUMPI PUSH1 0xFF PUSH1 0x9 SLOAD AND PUSH1 0x6 DUP2 LT ISZERO PUSH2 0x603 JUMPI PUSH1 0x2 EQ DUP1 PUSH2 0xF56 JUMPI JUMPDEST PUSH2 0xEF4 JUMPI PUSH1 0xFF PUSH1 0x9 SLOAD AND PUSH1 0x6 DUP2 LT ISZERO PUSH2 0x603 JUMPI PUSH1 0x3 EQ DUP1 PUSH2 0xEE8 JUMPI JUMPDEST ISZERO PUSH2 0xE2E JUMPI SWAP1 POP PUSH2 0xEB2 PUSH1 0x4 PUSH1 0xFF NOT PUSH1 0x9 SLOAD AND OR PUSH1 0x9 SSTORE JUMP JUMPDEST PUSH1 0x0 DUP1 MLOAD PUSH1 0x20 PUSH2 0x1CA8 DUP4 CODECOPY DUP2 MLOAD SWAP2 MSTORE PUSH1 0x60 PUSH1 0x40 MLOAD PUSH1 0x3 DUP2 MSTORE PUSH1 0x4 PUSH1 0x20 DUP3 ADD MSTORE TIMESTAMP PUSH1 0x40 DUP3 ADD MSTORE LOG1 PUSH2 0xEE0 PUSH2 0x18C9 JUMP JUMPDEST PUSH1 0x1 SWAP1 PUSH2 0xE2E JUMP JUMPDEST POP PUSH1 0xD SLOAD TIMESTAMP LT ISZERO PUSH2 0xE99 JUMP JUMPDEST SWAP1 POP PUSH2 0xF08 PUSH1 0x3 PUSH1 0xFF NOT PUSH1 0x9 SLOAD AND OR PUSH1 0x9 SSTORE JUMP JUMPDEST TIMESTAMP PUSH2 0xF17 PUSH1 0xFF PUSH1 0x9 SLOAD AND PUSH2 0x16EA JUMP JUMPDEST SSTORE PUSH1 0x0 DUP1 MLOAD PUSH1 0x20 PUSH2 0x1CA8 DUP4 CODECOPY DUP2 MLOAD SWAP2 MSTORE PUSH1 0x60 PUSH2 0xF35 PUSH1 0x5 SLOAD TIMESTAMP PUSH2 0x179D JUMP JUMPDEST DUP1 PUSH1 0xD SSTORE PUSH1 0x40 MLOAD SWAP1 PUSH1 0x2 DUP3 MSTORE PUSH1 0x3 PUSH1 0x20 DUP4 ADD MSTORE PUSH1 0x40 DUP3 ADD MSTORE LOG1 PUSH1 0x1 SWAP1 PUSH2 0xE2E JUMP JUMPDEST POP PUSH1 0xC SLOAD TIMESTAMP LT ISZERO PUSH2 0xE7D JUMP JUMPDEST SWAP1 POP PUSH2 0xF76 PUSH1 0x2 PUSH1 0xFF NOT PUSH1 0x9 SLOAD AND OR PUSH1 0x9 SSTORE JUMP JUMPDEST TIMESTAMP PUSH2 0xF85 PUSH1 0xFF PUSH1 0x9 SLOAD AND PUSH2 0x16EA JUMP JUMPDEST SSTORE PUSH1 0x0 DUP1 MLOAD PUSH1 0x20 PUSH2 0x1CA8 DUP4 CODECOPY DUP2 MLOAD SWAP2 MSTORE PUSH1 0x60 PUSH2 0xFA3 PUSH1 0x4 SLOAD TIMESTAMP PUSH2 0x179D JUMP JUMPDEST DUP1 PUSH1 0xC SSTORE PUSH1 0x40 MLOAD SWAP1 PUSH1 0x1 DUP3 MSTORE PUSH1 0x2 PUSH1 0x20 DUP4 ADD MSTORE PUSH1 0x40 DUP3 ADD MSTORE LOG1 PUSH1 0x1 SWAP1 PUSH2 0xE2E JUMP JUMPDEST SWAP1 POP TIMESTAMP LT ISZERO DUP4 PUSH2 0xE60 JUMP JUMPDEST ISZERO PUSH2 0x52A JUMPI DUP1 PUSH2 0xE34 JUMP JUMPDEST CALLVALUE PUSH2 0x1F4 JUMPI PUSH1 0x20 CALLDATASIZE PUSH1 0x3 NOT ADD SLT PUSH2 0x1F4 JUMPI PUSH1 0x4 CALLDATALOAD PUSH1 0x6 DUP2 LT ISZERO PUSH2 0x1F4 JUMPI PUSH2 0x1002 PUSH1 0x20 SWAP2 PUSH2 0x16EA JUMP JUMPDEST SLOAD PUSH1 0x40 MLOAD SWAP1 DUP2 MSTORE RETURN JUMPDEST CALLVALUE PUSH2 0x1F4 JUMPI PUSH1 0x0 CALLDATASIZE PUSH1 0x3 NOT ADD SLT PUSH2 0x1F4 JUMPI PUSH1 0x40 MLOAD DUP1 PUSH1 0x20 PUSH1 0xF SLOAD SWAP3 DUP4 DUP2 MSTORE ADD DUP1 SWAP3 PUSH1 0xF PUSH1 0x0 MSTORE PUSH1 0x20 PUSH1 0x0 KECCAK256 SWAP1 PUSH1 0x0 JUMPDEST DUP2 DUP2 LT PUSH2 0x109C JUMPI POP POP POP DUP2 PUSH2 0x1050 SWAP2 SUB DUP3 PUSH2 0x1742 JUMP JUMPDEST PUSH1 0x40 MLOAD SWAP2 DUP3 SWAP2 PUSH1 0x20 DUP4 ADD SWAP1 PUSH1 0x20 DUP5 MSTORE MLOAD DUP1 SWAP2 MSTORE PUSH1 0x40 DUP4 ADD SWAP2 SWAP1 PUSH1 0x0 JUMPDEST DUP2 DUP2 LT PUSH2 0x107A JUMPI POP POP POP SUB SWAP1 RETURN JUMPDEST DUP3 MLOAD PUSH1 0x1 PUSH1 0x1 PUSH1 0xA0 SHL SUB AND DUP5 MSTORE DUP6 SWAP5 POP PUSH1 0x20 SWAP4 DUP5 ADD SWAP4 SWAP1 SWAP3 ADD SWAP2 PUSH1 0x1 ADD PUSH2 0x106C JUMP JUMPDEST DUP3 SLOAD PUSH1 0x1 PUSH1 0x1 PUSH1 0xA0 SHL SUB AND DUP5 MSTORE PUSH1 0x20 SWAP1 SWAP4 ADD SWAP3 PUSH1 0x1 SWAP3 DUP4 ADD SWAP3 ADD PUSH2 0x103A JUMP JUMPDEST CALLVALUE PUSH2 0x1F4 JUMPI PUSH1 0x0 CALLDATASIZE PUSH1 0x3 NOT ADD SLT PUSH2 0x1F4 JUMPI PUSH1 0x20 PUSH1 0x5 SLOAD PUSH1 0x40 MLOAD SWAP1 DUP2 MSTORE RETURN JUMPDEST CALLVALUE PUSH2 0x1F4 JUMPI PUSH1 0x0 CALLDATASIZE PUSH1 0x3 NOT ADD SLT PUSH2 0x1F4 JUMPI PUSH1 0x20 PUSH1 0x13 SLOAD PUSH1 0x40 MLOAD SWAP1 DUP2 MSTORE RETURN JUMPDEST CALLVALUE PUSH2 0x1F4 JUMPI PUSH1 0x0 CALLDATASIZE PUSH1 0x3 NOT ADD SLT PUSH2 0x1F4 JUMPI PUSH2 0x1110 PUSH2 0x1858 JUMP JUMPDEST PUSH1 0x0 DUP1 SLOAD PUSH1 0x1 PUSH1 0x1 PUSH1 0xA0 SHL SUB NOT DUP2 AND DUP3 SSTORE PUSH1 0x1 PUSH1 0x1 PUSH1 0xA0 SHL SUB AND PUSH32 0x8BE0079C531659141344CD1FD0A4F28419497F9722A3DAAFE3B4186F6B6457E0 DUP3 DUP1 LOG3 STOP JUMPDEST CALLVALUE PUSH2 0x1F4 JUMPI PUSH1 0x0 CALLDATASIZE PUSH1 0x3 NOT ADD SLT PUSH2 0x1F4 JUMPI PUSH1 0x20 PUSH1 0x4 SLOAD PUSH1 0x40 MLOAD SWAP1 DUP2 MSTORE RETURN JUMPDEST CALLVALUE PUSH2 0x1F4 JUMPI PUSH1 0x20 CALLDATASIZE PUSH1 0x3 NOT ADD SLT PUSH2 0x1F4 JUMPI PUSH2 0x1187 PUSH2 0x1836 JUMP JUMPDEST PUSH1 0xFF PUSH1 0x9 SLOAD AND PUSH1 0x6 DUP2 LT ISZERO PUSH2 0x732 JUMPI PUSH1 0x2 SUB PUSH2 0x127C JUMPI PUSH1 0xC SLOAD TIMESTAMP LT ISZERO PUSH2 0x1247 JUMPI CALLER PUSH1 0x0 MSTORE PUSH1 0xE PUSH1 0x20 MSTORE PUSH1 0x40 PUSH1 0x0 KECCAK256 PUSH1 0x2 DUP2 ADD SWAP1 DUP2 SLOAD PUSH2 0x11CB PUSH1 0xFF DUP3 PUSH1 0x10 SHR AND PUSH2 0x1764 JUMP JUMPDEST PUSH1 0xFF DUP2 AND PUSH2 0x120E JUMPI PUSH1 0x4 CALLDATALOAD SWAP1 SWAP2 SSTORE PUSH1 0xFF NOT AND PUSH1 0x1 OR SWAP1 SSTORE CALLER PUSH32 0x2245D2014B9BC41D5CCC6707EDCBA84A49B93B49441335F266A3E83B4E6330FD PUSH1 0x0 DUP1 LOG2 PUSH1 0x1 DUP1 SSTORE STOP JUMPDEST PUSH1 0x40 MLOAD PUSH3 0x461BCD PUSH1 0xE5 SHL DUP2 MSTORE PUSH1 0x20 PUSH1 0x4 DUP3 ADD MSTORE PUSH1 0x11 PUSH1 0x24 DUP3 ADD MSTORE PUSH17 0x105B1C9958591E4818DBDB5B5A5D1D1959 PUSH1 0x7A SHL PUSH1 0x44 DUP3 ADD MSTORE PUSH1 0x64 SWAP1 REVERT JUMPDEST PUSH1 0x40 MLOAD PUSH3 0x461BCD PUSH1 0xE5 SHL DUP2 MSTORE PUSH1 0x20 PUSH1 0x4 DUP3 ADD MSTORE PUSH1 0xD PUSH1 0x24 DUP3 ADD MSTORE PUSH13 0x10DBDB5B5A5D0818DB1BDCD959 PUSH1 0x9A SHL PUSH1 0x44 DUP3 ADD MSTORE PUSH1 0x64 SWAP1 REVERT JUMPDEST PUSH1 0x40 MLOAD PUSH3 0x461BCD PUSH1 0xE5 SHL DUP2 MSTORE PUSH1 0x20 PUSH1 0x4 DUP3 ADD MSTORE PUSH1 0x10 PUSH1 0x24 DUP3 ADD MSTORE PUSH16 0x4E6F7420636F6D6D6974207068617365 PUSH1 0x80 SHL PUSH1 0x44 DUP3 ADD MSTORE PUSH1 0x64 SWAP1 REVERT JUMPDEST CALLVALUE PUSH2 0x1F4 JUMPI PUSH1 0x0 CALLDATASIZE PUSH1 0x3 NOT ADD SLT PUSH2 0x1F4 JUMPI PUSH1 0x20 PUSH1 0xC SLOAD PUSH1 0x40 MLOAD SWAP1 DUP2 MSTORE RETURN JUMPDEST CALLVALUE PUSH2 0x1F4 JUMPI PUSH1 0x0 CALLDATASIZE PUSH1 0x3 NOT ADD SLT PUSH2 0x1F4 JUMPI PUSH1 0x20 PUSH1 0x3 SLOAD PUSH1 0x40 MLOAD SWAP1 DUP2 MSTORE RETURN JUMPDEST CALLVALUE PUSH2 0x1F4 JUMPI PUSH1 0x0 CALLDATASIZE PUSH1 0x3 NOT ADD SLT PUSH2 0x1F4 JUMPI PUSH2 0x1309 PUSH2 0x1836 JUMP JUMPDEST CALLER PUSH1 0x0 MSTORE PUSH1 0x14 PUSH1 0x20 MSTORE PUSH1 0x40 PUSH1 0x0 KECCAK256 SLOAD DUP1 ISZERO PUSH2 0x13E3 JUMPI CALLER PUSH1 0x0 MSTORE PUSH1 0x14 PUSH1 0x20 MSTORE PUSH1 0x0 PUSH1 0x40 DUP2 KECCAK256 SSTORE PUSH1 0x0 DUP1 DUP1 DUP1 DUP5 CALLER GAS CALL RETURNDATASIZE ISZERO PUSH2 0x13DE JUMPI RETURNDATASIZE PUSH8 0xFFFFFFFFFFFFFFFF DUP2 GT PUSH2 0x7EA JUMPI PUSH1 0x40 MLOAD SWAP1 PUSH2 0x1365 PUSH1 0x1F DUP3 ADD PUSH1 0x1F NOT AND PUSH1 0x20 ADD DUP4 PUSH2 0x1742 JUMP JUMPDEST DUP2 MSTORE PUSH1 0x0 PUSH1 0x20 RETURNDATASIZE SWAP3 ADD RETURNDATACOPY JUMPDEST ISZERO PUSH2 0x13A7 JUMPI PUSH1 0x40 MLOAD SWAP1 DUP2 MSTORE PUSH32 0x7FCF532C15F0A6DB0BD6D0E038BEA71D30D808C7D98CB3BF7268A95BF5081B65 PUSH1 0x20 CALLER SWAP3 LOG2 PUSH1 0x1 DUP1 SSTORE STOP JUMPDEST PUSH1 0x40 MLOAD PUSH3 0x461BCD PUSH1 0xE5 SHL DUP2 MSTORE PUSH1 0x20 PUSH1 0x4 DUP3 ADD MSTORE PUSH1 0xF PUSH1 0x24 DUP3 ADD MSTORE PUSH15 0x15DA5D1A191C985DC819985A5B1959 PUSH1 0x8A SHL PUSH1 0x44 DUP3 ADD MSTORE PUSH1 0x64 SWAP1 REVERT JUMPDEST PUSH2 0x1370 JUMP JUMPDEST PUSH1 0x40 MLOAD PUSH3 0x461BCD PUSH1 0xE5 SHL DUP2 MSTORE PUSH1 0x20 PUSH1 0x4 DUP3 ADD MSTORE PUSH1 0x8 PUSH1 0x24 DUP3 ADD MSTORE PUSH8 0x4E6F2066756E6473 PUSH1 0xC0 SHL PUSH1 0x44 DUP3 ADD MSTORE PUSH1 0x64 SWAP1 REVERT JUMPDEST CALLVALUE PUSH2 0x1F4 JUMPI PUSH1 0x0 CALLDATASIZE PUSH1 0x3 NOT ADD SLT PUSH2 0x1F4 JUMPI PUSH1 0x20 PUSH1 0x2 SLOAD PUSH1 0x40 MLOAD SWAP1 DUP2 MSTORE RETURN JUMPDEST CALLVALUE PUSH2 0x1F4 JUMPI PUSH1 0x40 CALLDATASIZE PUSH1 0x3 NOT ADD SLT PUSH2 0x1F4 JUMPI PUSH1 0x4 CALLDATALOAD PUSH2 0x144D PUSH2 0x1836 JUMP JUMPDEST PUSH1 0xFF PUSH1 0x9 SLOAD AND PUSH1 0x6 DUP2 LT ISZERO PUSH2 0x732 JUMPI PUSH1 0x3 PUSH2 0x1468 SWAP2 EQ PUSH2 0x1703 JUMP JUMPDEST PUSH1 0xD SLOAD TIMESTAMP LT ISZERO PUSH2 0x15BC JUMPI CALLER PUSH1 0x0 MSTORE PUSH1 0xE PUSH1 0x20 MSTORE PUSH1 0x40 PUSH1 0x0 KECCAK256 PUSH1 0x2 DUP2 ADD SWAP1 DUP2 SLOAD PUSH1 0xFF DUP2 PUSH1 0x10 SHR AND DUP1 PUSH2 0x15B2 JUMPI JUMPDEST ISZERO PUSH2 0x1581 JUMPI PUSH1 0xFF DUP2 PUSH1 0x8 SHR AND PUSH2 0x1549 JUMPI PUSH1 0x40 MLOAD PUSH1 0x20 DUP2 ADD SWAP1 DUP6 DUP3 MSTORE PUSH1 0x24 CALLDATALOAD PUSH1 0x40 DUP3 ADD MSTORE PUSH1 0x40 DUP2 MSTORE PUSH2 0x14C6 PUSH1 0x60 DUP3 PUSH2 0x1742 JUMP JUMPDEST MLOAD SWAP1 KECCAK256 DUP3 SLOAD SUB PUSH2 0x1513 JUMPI DUP4 PUSH1 0x1 PUSH2 0x100 SWAP4 ADD SSTORE PUSH2 0xFF00 NOT AND OR SWAP1 SSTORE PUSH1 0x40 MLOAD SWAP1 DUP2 MSTORE PUSH32 0x54E8949E94ED0014D3A5385209B286177BA08C3416D2EE667A54F0341C46DD1D PUSH1 0x20 CALLER SWAP3 LOG2 PUSH1 0x1 DUP1 SSTORE STOP JUMPDEST PUSH1 0x40 MLOAD PUSH3 0x461BCD PUSH1 0xE5 SHL DUP2 MSTORE PUSH1 0x20 PUSH1 0x4 DUP3 ADD MSTORE PUSH1 0xE PUSH1 0x24 DUP3 ADD MSTORE PUSH14 0x125B9D985B1A59081C995D99585B PUSH1 0x92 SHL PUSH1 0x44 DUP3 ADD MSTORE PUSH1 0x64 SWAP1 REVERT JUMPDEST PUSH1 0x40 MLOAD PUSH3 0x461BCD PUSH1 0xE5 SHL DUP2 MSTORE PUSH1 0x20 PUSH1 0x4 DUP3 ADD MSTORE PUSH1 0x10 PUSH1 0x24 DUP3 ADD MSTORE PUSH16 0x105B1C9958591E481C995D99585B1959 PUSH1 0x82 SHL PUSH1 0x44 DUP3 ADD MSTORE PUSH1 0x64 SWAP1 REVERT JUMPDEST PUSH1 0x40 MLOAD PUSH3 0x461BCD PUSH1 0xE5 SHL DUP2 MSTORE PUSH1 0x20 PUSH1 0x4 DUP3 ADD MSTORE PUSH1 0x9 PUSH1 0x24 DUP3 ADD MSTORE PUSH9 0x139BC818DBDB5B5A5D PUSH1 0xBA SHL PUSH1 0x44 DUP3 ADD MSTORE PUSH1 0x64 SWAP1 REVERT JUMPDEST POP PUSH1 0xFF DUP2 AND PUSH2 0x1494 JUMP JUMPDEST PUSH1 0x40 MLOAD PUSH3 0x461BCD PUSH1 0xE5 SHL DUP2 MSTORE PUSH1 0x20 PUSH1 0x4 DUP3 ADD MSTORE PUSH1 0xD PUSH1 0x24 DUP3 ADD MSTORE PUSH13 0x14995D99585B0818DB1BDCD959 PUSH1 0x9A SHL PUSH1 0x44 DUP3 ADD MSTORE PUSH1 0x64 SWAP1 REVERT JUMPDEST CALLVALUE PUSH2 0x1F4 JUMPI PUSH1 0x20 CALLDATASIZE PUSH1 0x3 NOT ADD SLT PUSH2 0x1F4 JUMPI PUSH1 0x4 CALLDATALOAD PUSH1 0xF SLOAD DUP2 LT ISZERO PUSH2 0x1F4 JUMPI PUSH2 0x161A PUSH1 0x20 SWAP2 PUSH2 0x16B9 JUMP JUMPDEST SWAP1 SLOAD PUSH1 0x40 MLOAD PUSH1 0x3 SWAP3 SWAP1 SWAP3 SHL SHR PUSH1 0x1 PUSH1 0x1 PUSH1 0xA0 SHL SUB AND DUP2 MSTORE RETURN JUMPDEST CALLVALUE PUSH2 0x1F4 JUMPI PUSH1 0x0 CALLDATASIZE PUSH1 0x3 NOT ADD SLT PUSH2 0x1F4 JUMPI PUSH1 0x20 PUSH1 0x11 SLOAD PUSH1 0x40 MLOAD SWAP1 DUP2 MSTORE RETURN JUMPDEST CALLVALUE PUSH2 0x1F4 JUMPI PUSH1 0x0 CALLDATASIZE PUSH1 0x3 NOT ADD SLT PUSH2 0x1F4 JUMPI PUSH1 0x20 PUSH1 0x8 SLOAD PUSH1 0x40 MLOAD SWAP1 DUP2 MSTORE RETURN JUMPDEST CALLVALUE PUSH2 0x1F4 JUMPI PUSH1 0x0 CALLDATASIZE PUSH1 0x3 NOT ADD SLT PUSH2 0x1F4 JUMPI PUSH1 0x20 PUSH1 0x6 SLOAD PUSH1 0x40 MLOAD SWAP1 DUP2 MSTORE RETURN JUMPDEST CALLVALUE PUSH2 0x1F4 JUMPI PUSH1 0x0 CALLDATASIZE PUSH1 0x3 NOT ADD SLT PUSH2 0x1F4 JUMPI DUP1 PUSH2 0x2AC PUSH1 0x20 SWAP3 PUSH1 0xFF PUSH1 0x9 SLOAD AND JUMPDEST SWAP1 PUSH1 0x6 DUP3 LT ISZERO PUSH2 0x732 JUMPI MSTORE JUMP JUMPDEST PUSH1 0xF SLOAD DUP2 LT ISZERO PUSH2 0x16D4 JUMPI PUSH1 0xF PUSH1 0x0 MSTORE PUSH1 0x20 PUSH1 0x0 KECCAK256 ADD SWAP1 PUSH1 0x0 SWAP1 JUMP JUMPDEST PUSH4 0x4E487B71 PUSH1 0xE0 SHL PUSH1 0x0 MSTORE PUSH1 0x32 PUSH1 0x4 MSTORE PUSH1 0x24 PUSH1 0x0 REVERT JUMPDEST PUSH1 0x6 DUP2 LT ISZERO PUSH2 0x732 JUMPI PUSH1 0x0 MSTORE PUSH1 0xA PUSH1 0x20 MSTORE PUSH1 0x40 PUSH1 0x0 KECCAK256 SWAP1 JUMP JUMPDEST ISZERO PUSH2 0x170A JUMPI JUMP JUMPDEST PUSH1 0x40 MLOAD PUSH3 0x461BCD PUSH1 0xE5 SHL DUP2 MSTORE PUSH1 0x20 PUSH1 0x4 DUP3 ADD MSTORE PUSH1 0x10 PUSH1 0x24 DUP3 ADD MSTORE PUSH16 0x4E6F742072657665616C207068617365 PUSH1 0x80 SHL PUSH1 0x44 DUP3 ADD MSTORE PUSH1 0x64 SWAP1 REVERT JUMPDEST SWAP1 PUSH1 0x1F DUP1 NOT SWAP2 ADD AND DUP2 ADD SWAP1 DUP2 LT PUSH8 0xFFFFFFFFFFFFFFFF DUP3 GT OR PUSH2 0x7EA JUMPI PUSH1 0x40 MSTORE JUMP JUMPDEST ISZERO PUSH2 0x176B JUMPI JUMP JUMPDEST PUSH1 0x40 MLOAD PUSH3 0x461BCD PUSH1 0xE5 SHL DUP2 MSTORE PUSH1 0x20 PUSH1 0x4 DUP3 ADD MSTORE PUSH1 0xA PUSH1 0x24 DUP3 ADD MSTORE PUSH10 0x139BDD081A9BDA5B9959 PUSH1 0xB2 SHL PUSH1 0x44 DUP3 ADD MSTORE PUSH1 0x64 SWAP1 REVERT JUMPDEST SWAP2 SWAP1 DUP3 ADD DUP1 SWAP3 GT PUSH2 0xAFC JUMPI JUMP JUMPDEST SWAP2 SWAP1 DUP3 SUB SWAP2 DUP3 GT PUSH2 0xAFC JUMPI JUMP JUMPDEST PUSH1 0xFF PUSH1 0x9 SLOAD AND PUSH2 0x17C6 DUP2 PUSH2 0x16EA JUMP JUMPDEST SLOAD PUSH1 0x0 SWAP2 PUSH1 0x6 DUP2 LT ISZERO PUSH2 0x6F2 JUMPI PUSH1 0x1 DUP2 SUB PUSH2 0x1806 JUMPI POP PUSH2 0x17EA SWAP2 POP PUSH1 0x8 SLOAD SWAP1 PUSH2 0x179D JUMP JUMPDEST DUP1 TIMESTAMP LT ISZERO PUSH2 0x1800 JUMPI PUSH2 0x17FD SWAP1 TIMESTAMP SWAP1 PUSH2 0x17AA JUMP JUMPDEST SWAP1 JUMP JUMPDEST POP PUSH1 0x0 SWAP1 JUMP JUMPDEST PUSH1 0x2 DUP2 SUB PUSH2 0x181D JUMPI POP PUSH2 0x17EA SWAP2 POP PUSH1 0x4 SLOAD SWAP1 PUSH2 0x179D JUMP JUMPDEST PUSH1 0x3 SUB PUSH2 0x1832 JUMPI PUSH2 0x17EA SWAP2 POP PUSH1 0x5 SLOAD SWAP1 PUSH2 0x179D JUMP JUMPDEST POP SWAP1 JUMP JUMPDEST PUSH1 0x2 PUSH1 0x1 SLOAD EQ PUSH2 0x1847 JUMPI PUSH1 0x2 PUSH1 0x1 SSTORE JUMP JUMPDEST PUSH4 0x3EE5AEB5 PUSH1 0xE0 SHL PUSH1 0x0 MSTORE PUSH1 0x4 PUSH1 0x0 REVERT JUMPDEST PUSH1 0x0 SLOAD PUSH1 0x1 PUSH1 0x1 PUSH1 0xA0 SHL SUB AND CALLER SUB PUSH2 0x186C JUMPI JUMP JUMPDEST PUSH4 0x118CDAA7 PUSH1 0xE0 SHL PUSH1 0x0 MSTORE CALLER PUSH1 0x4 MSTORE PUSH1 0x24 PUSH1 0x0 REVERT JUMPDEST PUSH1 0x0 NOT DUP2 EQ PUSH2 0xAFC JUMPI PUSH1 0x1 ADD SWAP1 JUMP JUMPDEST PUSH8 0xFFFFFFFFFFFFFFFF DUP2 GT PUSH2 0x7EA JUMPI PUSH1 0x5 SHL PUSH1 0x20 ADD SWAP1 JUMP JUMPDEST DUP1 MLOAD ISZERO PUSH2 0x16D4 JUMPI PUSH1 0x20 ADD SWAP1 JUMP JUMPDEST DUP1 MLOAD DUP3 LT ISZERO PUSH2 0x16D4 JUMPI PUSH1 0x20 SWAP2 PUSH1 0x5 SHL ADD ADD SWAP1 JUMP JUMPDEST PUSH1 0x0 DUP1 PUSH1 0xF SLOAD SWAP1 PUSH1 0x0 JUMPDEST DUP3 DUP2 LT PUSH2 0x1C47 JUMPI POP DUP3 ISZERO PUSH2 0x1B96 JUMPI DUP3 SWAP1 DIV DUP1 PUSH1 0x10 SSTORE DUP1 PUSH1 0x1 SHL SWAP1 DUP1 DUP3 DIV PUSH1 0x2 EQ SWAP1 ISZERO OR ISZERO PUSH2 0xAFC JUMPI PUSH1 0x3 SWAP1 DIV SWAP1 DUP2 PUSH1 0x11 SSTORE PUSH1 0x0 NOT PUSH2 0x1910 DUP5 PUSH2 0x1890 JUMP JUMPDEST SWAP4 PUSH2 0x191E PUSH1 0x40 MLOAD SWAP6 DUP7 PUSH2 0x1742 JUMP JUMPDEST DUP1 DUP6 MSTORE PUSH2 0x192D PUSH1 0x1F NOT SWAP2 PUSH2 0x1890 JUMP JUMPDEST ADD CALLDATASIZE PUSH1 0x20 DUP7 ADD CALLDATACOPY PUSH1 0x0 SWAP3 PUSH1 0x0 JUMPDEST DUP4 DUP2 LT PUSH2 0x1AB5 JUMPI POP POP POP POP PUSH1 0x1 DUP2 SUB PUSH2 0x1A43 JUMPI POP PUSH1 0x1 PUSH1 0x1 PUSH1 0xA0 SHL SUB SWAP1 PUSH2 0x1960 SWAP1 PUSH2 0x18A8 JUMP JUMPDEST MLOAD AND PUSH1 0x1 DUP1 PUSH1 0xA0 SHL SUB NOT PUSH1 0x12 SLOAD AND OR PUSH1 0x12 SSTORE JUMPDEST PUSH2 0x1985 PUSH1 0x5 PUSH1 0xFF NOT PUSH1 0x9 SLOAD AND OR PUSH1 0x9 SSTORE JUMP JUMPDEST PUSH1 0x13 SLOAD PUSH1 0x7 SLOAD DUP1 DUP3 MUL SWAP1 DUP3 DUP3 DIV EQ DUP3 ISZERO OR ISZERO PUSH2 0xAFC JUMPI PUSH32 0x1D3B18309FCD7BE02B3CB02A6B2EEBF55BDC38F582585BBAD82E449DA17FE810 SWAP2 PUSH2 0x19CD PUSH1 0x64 PUSH1 0x80 SWAP4 DIV DUP1 SWAP3 PUSH2 0x17AA JUMP JUMPDEST SWAP1 PUSH1 0x1 DUP1 PUSH1 0xA0 SHL SUB PUSH1 0x0 SLOAD AND PUSH1 0x0 MSTORE PUSH1 0x14 PUSH1 0x20 MSTORE PUSH2 0x19F1 PUSH1 0x40 PUSH1 0x0 KECCAK256 SWAP2 DUP3 SLOAD PUSH2 0x179D JUMP JUMPDEST SWAP1 SSTORE PUSH1 0x1 DUP1 PUSH1 0xA0 SHL SUB PUSH1 0x12 SLOAD AND PUSH1 0x0 MSTORE PUSH1 0x14 PUSH1 0x20 MSTORE PUSH1 0x40 PUSH1 0x0 KECCAK256 PUSH2 0x1A16 DUP3 DUP3 SLOAD PUSH2 0x179D JUMP JUMPDEST SWAP1 SSTORE PUSH1 0x10 SLOAD SWAP1 PUSH1 0x11 SLOAD PUSH1 0x1 DUP1 PUSH1 0xA0 SHL SUB PUSH1 0x12 SLOAD AND SWAP1 PUSH1 0x40 MLOAD SWAP4 DUP5 MSTORE PUSH1 0x20 DUP5 ADD MSTORE PUSH1 0x40 DUP4 ADD MSTORE PUSH1 0x60 DUP3 ADD MSTORE LOG1 JUMP JUMPDEST PUSH1 0x40 MLOAD PUSH1 0x20 DUP2 ADD SWAP1 TIMESTAMP DUP3 MSTORE PREVRANDAO PUSH1 0x40 DUP3 ADD MSTORE DUP3 PUSH1 0x60 DUP3 ADD MSTORE PUSH1 0x60 DUP2 MSTORE PUSH2 0x1A69 PUSH1 0x80 DUP3 PUSH2 0x1742 JUMP JUMPDEST MLOAD SWAP1 KECCAK256 SWAP2 DUP2 ISZERO PUSH2 0x1A9F JUMPI PUSH1 0x1 PUSH1 0x1 PUSH1 0xA0 SHL SUB SWAP3 PUSH2 0x1A88 SWAP3 SWAP1 MOD SWAP1 PUSH2 0x18B5 JUMP JUMPDEST MLOAD AND PUSH1 0x1 DUP1 PUSH1 0xA0 SHL SUB NOT PUSH1 0x12 SLOAD AND OR PUSH1 0x12 SSTORE PUSH2 0x1973 JUMP JUMPDEST PUSH4 0x4E487B71 PUSH1 0xE0 SHL PUSH1 0x0 MSTORE PUSH1 0x12 PUSH1 0x4 MSTORE PUSH1 0x24 PUSH1 0x0 REVERT JUMPDEST PUSH2 0x1ABE DUP2 PUSH2 0x16B9 JUMP JUMPDEST PUSH1 0x1 DUP1 PUSH1 0xA0 SHL SUB SWAP2 SLOAD SWAP1 PUSH1 0x3 SHL SHR AND PUSH1 0x0 MSTORE PUSH1 0xE PUSH1 0x20 MSTORE PUSH1 0x40 PUSH1 0x0 KECCAK256 PUSH1 0xFF PUSH1 0x2 DUP3 ADD SLOAD PUSH1 0x8 SHR AND PUSH2 0x1AF3 JUMPI JUMPDEST POP PUSH1 0x1 ADD PUSH2 0x193A JUMP JUMPDEST PUSH1 0x1 ADD SLOAD SWAP1 SWAP5 SWAP2 SWAP3 SWAP2 SWAP1 DUP4 DUP1 DUP3 GT ISZERO PUSH2 0x1B86 JUMPI PUSH2 0x1B0F SWAP2 PUSH2 0x17AA JUMP JUMPDEST SWAP2 JUMPDEST DUP1 DUP4 LT ISZERO PUSH2 0x1B49 JUMPI POP POP SWAP1 PUSH1 0x1 PUSH2 0x1B27 DUP6 PUSH2 0x16B9 JUMP JUMPDEST DUP3 DUP1 PUSH1 0xA0 SHL SUB SWAP2 SLOAD SWAP1 PUSH1 0x3 SHL SHR AND SWAP5 DUP2 SWAP6 PUSH2 0x1B41 DUP9 PUSH2 0x18A8 JUMP JUMPDEST MSTORE JUMPDEST SWAP1 PUSH2 0x1AEA JUMP JUMPDEST SWAP3 SWAP2 SWAP5 DUP4 PUSH1 0x1 SWAP3 SWAP7 SUB PUSH2 0x1B43 JUMPI PUSH2 0x1B5F DUP2 PUSH2 0x16B9 JUMP JUMPDEST DUP4 DUP1 PUSH1 0xA0 SHL SUB SWAP2 SLOAD SWAP1 PUSH1 0x3 SHL SHR AND PUSH2 0x1B80 PUSH2 0x1B79 DUP9 PUSH2 0x1881 JUMP JUMPDEST SWAP8 DUP10 PUSH2 0x18B5 JUMP JUMPDEST MSTORE PUSH2 0x1B43 JUMP JUMPDEST SWAP1 PUSH2 0x1B90 SWAP2 PUSH2 0x17AA JUMP JUMPDEST SWAP2 PUSH2 0x1B11 JUMP JUMPDEST POP POP POP PUSH1 0x13 SLOAD PUSH1 0x1 DUP1 PUSH1 0xA0 SHL SUB PUSH1 0x0 SLOAD AND PUSH1 0x0 MSTORE PUSH1 0x14 PUSH1 0x20 MSTORE PUSH2 0x1BBF PUSH1 0x40 PUSH1 0x0 KECCAK256 SWAP2 DUP3 SLOAD PUSH2 0x179D JUMP JUMPDEST SWAP1 SSTORE PUSH1 0x0 DUP1 SLOAD PUSH1 0x12 DUP1 SLOAD PUSH1 0x1 PUSH1 0x1 PUSH1 0xA0 SHL SUB NOT AND PUSH1 0x1 PUSH1 0x1 PUSH1 0xA0 SHL SUB SWAP3 SWAP1 SWAP3 AND SWAP2 SWAP1 SWAP2 OR SWAP1 SSTORE PUSH1 0x10 DUP2 SWAP1 SSTORE PUSH1 0x11 SSTORE PUSH1 0x9 DUP1 SLOAD PUSH1 0xFF NOT AND PUSH1 0x5 OR SWAP1 SSTORE PUSH32 0x1D3B18309FCD7BE02B3CB02A6B2EEBF55BDC38F582585BBAD82E449DA17FE810 PUSH1 0x80 PUSH1 0x1 DUP1 PUSH1 0xA0 SHL SUB PUSH1 0x0 SLOAD AND PUSH1 0x13 SLOAD PUSH1 0x40 MLOAD SWAP2 PUSH1 0x0 DUP4 MSTORE PUSH1 0x0 PUSH1 0x20 DUP5 ADD MSTORE PUSH1 0x40 DUP4 ADD MSTORE PUSH1 0x60 DUP3 ADD MSTORE LOG1 JUMP JUMPDEST PUSH2 0x1C50 DUP2 PUSH2 0x16B9 JUMP JUMPDEST PUSH1 0x1 DUP1 PUSH1 0xA0 SHL SUB SWAP2 SLOAD SWAP1 PUSH1 0x3 SHL SHR AND PUSH1 0x0 MSTORE PUSH1 0xE PUSH1 0x20 MSTORE PUSH1 0x40 PUSH1 0x0 KECCAK256 PUSH1 0xFF PUSH1 0x2 DUP3 ADD SLOAD PUSH1 0x8 SHR AND PUSH2 0x1C85 JUMPI JUMPDEST POP PUSH1 0x1 ADD PUSH2 0x18D3 JUMP JUMPDEST PUSH2 0x1C9A PUSH1 0x1 SWAP3 SWAP6 SWAP4 DUP4 PUSH2 0x1CA0 SWAP4 ADD SLOAD SWAP1 PUSH2 0x179D JUMP JUMPDEST SWAP3 PUSH2 0x1881 JUMP JUMPDEST SWAP4 SWAP1 PUSH2 0x1C7C JUMP INVALID LOG0 0xB5 PUSH13 0x84658CBEECACAFB795505A4CD8 CALL LOG2 0xBD 0x2E PUSH1 0xC4 OR 0xEE SWAP3 DUP9 0x2B SWAP1 PUSH26 0x789EA1A2646970667358221220AA8D9F54A82CC76D8DDDCCA5CC 0xD4 PUSH30 0xC0A3491BAE31E00E40DFBBCD9BE13CFB0664736F6C634300081C00330000 "},"methodIdentifiers":{"autoStartDelay()":"07f6aee8","average()":"b250717a","catchUp()":"8d6b8b41","commitDuration()":"6f833811","commitEndTime()":"5a7013aa","commitGuess(bytes32)":"608a5d95","currentPhase()":"055ad42e","entryFee()":"072ea61c","finalizeGame()":"b03b2030","getCommitEndTime()":"0ee70881","getPendingWithdrawal(address)":"7ee8b2f8","getPhase()":"eced0280","getPlayerCount()":"c2e52206","getPlayers()":"8b5b9ccc","getPrizePool()":"884bf67c","getRevealEndTime()":"2a5aa13d","getTimeRemaining()":"dac6270d","joinGame()":"d4f77b1c","leaveGame()":"b1501f9c","maxPlayers()":"4c2412a2","minPlayers()":"2770c895","minPlayersReachedTime()":"b07ddf8a","owner()":"8da5cb5b","pendingWithdrawals(address)":"f3f43703","phaseStartTime(uint8)":"8b7a2955","playerAddresses(uint256)":"15c6aee2","players(address)":"e2eb41ff","prizePool()":"719ce73e","renounceOwnership()":"715018a6","revealDuration()":"886a6de1","revealEndTime()":"d49dc1d8","revealGuess(uint256,bytes32)":"180c18c3","serviceFeePercent()":"995bc51e","transferOwnership(address)":"f2fde38b","twoThirdsAverage()":"0a4a922e","winner()":"dfbf53ae","withdraw()":"3ccfd60b"}}}}}