{"contracts/TwoThirdsAverageGame.sol":{"TwoThirdsAverageGame":{"abi":[{"inputs":[{"internalType":"uint256","name":"_minPlayers","type":"uint256"},{"internalType":"uint256","name":"_maxPlayers","type":"uint256"},{"internalType":"uint256","name":"_commitDuration","type":"uint256"},{"internalType":"uint256","name":"_revealDuration","type":"uint256"},{"internalType":"uint256","name":"_entryFee","type":"uint256"},{"internalType":"uint256","name":"_serviceFeePercent","type":"uint256"},{"internalType":"uint256","name":"_autoStartDelay","type":"uint256"}],"stateMutability":"nonpayable","type":"constructor"},{"inputs":[{"internalType":"address","name":"owner","type":"address"}],"name":"OwnableInvalidOwner","type":"error"},{"inputs":[{"internalType":"address","name":"account","type":"address"}],"name":"OwnableUnauthorizedAccount","type":"error"},{"inputs":[],"name":"ReentrancyGuardReentrantCall","type":"error"},{"anonymous":false,"inputs":[{"indexed":false,"internalType":"uint16","name":"average","type":"uint16"},{"indexed":false,"internalType":"uint16","name":"twoThirdsAverage","type":"uint16"},{"indexed":false,"internalType":"address","name":"winner","type":"address"},{"indexed":false,"internalType":"uint256","name":"prize","type":"uint256"}],"name":"GameEnded","type":"event"},{"anonymous":false,"inputs":[{"indexed":false,"internalType":"uint256","name":"startTime","type":"uint256"},{"indexed":false,"internalType":"uint256","name":"commitStart","type":"uint256"},{"indexed":false,"internalType":"uint256","name":"commitEnd","type":"uint256"},{"indexed":false,"internalType":"uint256","name":"entryFee","type":"uint256"},{"indexed":false,"internalType":"uint256","name":"minPlayers","type":"uint256"},{"indexed":false,"internalType":"uint256","name":"maxPlayers","type":"uint256"}],"name":"GameStarting","type":"event"},{"anonymous":false,"inputs":[{"indexed":true,"internalType":"address","name":"player","type":"address"}],"name":"GuessCommitted","type":"event"},{"anonymous":false,"inputs":[{"indexed":true,"internalType":"address","name":"player","type":"address"},{"indexed":false,"internalType":"uint256","name":"guess","type":"uint256"}],"name":"GuessRevealed","type":"event"},{"anonymous":false,"inputs":[{"indexed":true,"internalType":"address","name":"previousOwner","type":"address"},{"indexed":true,"internalType":"address","name":"newOwner","type":"address"}],"name":"OwnershipTransferred","type":"event"},{"anonymous":false,"inputs":[{"indexed":true,"internalType":"address","name":"player","type":"address"},{"indexed":false,"internalType":"uint256","name":"entryFeePaid","type":"uint256"}],"name":"PlayerJoined","type":"event"},{"anonymous":false,"inputs":[{"indexed":true,"internalType":"address","name":"recipient","type":"address"},{"indexed":false,"internalType":"uint256","name":"amount","type":"uint256"}],"name":"Withdrawal","type":"event"},{"inputs":[],"name":"autoStartDelay","outputs":[{"internalType":"uint256","name":"","type":"uint256"}],"stateMutability":"view","type":"function"},{"inputs":[],"name":"average","outputs":[{"internalType":"uint16","name":"","type":"uint16"}],"stateMutability":"view","type":"function"},{"inputs":[],"name":"commitDuration","outputs":[{"internalType":"uint256","name":"","type":"uint256"}],"stateMutability":"view","type":"function"},{"inputs":[{"internalType":"bytes32","name":"hash","type":"bytes32"}],"name":"commitGuess","outputs":[],"stateMutability":"nonpayable","type":"function"},{"inputs":[],"name":"currentPhase","outputs":[{"internalType":"enum TwoThirdsAverageGame.GamePhase","name":"","type":"uint8"}],"stateMutability":"view","type":"function"},{"inputs":[],"name":"entryFee","outputs":[{"internalType":"uint256","name":"","type":"uint256"}],"stateMutability":"view","type":"function"},{"inputs":[],"name":"finalizeGame","outputs":[],"stateMutability":"nonpayable","type":"function"},{"inputs":[],"name":"getPhase","outputs":[{"internalType":"enum TwoThirdsAverageGame.GamePhase","name":"","type":"uint8"}],"stateMutability":"view","type":"function"},{"inputs":[],"name":"getPlayerCount","outputs":[{"internalType":"uint256","name":"","type":"uint256"}],"stateMutability":"view","type":"function"},{"inputs":[],"name":"getPlayers","outputs":[{"internalType":"address[]","name":"","type":"address[]"}],"stateMutability":"view","type":"function"},{"inputs":[],"name":"getResults","outputs":[{"components":[{"internalType":"uint16","name":"average","type":"uint16"},{"internalType":"uint16","name":"twoThirdsAverage","type":"uint16"},{"internalType":"address","name":"winner","type":"address"},{"internalType":"uint256","name":"prize","type":"uint256"},{"internalType":"uint256","name":"serviceFee","type":"uint256"}],"internalType":"struct TwoThirdsAverageGame.Results","name":"r","type":"tuple"}],"stateMutability":"view","type":"function"},{"inputs":[],"name":"getTimeRemaining","outputs":[{"internalType":"uint256","name":"","type":"uint256"}],"stateMutability":"view","type":"function"},{"inputs":[],"name":"joinGame","outputs":[],"stateMutability":"payable","type":"function"},{"inputs":[],"name":"leaveGame","outputs":[],"stateMutability":"nonpayable","type":"function"},{"inputs":[],"name":"maxPlayers","outputs":[{"internalType":"uint256","name":"","type":"uint256"}],"stateMutability":"view","type":"function"},{"inputs":[],"name":"minPlayers","outputs":[{"internalType":"uint256","name":"","type":"uint256"}],"stateMutability":"view","type":"function"},{"inputs":[],"name":"minPlayersReachedTime","outputs":[{"internalType":"uint256","name":"","type":"uint256"}],"stateMutability":"view","type":"function"},{"inputs":[],"name":"owner","outputs":[{"internalType":"address","name":"","type":"address"}],"stateMutability":"view","type":"function"},{"inputs":[{"internalType":"address","name":"","type":"address"}],"name":"pendingWithdrawals","outputs":[{"internalType":"uint256","name":"","type":"uint256"}],"stateMutability":"view","type":"function"},{"inputs":[{"internalType":"uint256","name":"","type":"uint256"}],"name":"playerAddresses","outputs":[{"internalType":"address","name":"","type":"address"}],"stateMutability":"view","type":"function"},{"inputs":[{"internalType":"address","name":"","type":"address"}],"name":"players","outputs":[{"internalType":"bytes32","name":"commitment","type":"bytes32"},{"internalType":"uint16","name":"revealedGuess","type":"uint16"},{"internalType":"bool","name":"hasCommitted","type":"bool"},{"internalType":"bool","name":"hasRevealed","type":"bool"},{"internalType":"bool","name":"hasJoined","type":"bool"}],"stateMutability":"view","type":"function"},{"inputs":[],"name":"prizePool","outputs":[{"internalType":"uint256","name":"","type":"uint256"}],"stateMutability":"view","type":"function"},{"inputs":[],"name":"renounceOwnership","outputs":[],"stateMutability":"nonpayable","type":"function"},{"inputs":[],"name":"revealDuration","outputs":[{"internalType":"uint256","name":"","type":"uint256"}],"stateMutability":"view","type":"function"},{"inputs":[{"internalType":"uint256","name":"guess","type":"uint256"},{"internalType":"bytes32","name":"salt","type":"bytes32"}],"name":"revealGuess","outputs":[],"stateMutability":"nonpayable","type":"function"},{"inputs":[],"name":"serviceFeePercent","outputs":[{"internalType":"uint256","name":"","type":"uint256"}],"stateMutability":"view","type":"function"},{"inputs":[{"internalType":"address","name":"newOwner","type":"address"}],"name":"transferOwnership","outputs":[],"stateMutability":"nonpayable","type":"function"},{"inputs":[],"name":"twoThirdsAverage","outputs":[{"internalType":"uint16","name":"","type":"uint16"}],"stateMutability":"view","type":"function"},{"inputs":[],"name":"winner","outputs":[{"internalType":"address","name":"","type":"address"}],"stateMutability":"view","type":"function"},{"inputs":[],"name":"withdraw","outputs":[],"stateMutability":"nonpayable","type":"function"}],"evm":{"bytecode":{"linkReferences":{},"object":"60803461025857601f611c8a38819003918201601f19168301916001600160401b0383118484101761025d5780849260e094604052833981010312610258578051906020810151604082015160608301519060808401519260c060a08601519501519533156102425760008054336001600160a01b03198216811783556040519290916001600160a01b0316907f8be0079c531659141344cd1fd0a4f28419497f9722a3daafe3b4186f6b6457e09080a3600180556003821061020d5750808211156101dc5782156101a657831561017057861561013f576014861161010d5760025560035560045560055560065560075560085560ff1960095416600955604051611a1690816102748239f35b60405162461bcd60e51b815260206004820152600a602482015269466565203c3d2032302560b01b6044820152606490fd5b60405162461bcd60e51b8152602060048201526009602482015268044656c6179203e20360bc1b6044820152606490fd5b60405162461bcd60e51b815260206004820152600e60248201526d052657665616c20647572203e20360941b6044820152606490fd5b60405162461bcd60e51b815260206004820152600e60248201526d0436f6d6d697420647572203e20360941b6044820152606490fd5b60405162461bcd60e51b815260206004820152600960248201526826b0bc101f1036b4b760b91b6044820152606490fd5b62461bcd60e51b815260206004820152601060248201526f4d696e20706c6179657273203e3d203360801b6044820152606490fd5b631e4fbdf760e01b600052600060045260246000fd5b600080fd5b634e487b7160e01b600052604160045260246000fdfe608080604052600436101561001357600080fd5b60003560e01c908163055ad42e1461108857508063072ea61c1461106a57806307f6aee81461104c5780630a4a922e1461102757806315c6aee214610fe5578063180c18c314610dff5780632770c89514610de15780633ccfd60b14610cb25780634717f97c14610c575780634c2412a214610c39578063608a5d9514610af85780636f83381114610ada578063715018a614610a81578063719ce73e14610a63578063886a6de114610a455780638b5b9ccc146109955780638da5cb5b1461096c578063995bc51e1461094e578063b03b20301461092d578063b07ddf8a1461090f578063b1501f9c14610702578063b250717a146106e0578063c2e52206146106c2578063d4f77b1c14610326578063dac6270d14610303578063dfbf53ae146102da578063e2eb41ff14610265578063eced028014610239578063f2fde38b146101ac5763f3f437031461016957600080fd5b346101a75760203660031901126101a7576004356001600160a01b038116908190036101a75760005260126020526020604060002054604051908152f35b600080fd5b346101a75760203660031901126101a7576004356001600160a01b038116908190036101a7576101da6119b7565b801561022357600080546001600160a01b03198116831782556001600160a01b0316907f8be0079c531659141344cd1fd0a4f28419497f9722a3daafe3b4186f6b6457e09080a3005b631e4fbdf760e01b600052600060045260246000fd5b346101a75760003660031901126101a75761026161025561191b565b604051918291826110a5565b0390f35b346101a75760203660031901126101a7576004356001600160a01b038116908190036101a757600052600b60205260a0604060002060ff6001825492015460405192835261ffff81166020840152818160101c1615156040840152818160181c161515606084015260201c1615156080820152f35b346101a75760003660031901126101a757601054604051602091821c6001600160a01b03168152f35b346101a75760003660031901126101a757602061031e611894565b604051908152f35b60003660031901126101a75761033a611995565b61034261191b565b60068110158061066857811580156106b5575b1561067e576106685760011480610650575b61061657600c5460035411156105e55733600052600b60205260ff60016040600020015460201c166105af576006543403610574576040516103a8816110e9565b60008082526020808301828152604080850184815260608601858152600160808801818152338852600b87528488209851895594519701805492519151945164ffffffffff1990931661ffff989098169790971790151560101b62ff0000161792151560181b63ff0000001692909217911515831b64ff000000001691909117909355600c54600d909152919020819055600160401b81101561055e576104588160016104769301600c556110b8565b81546001600160a01b0360039290921b91821b19163390911b179055565b61048234601154611127565b6011556040513481527f3330a6773675f31f62070870f40379f8c6d42e3761410011a4dfc42b18043d2f60203392a2600c54600254111580610554575b6104ca575b60018055005b42600a55600160ff1960095416176009557ff2546de66f180061ee75953fe1999fc0475daef64d87e75ad834022b57031d2f60c0600a5460085461052461051b6105148385611127565b9284611127565b60045490611127565b6006546002549160035493604051958652602086015260408501526060840152608083015260a0820152a16104c4565b50600a54156104bf565b634e487b7160e01b600052604160045260246000fd5b60405162461bcd60e51b8152602060048201526013602482015272496e636f727265637420656e7472792066656560681b6044820152606490fd5b60405162461bcd60e51b815260206004820152600e60248201526d105b1c9958591e481a9bda5b995960921b6044820152606490fd5b60405162461bcd60e51b815260206004820152600960248201526811d85b5948199d5b1b60ba1b6044820152606490fd5b60405162461bcd60e51b8152602060048201526012602482015271129bda5b881dda5b991bddc818db1bdcd95960721b6044820152606490fd5b50610660600a5460085490611127565b421015610367565b634e487b7160e01b600052602160045260246000fd5b60405162461bcd60e51b815260206004820152600f60248201526e43616e6e6f74206a6f696e206e6f7760881b6044820152606490fd5b5050600060018214610355565b346101a75760003660031901126101a7576020600c54604051908152f35b346101a75760003660031901126101a757602061ffff60105416604051908152f35b346101a75760003660031901126101a75761071b611995565b61072361191b565b6006811015610668576108d75733600052600b60205260ff60016040600020015460201c16156108a55733600052600d602052604060002054600c54600019810190811161088f57610774906110b8565b905460039190911b1c6001600160a01b03166107b781610793846110b8565b81546001600160a01b0393841660039290921b91821b9390911b1916919091179055565b600052600d602052604060002055600c54801561087957600019016107db816110b8565b81549060018060a01b039060031b1b19169055600c5533600052600d6020526000604081205560065461081081601154611201565b60115533600052601260205261082c6040600020918254611127565b905533600052600b602052600060016040822082815501556006546040519081527f7fcf532c15f0a6db0bd6d0e038bea71d30d808c7d98cb3bf7268a95bf5081b6560203392a260018055005b634e487b7160e01b600052603160045260246000fd5b634e487b7160e01b600052601160045260246000fd5b60405162461bcd60e51b815260206004820152600a602482015269139bdd081a9bda5b995960b21b6044820152606490fd5b60405162461bcd60e51b815260206004820152601060248201526f43616e6e6f74206c65617665206e6f7760801b6044820152606490fd5b346101a75760003660031901126101a7576020600a54604051908152f35b346101a75760003660031901126101a757610946611995565b6104c46114d2565b346101a75760003660031901126101a7576020600754604051908152f35b346101a75760003660031901126101a7576000546040516001600160a01b039091168152602090f35b346101a75760003660031901126101a757604051806020600c5492838152018092600c60005260206000209060005b818110610a2657505050816109da910382611105565b6040519182916020830190602084525180915260408301919060005b818110610a04575050500390f35b82516001600160a01b03168452859450602093840193909201916001016109f6565b82546001600160a01b03168452602090930192600192830192016109c4565b346101a75760003660031901126101a7576020600554604051908152f35b346101a75760003660031901126101a7576020601154604051908152f35b346101a75760003660031901126101a757610a9a6119b7565b600080546001600160a01b0319811682556001600160a01b03167f8be0079c531659141344cd1fd0a4f28419497f9722a3daafe3b4186f6b6457e08280a3005b346101a75760003660031901126101a7576020600454604051908152f35b346101a75760203660031901126101a757610b11611995565b610b1961191b565b600681101561066857600203610c015733600052600b60205260406000206001810190815460ff8160201c1615610bcd5760ff8160101c16610b945760043590915562ff0000191662010000179055337f2245d2014b9bc41d5ccc6707edcba84a49b93b49441335f266a3e83b4e6330fd600080a260018055005b60405162461bcd60e51b8152602060048201526011602482015270105b1c9958591e4818dbdb5b5a5d1d1959607a1b6044820152606490fd5b60405162461bcd60e51b815260206004820152600c60248201526b2737ba103090383630bcb2b960a11b6044820152606490fd5b60405162461bcd60e51b815260206004820152601060248201526f4e6f7420636f6d6d697420706861736560801b6044820152606490fd5b346101a75760003660031901126101a7576020600354604051908152f35b346101a75760003660031901126101a75760a0610c7261120e565b60806040519161ffff815116835261ffff6020820151166020840152600180851b0360408201511660408401526060810151606084015201516080820152f35b346101a75760003660031901126101a757610ccb611995565b3360005260126020526040600020548015610da55733600052601260205260006040812055600080808084335af13d15610da0573d67ffffffffffffffff811161055e5760405190610d27601f8201601f191660200183611105565b8152600060203d92013e5b15610d69576040519081527f7fcf532c15f0a6db0bd6d0e038bea71d30d808c7d98cb3bf7268a95bf5081b6560203392a260018055005b60405162461bcd60e51b815260206004820152600f60248201526e151c985b9cd9995c8819985a5b1959608a1b6044820152606490fd5b610d32565b60405162461bcd60e51b81526020600482015260146024820152734e6f2066756e647320746f20776974686472617760601b6044820152606490fd5b346101a75760003660031901126101a7576020600254604051908152f35b346101a75760403660031901126101a757600435610e1b611995565b610e2361191b565b600681101561066857600303610fad5733600052600b60205260406000206001810190815460ff8160201c1680610fa0575b15610f695760181c60ff16610f31576040516020810190848252602435604082015260408152610e86606082611105565b519020905403610efb57805463ff00ffff191661ffff8316176301000000179055600e54610eb5908290611127565b600e55600f546001810180911161088f57600f556040519081527f54e8949e94ed0014d3a5385209b286177ba08c3416d2ee667a54f0341c46dd1d60203392a260018055005b60405162461bcd60e51b815260206004820152600e60248201526d125b9d985b1a59081c995d99585b60921b6044820152606490fd5b60405162461bcd60e51b815260206004820152601060248201526f105b1c9958591e481c995d99585b195960821b6044820152606490fd5b60405162461bcd60e51b815260206004820152600f60248201526e139bc818dbdb5b5a5d08199bdd5b99608a1b6044820152606490fd5b5060ff8160101c16610e55565b60405162461bcd60e51b815260206004820152601060248201526f4e6f742072657665616c20706861736560801b6044820152606490fd5b346101a75760203660031901126101a757600435600c548110156101a75761100e6020916110b8565b905460405160039290921b1c6001600160a01b03168152f35b346101a75760003660031901126101a757602061ffff60105460101c16604051908152f35b346101a75760003660031901126101a7576020600854604051908152f35b346101a75760003660031901126101a7576020600654604051908152f35b346101a75760003660031901126101a7578061026160ff60095416825b9190602083019260068210156106685752565b600c548110156110d357600c60005260206000200190600090565b634e487b7160e01b600052603260045260246000fd5b60a0810190811067ffffffffffffffff82111761055e57604052565b90601f8019910116810190811067ffffffffffffffff82111761055e57604052565b9190820180921161088f57565b600019811461088f5760010190565b811561114d570490565b634e487b7160e01b600052601260045260246000fd5b8181029291811591840414171561088f57565b67ffffffffffffffff811161055e5760051b60200190565b9061119882611176565b6111a56040519182611105565b82815280926111b6601f1991611176565b0190602036910137565b9061ffff8091169116039061ffff821161088f57565b8051156110d35760200190565b80518210156110d35760209160051b010190565b811561114d570690565b9190820391821161088f57565b60405161121a816110e9565b600080825260208201818152604083018281526060840183815260808501848152600c54938593879391855b8781106114715750871561144a5750505050508261126391611143565b6201fffe61ffff82169182865260011b16908082046002149015171561088f576003900461ffff16602084018190529091600019906112a19061118e565b926000926000925b82841061136457505050506001810361130057506001600160a01b03906112cf906111d6565b511660408201525b6011546112f360646112eb60075484611163565b048092611201565b6060830152608082015290565b9061135890611352604051936020850161133e866113308444428691606093918352602083015260408201520190565b03601f198101885287611105565b94519094206001600160a01b0394906111f7565b906111e3565b511660408201526112d7565b90919293611371856110b8565b60018060a01b0391549060031b1c16600052600b60205260016040600020015460ff8160181c161561143d5761ffff908116848082111561142e576113b5916111c0565b1691808310156113f15750509060016113cd856110b8565b828060a01b0391549060031b1c169481956113e7886111d6565b525b0192916112a9565b9291948360019296036113e957611407816110b8565b838060a01b0391549060031b1c1661142861142188611134565b97896111e3565b526113e9565b90611438916111c0565b6113b5565b50936001909291926113e9565b60008086529081905280546001600160a01b03169091526011549091529052949350505050565b61147a816110b8565b60018060a01b0391549060031b1c16600052600b60205260016040600020015460ff8160181c166114af575b50600101611246565b6114c56001929a9861ffff6114cb931690611127565b97611134565b98906114a6565b6114da61191b565b60068110156106685760040361185d57600e54600f549081156117aa578161150191611143565b60105461ffff8216929160011b6201fffe168315600285830414171561088f57600390049163ffff000061ffff84169360101b16808563ffffffff198516171760105561155061ffff9261118e565b91600090600c549082905b8282106116e057505050918593917fcdc4afcdc6daf8ff210712ce89721e9b20a1f38920663854ea898dab74433e7e968460016080989614600014611678575050506115a791506111d6565b5160108054640100000000600160c01b03191660209290921b640100000000600160c01b03169190911790555b601154906115f160646115e960075485611163565b048093611201565b9160018060a01b036000541660005260126020526116156040600020918254611127565b905560018060a01b0360105460201c166000526012602052604060002061163d838254611127565b9055611651600560ff196009541617600955565b60018060a01b0360105460201c1690604051938452602084015260408301526060820152a1565b9091926116c29061135260405193602085016116aa866113308444428691606093918352602083015260408201520190565b9451909420640100000000600160c01b0394906111f7565b5160201b169267ffffffffffffffff60c01b161717176010556115d4565b6116e9826110b8565b60018060a01b0391549060031b1c169384600052600b60205260016040600020015460ff8160181c161561179e5761ffff16898082111561178e5761172d916111c0565b915b61ffff811661ffff841681811060001461175f5750505050600190918194611756886111d6565b525b019061155b565b60019450969194929614611774575b50611758565b61178761178087611134565b96896111e3565b523861176e565b90611798916111c0565b9161172f565b50935090600190611758565b5050601154600080546001600160a01b03168152601260205260409020805490916117d491611127565b9055600054601080546001600160c01b03191660209290921b640100000000600160c01b03169190911790556009805460ff191660051790557fcdc4afcdc6daf8ff210712ce89721e9b20a1f38920663854ea898dab74433e7e608060018060a01b0360105460201c1660115460405191600083526000602084015260408301526060820152a1565b60405162461bcd60e51b815260206004820152600f60248201526e4e6f742066696e616c697a61626c6560881b6044820152606490fd5b600c5460025411611916576118ae600a5460085490611127565b6118ba60045482611127565b906118c760055483611127565b918142106000146118e257506118df91504290611201565b90565b80915042106000146118fa576118df91504290611201565b50804210600014611910576118df904290611201565b50600090565b600090565b60ff6009541660068110156106685760051461199057600c54600254116119165761194b600a5460085490611127565b61195760045482611127565b61196360055482611127565b91421015611972575050600190565b42101561197f5750600290565b42101561198b57600390565b600490565b600590565b6002600154146119a6576002600155565b633ee5aeb560e01b60005260046000fd5b6000546001600160a01b031633036119cb57565b63118cdaa760e01b6000523360045260246000fdfea26469706673582212206136b9200501b6310e33e4e3da1dc45351757f0a1f328d2855912e83e517d40064736f6c634300081c0033","opcodes":"PUSH1 0x80 CALLVALUE PUSH2 0x258 JUMPI PUSH1 0x1F PUSH2 0x1C8A CODESIZE DUP2 SWAP1 SUB SWAP2 DUP3 ADD PUSH1 0x1F NOT AND DUP4 ADD SWAP2 PUSH1 0x1 PUSH1 0x1 PUSH1 0x40 SHL SUB DUP4 GT DUP5 DUP5 LT OR PUSH2 0x25D JUMPI DUP1 DUP5 SWAP3 PUSH1 0xE0 SWAP5 PUSH1 0x40 MSTORE DUP4 CODECOPY DUP2 ADD SUB SLT PUSH2 0x258 JUMPI DUP1 MLOAD SWAP1 PUSH1 0x20 DUP2 ADD MLOAD PUSH1 0x40 DUP3 ADD MLOAD PUSH1 0x60 DUP4 ADD MLOAD SWAP1 PUSH1 0x80 DUP5 ADD MLOAD SWAP3 PUSH1 0xC0 PUSH1 0xA0 DUP7 ADD MLOAD SWAP6 ADD MLOAD SWAP6 CALLER ISZERO PUSH2 0x242 JUMPI PUSH1 0x0 DUP1 SLOAD CALLER PUSH1 0x1 PUSH1 0x1 PUSH1 0xA0 SHL SUB NOT DUP3 AND DUP2 OR DUP4 SSTORE PUSH1 0x40 MLOAD SWAP3 SWAP1 SWAP2 PUSH1 0x1 PUSH1 0x1 PUSH1 0xA0 SHL SUB AND SWAP1 PUSH32 0x8BE0079C531659141344CD1FD0A4F28419497F9722A3DAAFE3B4186F6B6457E0 SWAP1 DUP1 LOG3 PUSH1 0x1 DUP1 SSTORE PUSH1 0x3 DUP3 LT PUSH2 0x20D JUMPI POP DUP1 DUP3 GT ISZERO PUSH2 0x1DC JUMPI DUP3 ISZERO PUSH2 0x1A6 JUMPI DUP4 ISZERO PUSH2 0x170 JUMPI DUP7 ISZERO PUSH2 0x13F JUMPI PUSH1 0x14 DUP7 GT PUSH2 0x10D JUMPI PUSH1 0x2 SSTORE PUSH1 0x3 SSTORE PUSH1 0x4 SSTORE PUSH1 0x5 SSTORE PUSH1 0x6 SSTORE PUSH1 0x7 SSTORE PUSH1 0x8 SSTORE PUSH1 0xFF NOT PUSH1 0x9 SLOAD AND PUSH1 0x9 SSTORE PUSH1 0x40 MLOAD PUSH2 0x1A16 SWAP1 DUP2 PUSH2 0x274 DUP3 CODECOPY RETURN JUMPDEST PUSH1 0x40 MLOAD PUSH3 0x461BCD PUSH1 0xE5 SHL DUP2 MSTORE PUSH1 0x20 PUSH1 0x4 DUP3 ADD MSTORE PUSH1 0xA PUSH1 0x24 DUP3 ADD MSTORE PUSH10 0x466565203C3D20323025 PUSH1 0xB0 SHL PUSH1 0x44 DUP3 ADD MSTORE PUSH1 0x64 SWAP1 REVERT JUMPDEST PUSH1 0x40 MLOAD PUSH3 0x461BCD PUSH1 0xE5 SHL DUP2 MSTORE PUSH1 0x20 PUSH1 0x4 DUP3 ADD MSTORE PUSH1 0x9 PUSH1 0x24 DUP3 ADD MSTORE PUSH9 0x44656C6179203E203 PUSH1 0xBC SHL PUSH1 0x44 DUP3 ADD MSTORE PUSH1 0x64 SWAP1 REVERT JUMPDEST PUSH1 0x40 MLOAD PUSH3 0x461BCD PUSH1 0xE5 SHL DUP2 MSTORE PUSH1 0x20 PUSH1 0x4 DUP3 ADD MSTORE PUSH1 0xE PUSH1 0x24 DUP3 ADD MSTORE PUSH14 0x52657665616C20647572203E203 PUSH1 0x94 SHL PUSH1 0x44 DUP3 ADD MSTORE PUSH1 0x64 SWAP1 REVERT JUMPDEST PUSH1 0x40 MLOAD PUSH3 0x461BCD PUSH1 0xE5 SHL DUP2 MSTORE PUSH1 0x20 PUSH1 0x4 DUP3 ADD MSTORE PUSH1 0xE PUSH1 0x24 DUP3 ADD MSTORE PUSH14 0x436F6D6D697420647572203E203 PUSH1 0x94 SHL PUSH1 0x44 DUP3 ADD MSTORE PUSH1 0x64 SWAP1 REVERT JUMPDEST PUSH1 0x40 MLOAD PUSH3 0x461BCD PUSH1 0xE5 SHL DUP2 MSTORE PUSH1 0x20 PUSH1 0x4 DUP3 ADD MSTORE PUSH1 0x9 PUSH1 0x24 DUP3 ADD MSTORE PUSH9 0x26B0BC101F1036B4B7 PUSH1 0xB9 SHL PUSH1 0x44 DUP3 ADD MSTORE PUSH1 0x64 SWAP1 REVERT JUMPDEST PUSH3 0x461BCD PUSH1 0xE5 SHL DUP2 MSTORE PUSH1 0x20 PUSH1 0x4 DUP3 ADD MSTORE PUSH1 0x10 PUSH1 0x24 DUP3 ADD MSTORE PUSH16 0x4D696E20706C6179657273203E3D2033 PUSH1 0x80 SHL PUSH1 0x44 DUP3 ADD MSTORE PUSH1 0x64 SWAP1 REVERT JUMPDEST PUSH4 0x1E4FBDF7 PUSH1 0xE0 SHL PUSH1 0x0 MSTORE PUSH1 0x0 PUSH1 0x4 MSTORE PUSH1 0x24 PUSH1 0x0 REVERT JUMPDEST PUSH1 0x0 DUP1 REVERT JUMPDEST PUSH4 0x4E487B71 PUSH1 0xE0 SHL PUSH1 0x0 MSTORE PUSH1 0x41 PUSH1 0x4 MSTORE PUSH1 0x24 PUSH1 0x0 REVERT INVALID PUSH1 0x80 DUP1 PUSH1 0x40 MSTORE PUSH1 0x4 CALLDATASIZE LT ISZERO PUSH2 0x13 JUMPI PUSH1 0x0 DUP1 REVERT JUMPDEST PUSH1 0x0 CALLDATALOAD PUSH1 0xE0 SHR SWAP1 DUP2 PUSH4 0x55AD42E EQ PUSH2 0x1088 JUMPI POP DUP1 PUSH4 0x72EA61C EQ PUSH2 0x106A JUMPI DUP1 PUSH4 0x7F6AEE8 EQ PUSH2 0x104C JUMPI DUP1 PUSH4 0xA4A922E EQ PUSH2 0x1027 JUMPI DUP1 PUSH4 0x15C6AEE2 EQ PUSH2 0xFE5 JUMPI DUP1 PUSH4 0x180C18C3 EQ PUSH2 0xDFF JUMPI DUP1 PUSH4 0x2770C895 EQ PUSH2 0xDE1 JUMPI DUP1 PUSH4 0x3CCFD60B EQ PUSH2 0xCB2 JUMPI DUP1 PUSH4 0x4717F97C EQ PUSH2 0xC57 JUMPI DUP1 PUSH4 0x4C2412A2 EQ PUSH2 0xC39 JUMPI DUP1 PUSH4 0x608A5D95 EQ PUSH2 0xAF8 JUMPI DUP1 PUSH4 0x6F833811 EQ PUSH2 0xADA JUMPI DUP1 PUSH4 0x715018A6 EQ PUSH2 0xA81 JUMPI DUP1 PUSH4 0x719CE73E EQ PUSH2 0xA63 JUMPI DUP1 PUSH4 0x886A6DE1 EQ PUSH2 0xA45 JUMPI DUP1 PUSH4 0x8B5B9CCC EQ PUSH2 0x995 JUMPI DUP1 PUSH4 0x8DA5CB5B EQ PUSH2 0x96C JUMPI DUP1 PUSH4 0x995BC51E EQ PUSH2 0x94E JUMPI DUP1 PUSH4 0xB03B2030 EQ PUSH2 0x92D JUMPI DUP1 PUSH4 0xB07DDF8A EQ PUSH2 0x90F JUMPI DUP1 PUSH4 0xB1501F9C EQ PUSH2 0x702 JUMPI DUP1 PUSH4 0xB250717A EQ PUSH2 0x6E0 JUMPI DUP1 PUSH4 0xC2E52206 EQ PUSH2 0x6C2 JUMPI DUP1 PUSH4 0xD4F77B1C EQ PUSH2 0x326 JUMPI DUP1 PUSH4 0xDAC6270D EQ PUSH2 0x303 JUMPI DUP1 PUSH4 0xDFBF53AE EQ PUSH2 0x2DA JUMPI DUP1 PUSH4 0xE2EB41FF EQ PUSH2 0x265 JUMPI DUP1 PUSH4 0xECED0280 EQ PUSH2 0x239 JUMPI DUP1 PUSH4 0xF2FDE38B EQ PUSH2 0x1AC JUMPI PUSH4 0xF3F43703 EQ PUSH2 0x169 JUMPI PUSH1 0x0 DUP1 REVERT JUMPDEST CALLVALUE PUSH2 0x1A7 JUMPI PUSH1 0x20 CALLDATASIZE PUSH1 0x3 NOT ADD SLT PUSH2 0x1A7 JUMPI PUSH1 0x4 CALLDATALOAD PUSH1 0x1 PUSH1 0x1 PUSH1 0xA0 SHL SUB DUP2 AND SWAP1 DUP2 SWAP1 SUB PUSH2 0x1A7 JUMPI PUSH1 0x0 MSTORE PUSH1 0x12 PUSH1 0x20 MSTORE PUSH1 0x20 PUSH1 0x40 PUSH1 0x0 KECCAK256 SLOAD PUSH1 0x40 MLOAD SWAP1 DUP2 MSTORE RETURN JUMPDEST PUSH1 0x0 DUP1 REVERT JUMPDEST CALLVALUE PUSH2 0x1A7 JUMPI PUSH1 0x20 CALLDATASIZE PUSH1 0x3 NOT ADD SLT PUSH2 0x1A7 JUMPI PUSH1 0x4 CALLDATALOAD PUSH1 0x1 PUSH1 0x1 PUSH1 0xA0 SHL SUB DUP2 AND SWAP1 DUP2 SWAP1 SUB PUSH2 0x1A7 JUMPI PUSH2 0x1DA PUSH2 0x19B7 JUMP JUMPDEST DUP1 ISZERO PUSH2 0x223 JUMPI PUSH1 0x0 DUP1 SLOAD PUSH1 0x1 PUSH1 0x1 PUSH1 0xA0 SHL SUB NOT DUP2 AND DUP4 OR DUP3 SSTORE PUSH1 0x1 PUSH1 0x1 PUSH1 0xA0 SHL SUB AND SWAP1 PUSH32 0x8BE0079C531659141344CD1FD0A4F28419497F9722A3DAAFE3B4186F6B6457E0 SWAP1 DUP1 LOG3 STOP JUMPDEST PUSH4 0x1E4FBDF7 PUSH1 0xE0 SHL PUSH1 0x0 MSTORE PUSH1 0x0 PUSH1 0x4 MSTORE PUSH1 0x24 PUSH1 0x0 REVERT JUMPDEST CALLVALUE PUSH2 0x1A7 JUMPI PUSH1 0x0 CALLDATASIZE PUSH1 0x3 NOT ADD SLT PUSH2 0x1A7 JUMPI PUSH2 0x261 PUSH2 0x255 PUSH2 0x191B JUMP JUMPDEST PUSH1 0x40 MLOAD SWAP2 DUP3 SWAP2 DUP3 PUSH2 0x10A5 JUMP JUMPDEST SUB SWAP1 RETURN JUMPDEST CALLVALUE PUSH2 0x1A7 JUMPI PUSH1 0x20 CALLDATASIZE PUSH1 0x3 NOT ADD SLT PUSH2 0x1A7 JUMPI PUSH1 0x4 CALLDATALOAD PUSH1 0x1 PUSH1 0x1 PUSH1 0xA0 SHL SUB DUP2 AND SWAP1 DUP2 SWAP1 SUB PUSH2 0x1A7 JUMPI PUSH1 0x0 MSTORE PUSH1 0xB PUSH1 0x20 MSTORE PUSH1 0xA0 PUSH1 0x40 PUSH1 0x0 KECCAK256 PUSH1 0xFF PUSH1 0x1 DUP3 SLOAD SWAP3 ADD SLOAD PUSH1 0x40 MLOAD SWAP3 DUP4 MSTORE PUSH2 0xFFFF DUP2 AND PUSH1 0x20 DUP5 ADD MSTORE DUP2 DUP2 PUSH1 0x10 SHR AND ISZERO ISZERO PUSH1 0x40 DUP5 ADD MSTORE DUP2 DUP2 PUSH1 0x18 SHR AND ISZERO ISZERO PUSH1 0x60 DUP5 ADD MSTORE PUSH1 0x20 SHR AND ISZERO ISZERO PUSH1 0x80 DUP3 ADD MSTORE RETURN JUMPDEST CALLVALUE PUSH2 0x1A7 JUMPI PUSH1 0x0 CALLDATASIZE PUSH1 0x3 NOT ADD SLT PUSH2 0x1A7 JUMPI PUSH1 0x10 SLOAD PUSH1 0x40 MLOAD PUSH1 0x20 SWAP2 DUP3 SHR PUSH1 0x1 PUSH1 0x1 PUSH1 0xA0 SHL SUB AND DUP2 MSTORE RETURN JUMPDEST CALLVALUE PUSH2 0x1A7 JUMPI PUSH1 0x0 CALLDATASIZE PUSH1 0x3 NOT ADD SLT PUSH2 0x1A7 JUMPI PUSH1 0x20 PUSH2 0x31E PUSH2 0x1894 JUMP JUMPDEST PUSH1 0x40 MLOAD SWAP1 DUP2 MSTORE RETURN JUMPDEST PUSH1 0x0 CALLDATASIZE PUSH1 0x3 NOT ADD SLT PUSH2 0x1A7 JUMPI PUSH2 0x33A PUSH2 0x1995 JUMP JUMPDEST PUSH2 0x342 PUSH2 0x191B JUMP JUMPDEST PUSH1 0x6 DUP2 LT ISZERO DUP1 PUSH2 0x668 JUMPI DUP2 ISZERO DUP1 ISZERO PUSH2 0x6B5 JUMPI JUMPDEST ISZERO PUSH2 0x67E JUMPI PUSH2 0x668 JUMPI PUSH1 0x1 EQ DUP1 PUSH2 0x650 JUMPI JUMPDEST PUSH2 0x616 JUMPI PUSH1 0xC SLOAD PUSH1 0x3 SLOAD GT ISZERO PUSH2 0x5E5 JUMPI CALLER PUSH1 0x0 MSTORE PUSH1 0xB PUSH1 0x20 MSTORE PUSH1 0xFF PUSH1 0x1 PUSH1 0x40 PUSH1 0x0 KECCAK256 ADD SLOAD PUSH1 0x20 SHR AND PUSH2 0x5AF JUMPI PUSH1 0x6 SLOAD CALLVALUE SUB PUSH2 0x574 JUMPI PUSH1 0x40 MLOAD PUSH2 0x3A8 DUP2 PUSH2 0x10E9 JUMP JUMPDEST PUSH1 0x0 DUP1 DUP3 MSTORE PUSH1 0x20 DUP1 DUP4 ADD DUP3 DUP2 MSTORE PUSH1 0x40 DUP1 DUP6 ADD DUP5 DUP2 MSTORE PUSH1 0x60 DUP7 ADD DUP6 DUP2 MSTORE PUSH1 0x1 PUSH1 0x80 DUP9 ADD DUP2 DUP2 MSTORE CALLER DUP9 MSTORE PUSH1 0xB DUP8 MSTORE DUP5 DUP9 KECCAK256 SWAP9 MLOAD DUP10 SSTORE SWAP5 MLOAD SWAP8 ADD DUP1 SLOAD SWAP3 MLOAD SWAP2 MLOAD SWAP5 MLOAD PUSH5 0xFFFFFFFFFF NOT SWAP1 SWAP4 AND PUSH2 0xFFFF SWAP9 SWAP1 SWAP9 AND SWAP8 SWAP1 SWAP8 OR SWAP1 ISZERO ISZERO PUSH1 0x10 SHL PUSH3 0xFF0000 AND OR SWAP3 ISZERO ISZERO PUSH1 0x18 SHL PUSH4 0xFF000000 AND SWAP3 SWAP1 SWAP3 OR SWAP2 ISZERO ISZERO DUP4 SHL PUSH5 0xFF00000000 AND SWAP2 SWAP1 SWAP2 OR SWAP1 SWAP4 SSTORE PUSH1 0xC SLOAD PUSH1 0xD SWAP1 SWAP2 MSTORE SWAP2 SWAP1 KECCAK256 DUP2 SWAP1 SSTORE PUSH1 0x1 PUSH1 0x40 SHL DUP2 LT ISZERO PUSH2 0x55E JUMPI PUSH2 0x458 DUP2 PUSH1 0x1 PUSH2 0x476 SWAP4 ADD PUSH1 0xC SSTORE PUSH2 0x10B8 JUMP JUMPDEST DUP2 SLOAD PUSH1 0x1 PUSH1 0x1 PUSH1 0xA0 SHL SUB PUSH1 0x3 SWAP3 SWAP1 SWAP3 SHL SWAP2 DUP3 SHL NOT AND CALLER SWAP1 SWAP2 SHL OR SWAP1 SSTORE JUMP JUMPDEST PUSH2 0x482 CALLVALUE PUSH1 0x11 SLOAD PUSH2 0x1127 JUMP JUMPDEST PUSH1 0x11 SSTORE PUSH1 0x40 MLOAD CALLVALUE DUP2 MSTORE PUSH32 0x3330A6773675F31F62070870F40379F8C6D42E3761410011A4DFC42B18043D2F PUSH1 0x20 CALLER SWAP3 LOG2 PUSH1 0xC SLOAD PUSH1 0x2 SLOAD GT ISZERO DUP1 PUSH2 0x554 JUMPI JUMPDEST PUSH2 0x4CA JUMPI JUMPDEST PUSH1 0x1 DUP1 SSTORE STOP JUMPDEST TIMESTAMP PUSH1 0xA SSTORE PUSH1 0x1 PUSH1 0xFF NOT PUSH1 0x9 SLOAD AND OR PUSH1 0x9 SSTORE PUSH32 0xF2546DE66F180061EE75953FE1999FC0475DAEF64D87E75AD834022B57031D2F PUSH1 0xC0 PUSH1 0xA SLOAD PUSH1 0x8 SLOAD PUSH2 0x524 PUSH2 0x51B PUSH2 0x514 DUP4 DUP6 PUSH2 0x1127 JUMP JUMPDEST SWAP3 DUP5 PUSH2 0x1127 JUMP JUMPDEST PUSH1 0x4 SLOAD SWAP1 PUSH2 0x1127 JUMP JUMPDEST PUSH1 0x6 SLOAD PUSH1 0x2 SLOAD SWAP2 PUSH1 0x3 SLOAD SWAP4 PUSH1 0x40 MLOAD SWAP6 DUP7 MSTORE PUSH1 0x20 DUP7 ADD MSTORE PUSH1 0x40 DUP6 ADD MSTORE PUSH1 0x60 DUP5 ADD MSTORE PUSH1 0x80 DUP4 ADD MSTORE PUSH1 0xA0 DUP3 ADD MSTORE LOG1 PUSH2 0x4C4 JUMP JUMPDEST POP PUSH1 0xA SLOAD ISZERO PUSH2 0x4BF JUMP JUMPDEST PUSH4 0x4E487B71 PUSH1 0xE0 SHL PUSH1 0x0 MSTORE PUSH1 0x41 PUSH1 0x4 MSTORE PUSH1 0x24 PUSH1 0x0 REVERT JUMPDEST PUSH1 0x40 MLOAD PUSH3 0x461BCD PUSH1 0xE5 SHL DUP2 MSTORE PUSH1 0x20 PUSH1 0x4 DUP3 ADD MSTORE PUSH1 0x13 PUSH1 0x24 DUP3 ADD MSTORE PUSH19 0x496E636F727265637420656E74727920666565 PUSH1 0x68 SHL PUSH1 0x44 DUP3 ADD MSTORE PUSH1 0x64 SWAP1 REVERT JUMPDEST PUSH1 0x40 MLOAD PUSH3 0x461BCD PUSH1 0xE5 SHL DUP2 MSTORE PUSH1 0x20 PUSH1 0x4 DUP3 ADD MSTORE PUSH1 0xE PUSH1 0x24 DUP3 ADD MSTORE PUSH14 0x105B1C9958591E481A9BDA5B9959 PUSH1 0x92 SHL PUSH1 0x44 DUP3 ADD MSTORE PUSH1 0x64 SWAP1 REVERT JUMPDEST PUSH1 0x40 MLOAD PUSH3 0x461BCD PUSH1 0xE5 SHL DUP2 MSTORE PUSH1 0x20 PUSH1 0x4 DUP3 ADD MSTORE PUSH1 0x9 PUSH1 0x24 DUP3 ADD MSTORE PUSH9 0x11D85B5948199D5B1B PUSH1 0xBA SHL PUSH1 0x44 DUP3 ADD MSTORE PUSH1 0x64 SWAP1 REVERT JUMPDEST PUSH1 0x40 MLOAD PUSH3 0x461BCD PUSH1 0xE5 SHL DUP2 MSTORE PUSH1 0x20 PUSH1 0x4 DUP3 ADD MSTORE PUSH1 0x12 PUSH1 0x24 DUP3 ADD MSTORE PUSH18 0x129BDA5B881DDA5B991BDDC818DB1BDCD959 PUSH1 0x72 SHL PUSH1 0x44 DUP3 ADD MSTORE PUSH1 0x64 SWAP1 REVERT JUMPDEST POP PUSH2 0x660 PUSH1 0xA SLOAD PUSH1 0x8 SLOAD SWAP1 PUSH2 0x1127 JUMP JUMPDEST TIMESTAMP LT ISZERO PUSH2 0x367 JUMP JUMPDEST PUSH4 0x4E487B71 PUSH1 0xE0 SHL PUSH1 0x0 MSTORE PUSH1 0x21 PUSH1 0x4 MSTORE PUSH1 0x24 PUSH1 0x0 REVERT JUMPDEST PUSH1 0x40 MLOAD PUSH3 0x461BCD PUSH1 0xE5 SHL DUP2 MSTORE PUSH1 0x20 PUSH1 0x4 DUP3 ADD MSTORE PUSH1 0xF PUSH1 0x24 DUP3 ADD MSTORE PUSH15 0x43616E6E6F74206A6F696E206E6F77 PUSH1 0x88 SHL PUSH1 0x44 DUP3 ADD MSTORE PUSH1 0x64 SWAP1 REVERT JUMPDEST POP POP PUSH1 0x0 PUSH1 0x1 DUP3 EQ PUSH2 0x355 JUMP JUMPDEST CALLVALUE PUSH2 0x1A7 JUMPI PUSH1 0x0 CALLDATASIZE PUSH1 0x3 NOT ADD SLT PUSH2 0x1A7 JUMPI PUSH1 0x20 PUSH1 0xC SLOAD PUSH1 0x40 MLOAD SWAP1 DUP2 MSTORE RETURN JUMPDEST CALLVALUE PUSH2 0x1A7 JUMPI PUSH1 0x0 CALLDATASIZE PUSH1 0x3 NOT ADD SLT PUSH2 0x1A7 JUMPI PUSH1 0x20 PUSH2 0xFFFF PUSH1 0x10 SLOAD AND PUSH1 0x40 MLOAD SWAP1 DUP2 MSTORE RETURN JUMPDEST CALLVALUE PUSH2 0x1A7 JUMPI PUSH1 0x0 CALLDATASIZE PUSH1 0x3 NOT ADD SLT PUSH2 0x1A7 JUMPI PUSH2 0x71B PUSH2 0x1995 JUMP JUMPDEST PUSH2 0x723 PUSH2 0x191B JUMP JUMPDEST PUSH1 0x6 DUP2 LT ISZERO PUSH2 0x668 JUMPI PUSH2 0x8D7 JUMPI CALLER PUSH1 0x0 MSTORE PUSH1 0xB PUSH1 0x20 MSTORE PUSH1 0xFF PUSH1 0x1 PUSH1 0x40 PUSH1 0x0 KECCAK256 ADD SLOAD PUSH1 0x20 SHR AND ISZERO PUSH2 0x8A5 JUMPI CALLER PUSH1 0x0 MSTORE PUSH1 0xD PUSH1 0x20 MSTORE PUSH1 0x40 PUSH1 0x0 KECCAK256 SLOAD PUSH1 0xC SLOAD PUSH1 0x0 NOT DUP2 ADD SWAP1 DUP2 GT PUSH2 0x88F JUMPI PUSH2 0x774 SWAP1 PUSH2 0x10B8 JUMP JUMPDEST SWAP1 SLOAD PUSH1 0x3 SWAP2 SWAP1 SWAP2 SHL SHR PUSH1 0x1 PUSH1 0x1 PUSH1 0xA0 SHL SUB AND PUSH2 0x7B7 DUP2 PUSH2 0x793 DUP5 PUSH2 0x10B8 JUMP JUMPDEST DUP2 SLOAD PUSH1 0x1 PUSH1 0x1 PUSH1 0xA0 SHL SUB SWAP4 DUP5 AND PUSH1 0x3 SWAP3 SWAP1 SWAP3 SHL SWAP2 DUP3 SHL SWAP4 SWAP1 SWAP2 SHL NOT AND SWAP2 SWAP1 SWAP2 OR SWAP1 SSTORE JUMP JUMPDEST PUSH1 0x0 MSTORE PUSH1 0xD PUSH1 0x20 MSTORE PUSH1 0x40 PUSH1 0x0 KECCAK256 SSTORE PUSH1 0xC SLOAD DUP1 ISZERO PUSH2 0x879 JUMPI PUSH1 0x0 NOT ADD PUSH2 0x7DB DUP2 PUSH2 0x10B8 JUMP JUMPDEST DUP2 SLOAD SWAP1 PUSH1 0x1 DUP1 PUSH1 0xA0 SHL SUB SWAP1 PUSH1 0x3 SHL SHL NOT AND SWAP1 SSTORE PUSH1 0xC SSTORE CALLER PUSH1 0x0 MSTORE PUSH1 0xD PUSH1 0x20 MSTORE PUSH1 0x0 PUSH1 0x40 DUP2 KECCAK256 SSTORE PUSH1 0x6 SLOAD PUSH2 0x810 DUP2 PUSH1 0x11 SLOAD PUSH2 0x1201 JUMP JUMPDEST PUSH1 0x11 SSTORE CALLER PUSH1 0x0 MSTORE PUSH1 0x12 PUSH1 0x20 MSTORE PUSH2 0x82C PUSH1 0x40 PUSH1 0x0 KECCAK256 SWAP2 DUP3 SLOAD PUSH2 0x1127 JUMP JUMPDEST SWAP1 SSTORE CALLER PUSH1 0x0 MSTORE PUSH1 0xB PUSH1 0x20 MSTORE PUSH1 0x0 PUSH1 0x1 PUSH1 0x40 DUP3 KECCAK256 DUP3 DUP2 SSTORE ADD SSTORE PUSH1 0x6 SLOAD PUSH1 0x40 MLOAD SWAP1 DUP2 MSTORE PUSH32 0x7FCF532C15F0A6DB0BD6D0E038BEA71D30D808C7D98CB3BF7268A95BF5081B65 PUSH1 0x20 CALLER SWAP3 LOG2 PUSH1 0x1 DUP1 SSTORE STOP JUMPDEST PUSH4 0x4E487B71 PUSH1 0xE0 SHL PUSH1 0x0 MSTORE PUSH1 0x31 PUSH1 0x4 MSTORE PUSH1 0x24 PUSH1 0x0 REVERT JUMPDEST PUSH4 0x4E487B71 PUSH1 0xE0 SHL PUSH1 0x0 MSTORE PUSH1 0x11 PUSH1 0x4 MSTORE PUSH1 0x24 PUSH1 0x0 REVERT JUMPDEST PUSH1 0x40 MLOAD PUSH3 0x461BCD PUSH1 0xE5 SHL DUP2 MSTORE PUSH1 0x20 PUSH1 0x4 DUP3 ADD MSTORE PUSH1 0xA PUSH1 0x24 DUP3 ADD MSTORE PUSH10 0x139BDD081A9BDA5B9959 PUSH1 0xB2 SHL PUSH1 0x44 DUP3 ADD MSTORE PUSH1 0x64 SWAP1 REVERT JUMPDEST PUSH1 0x40 MLOAD PUSH3 0x461BCD PUSH1 0xE5 SHL DUP2 MSTORE PUSH1 0x20 PUSH1 0x4 DUP3 ADD MSTORE PUSH1 0x10 PUSH1 0x24 DUP3 ADD MSTORE PUSH16 0x43616E6E6F74206C65617665206E6F77 PUSH1 0x80 SHL PUSH1 0x44 DUP3 ADD MSTORE PUSH1 0x64 SWAP1 REVERT JUMPDEST CALLVALUE PUSH2 0x1A7 JUMPI PUSH1 0x0 CALLDATASIZE PUSH1 0x3 NOT ADD SLT PUSH2 0x1A7 JUMPI PUSH1 0x20 PUSH1 0xA SLOAD PUSH1 0x40 MLOAD SWAP1 DUP2 MSTORE RETURN JUMPDEST CALLVALUE PUSH2 0x1A7 JUMPI PUSH1 0x0 CALLDATASIZE PUSH1 0x3 NOT ADD SLT PUSH2 0x1A7 JUMPI PUSH2 0x946 PUSH2 0x1995 JUMP JUMPDEST PUSH2 0x4C4 PUSH2 0x14D2 JUMP JUMPDEST CALLVALUE PUSH2 0x1A7 JUMPI PUSH1 0x0 CALLDATASIZE PUSH1 0x3 NOT ADD SLT PUSH2 0x1A7 JUMPI PUSH1 0x20 PUSH1 0x7 SLOAD PUSH1 0x40 MLOAD SWAP1 DUP2 MSTORE RETURN JUMPDEST CALLVALUE PUSH2 0x1A7 JUMPI PUSH1 0x0 CALLDATASIZE PUSH1 0x3 NOT ADD SLT PUSH2 0x1A7 JUMPI PUSH1 0x0 SLOAD PUSH1 0x40 MLOAD PUSH1 0x1 PUSH1 0x1 PUSH1 0xA0 SHL SUB SWAP1 SWAP2 AND DUP2 MSTORE PUSH1 0x20 SWAP1 RETURN JUMPDEST CALLVALUE PUSH2 0x1A7 JUMPI PUSH1 0x0 CALLDATASIZE PUSH1 0x3 NOT ADD SLT PUSH2 0x1A7 JUMPI PUSH1 0x40 MLOAD DUP1 PUSH1 0x20 PUSH1 0xC SLOAD SWAP3 DUP4 DUP2 MSTORE ADD DUP1 SWAP3 PUSH1 0xC PUSH1 0x0 MSTORE PUSH1 0x20 PUSH1 0x0 KECCAK256 SWAP1 PUSH1 0x0 JUMPDEST DUP2 DUP2 LT PUSH2 0xA26 JUMPI POP POP POP DUP2 PUSH2 0x9DA SWAP2 SUB DUP3 PUSH2 0x1105 JUMP JUMPDEST PUSH1 0x40 MLOAD SWAP2 DUP3 SWAP2 PUSH1 0x20 DUP4 ADD SWAP1 PUSH1 0x20 DUP5 MSTORE MLOAD DUP1 SWAP2 MSTORE PUSH1 0x40 DUP4 ADD SWAP2 SWAP1 PUSH1 0x0 JUMPDEST DUP2 DUP2 LT PUSH2 0xA04 JUMPI POP POP POP SUB SWAP1 RETURN JUMPDEST DUP3 MLOAD PUSH1 0x1 PUSH1 0x1 PUSH1 0xA0 SHL SUB AND DUP5 MSTORE DUP6 SWAP5 POP PUSH1 0x20 SWAP4 DUP5 ADD SWAP4 SWAP1 SWAP3 ADD SWAP2 PUSH1 0x1 ADD PUSH2 0x9F6 JUMP JUMPDEST DUP3 SLOAD PUSH1 0x1 PUSH1 0x1 PUSH1 0xA0 SHL SUB AND DUP5 MSTORE PUSH1 0x20 SWAP1 SWAP4 ADD SWAP3 PUSH1 0x1 SWAP3 DUP4 ADD SWAP3 ADD PUSH2 0x9C4 JUMP JUMPDEST CALLVALUE PUSH2 0x1A7 JUMPI PUSH1 0x0 CALLDATASIZE PUSH1 0x3 NOT ADD SLT PUSH2 0x1A7 JUMPI PUSH1 0x20 PUSH1 0x5 SLOAD PUSH1 0x40 MLOAD SWAP1 DUP2 MSTORE RETURN JUMPDEST CALLVALUE PUSH2 0x1A7 JUMPI PUSH1 0x0 CALLDATASIZE PUSH1 0x3 NOT ADD SLT PUSH2 0x1A7 JUMPI PUSH1 0x20 PUSH1 0x11 SLOAD PUSH1 0x40 MLOAD SWAP1 DUP2 MSTORE RETURN JUMPDEST CALLVALUE PUSH2 0x1A7 JUMPI PUSH1 0x0 CALLDATASIZE PUSH1 0x3 NOT ADD SLT PUSH2 0x1A7 JUMPI PUSH2 0xA9A PUSH2 0x19B7 JUMP JUMPDEST PUSH1 0x0 DUP1 SLOAD PUSH1 0x1 PUSH1 0x1 PUSH1 0xA0 SHL SUB NOT DUP2 AND DUP3 SSTORE PUSH1 0x1 PUSH1 0x1 PUSH1 0xA0 SHL SUB AND PUSH32 0x8BE0079C531659141344CD1FD0A4F28419497F9722A3DAAFE3B4186F6B6457E0 DUP3 DUP1 LOG3 STOP JUMPDEST CALLVALUE PUSH2 0x1A7 JUMPI PUSH1 0x0 CALLDATASIZE PUSH1 0x3 NOT ADD SLT PUSH2 0x1A7 JUMPI PUSH1 0x20 PUSH1 0x4 SLOAD PUSH1 0x40 MLOAD SWAP1 DUP2 MSTORE RETURN JUMPDEST CALLVALUE PUSH2 0x1A7 JUMPI PUSH1 0x20 CALLDATASIZE PUSH1 0x3 NOT ADD SLT PUSH2 0x1A7 JUMPI PUSH2 0xB11 PUSH2 0x1995 JUMP JUMPDEST PUSH2 0xB19 PUSH2 0x191B JUMP JUMPDEST PUSH1 0x6 DUP2 LT ISZERO PUSH2 0x668 JUMPI PUSH1 0x2 SUB PUSH2 0xC01 JUMPI CALLER PUSH1 0x0 MSTORE PUSH1 0xB PUSH1 0x20 MSTORE PUSH1 0x40 PUSH1 0x0 KECCAK256 PUSH1 0x1 DUP2 ADD SWAP1 DUP2 SLOAD PUSH1 0xFF DUP2 PUSH1 0x20 SHR AND ISZERO PUSH2 0xBCD JUMPI PUSH1 0xFF DUP2 PUSH1 0x10 SHR AND PUSH2 0xB94 JUMPI PUSH1 0x4 CALLDATALOAD SWAP1 SWAP2 SSTORE PUSH3 0xFF0000 NOT AND PUSH3 0x10000 OR SWAP1 SSTORE CALLER PUSH32 0x2245D2014B9BC41D5CCC6707EDCBA84A49B93B49441335F266A3E83B4E6330FD PUSH1 0x0 DUP1 LOG2 PUSH1 0x1 DUP1 SSTORE STOP JUMPDEST PUSH1 0x40 MLOAD PUSH3 0x461BCD PUSH1 0xE5 SHL DUP2 MSTORE PUSH1 0x20 PUSH1 0x4 DUP3 ADD MSTORE PUSH1 0x11 PUSH1 0x24 DUP3 ADD MSTORE PUSH17 0x105B1C9958591E4818DBDB5B5A5D1D1959 PUSH1 0x7A SHL PUSH1 0x44 DUP3 ADD MSTORE PUSH1 0x64 SWAP1 REVERT JUMPDEST PUSH1 0x40 MLOAD PUSH3 0x461BCD PUSH1 0xE5 SHL DUP2 MSTORE PUSH1 0x20 PUSH1 0x4 DUP3 ADD MSTORE PUSH1 0xC PUSH1 0x24 DUP3 ADD MSTORE PUSH12 0x2737BA103090383630BCB2B9 PUSH1 0xA1 SHL PUSH1 0x44 DUP3 ADD MSTORE PUSH1 0x64 SWAP1 REVERT JUMPDEST PUSH1 0x40 MLOAD PUSH3 0x461BCD PUSH1 0xE5 SHL DUP2 MSTORE PUSH1 0x20 PUSH1 0x4 DUP3 ADD MSTORE PUSH1 0x10 PUSH1 0x24 DUP3 ADD MSTORE PUSH16 0x4E6F7420636F6D6D6974207068617365 PUSH1 0x80 SHL PUSH1 0x44 DUP3 ADD MSTORE PUSH1 0x64 SWAP1 REVERT JUMPDEST CALLVALUE PUSH2 0x1A7 JUMPI PUSH1 0x0 CALLDATASIZE PUSH1 0x3 NOT ADD SLT PUSH2 0x1A7 JUMPI PUSH1 0x20 PUSH1 0x3 SLOAD PUSH1 0x40 MLOAD SWAP1 DUP2 MSTORE RETURN JUMPDEST CALLVALUE PUSH2 0x1A7 JUMPI PUSH1 0x0 CALLDATASIZE PUSH1 0x3 NOT ADD SLT PUSH2 0x1A7 JUMPI PUSH1 0xA0 PUSH2 0xC72 PUSH2 0x120E JUMP JUMPDEST PUSH1 0x80 PUSH1 0x40 MLOAD SWAP2 PUSH2 0xFFFF DUP2 MLOAD AND DUP4 MSTORE PUSH2 0xFFFF PUSH1 0x20 DUP3 ADD MLOAD AND PUSH1 0x20 DUP5 ADD MSTORE PUSH1 0x1 DUP1 DUP6 SHL SUB PUSH1 0x40 DUP3 ADD MLOAD AND PUSH1 0x40 DUP5 ADD MSTORE PUSH1 0x60 DUP2 ADD MLOAD PUSH1 0x60 DUP5 ADD MSTORE ADD MLOAD PUSH1 0x80 DUP3 ADD MSTORE RETURN JUMPDEST CALLVALUE PUSH2 0x1A7 JUMPI PUSH1 0x0 CALLDATASIZE PUSH1 0x3 NOT ADD SLT PUSH2 0x1A7 JUMPI PUSH2 0xCCB PUSH2 0x1995 JUMP JUMPDEST CALLER PUSH1 0x0 MSTORE PUSH1 0x12 PUSH1 0x20 MSTORE PUSH1 0x40 PUSH1 0x0 KECCAK256 SLOAD DUP1 ISZERO PUSH2 0xDA5 JUMPI CALLER PUSH1 0x0 MSTORE PUSH1 0x12 PUSH1 0x20 MSTORE PUSH1 0x0 PUSH1 0x40 DUP2 KECCAK256 SSTORE PUSH1 0x0 DUP1 DUP1 DUP1 DUP5 CALLER GAS CALL RETURNDATASIZE ISZERO PUSH2 0xDA0 JUMPI RETURNDATASIZE PUSH8 0xFFFFFFFFFFFFFFFF DUP2 GT PUSH2 0x55E JUMPI PUSH1 0x40 MLOAD SWAP1 PUSH2 0xD27 PUSH1 0x1F DUP3 ADD PUSH1 0x1F NOT AND PUSH1 0x20 ADD DUP4 PUSH2 0x1105 JUMP JUMPDEST DUP2 MSTORE PUSH1 0x0 PUSH1 0x20 RETURNDATASIZE SWAP3 ADD RETURNDATACOPY JUMPDEST ISZERO PUSH2 0xD69 JUMPI PUSH1 0x40 MLOAD SWAP1 DUP2 MSTORE PUSH32 0x7FCF532C15F0A6DB0BD6D0E038BEA71D30D808C7D98CB3BF7268A95BF5081B65 PUSH1 0x20 CALLER SWAP3 LOG2 PUSH1 0x1 DUP1 SSTORE STOP JUMPDEST PUSH1 0x40 MLOAD PUSH3 0x461BCD PUSH1 0xE5 SHL DUP2 MSTORE PUSH1 0x20 PUSH1 0x4 DUP3 ADD MSTORE PUSH1 0xF PUSH1 0x24 DUP3 ADD MSTORE PUSH15 0x151C985B9CD9995C8819985A5B1959 PUSH1 0x8A SHL PUSH1 0x44 DUP3 ADD MSTORE PUSH1 0x64 SWAP1 REVERT JUMPDEST PUSH2 0xD32 JUMP JUMPDEST PUSH1 0x40 MLOAD PUSH3 0x461BCD PUSH1 0xE5 SHL DUP2 MSTORE PUSH1 0x20 PUSH1 0x4 DUP3 ADD MSTORE PUSH1 0x14 PUSH1 0x24 DUP3 ADD MSTORE PUSH20 0x4E6F2066756E647320746F207769746864726177 PUSH1 0x60 SHL PUSH1 0x44 DUP3 ADD MSTORE PUSH1 0x64 SWAP1 REVERT JUMPDEST CALLVALUE PUSH2 0x1A7 JUMPI PUSH1 0x0 CALLDATASIZE PUSH1 0x3 NOT ADD SLT PUSH2 0x1A7 JUMPI PUSH1 0x20 PUSH1 0x2 SLOAD PUSH1 0x40 MLOAD SWAP1 DUP2 MSTORE RETURN JUMPDEST CALLVALUE PUSH2 0x1A7 JUMPI PUSH1 0x40 CALLDATASIZE PUSH1 0x3 NOT ADD SLT PUSH2 0x1A7 JUMPI PUSH1 0x4 CALLDATALOAD PUSH2 0xE1B PUSH2 0x1995 JUMP JUMPDEST PUSH2 0xE23 PUSH2 0x191B JUMP JUMPDEST PUSH1 0x6 DUP2 LT ISZERO PUSH2 0x668 JUMPI PUSH1 0x3 SUB PUSH2 0xFAD JUMPI CALLER PUSH1 0x0 MSTORE PUSH1 0xB PUSH1 0x20 MSTORE PUSH1 0x40 PUSH1 0x0 KECCAK256 PUSH1 0x1 DUP2 ADD SWAP1 DUP2 SLOAD PUSH1 0xFF DUP2 PUSH1 0x20 SHR AND DUP1 PUSH2 0xFA0 JUMPI JUMPDEST ISZERO PUSH2 0xF69 JUMPI PUSH1 0x18 SHR PUSH1 0xFF AND PUSH2 0xF31 JUMPI PUSH1 0x40 MLOAD PUSH1 0x20 DUP2 ADD SWAP1 DUP5 DUP3 MSTORE PUSH1 0x24 CALLDATALOAD PUSH1 0x40 DUP3 ADD MSTORE PUSH1 0x40 DUP2 MSTORE PUSH2 0xE86 PUSH1 0x60 DUP3 PUSH2 0x1105 JUMP JUMPDEST MLOAD SWAP1 KECCAK256 SWAP1 SLOAD SUB PUSH2 0xEFB JUMPI DUP1 SLOAD PUSH4 0xFF00FFFF NOT AND PUSH2 0xFFFF DUP4 AND OR PUSH4 0x1000000 OR SWAP1 SSTORE PUSH1 0xE SLOAD PUSH2 0xEB5 SWAP1 DUP3 SWAP1 PUSH2 0x1127 JUMP JUMPDEST PUSH1 0xE SSTORE PUSH1 0xF SLOAD PUSH1 0x1 DUP2 ADD DUP1 SWAP2 GT PUSH2 0x88F JUMPI PUSH1 0xF SSTORE PUSH1 0x40 MLOAD SWAP1 DUP2 MSTORE PUSH32 0x54E8949E94ED0014D3A5385209B286177BA08C3416D2EE667A54F0341C46DD1D PUSH1 0x20 CALLER SWAP3 LOG2 PUSH1 0x1 DUP1 SSTORE STOP JUMPDEST PUSH1 0x40 MLOAD PUSH3 0x461BCD PUSH1 0xE5 SHL DUP2 MSTORE PUSH1 0x20 PUSH1 0x4 DUP3 ADD MSTORE PUSH1 0xE PUSH1 0x24 DUP3 ADD MSTORE PUSH14 0x125B9D985B1A59081C995D99585B PUSH1 0x92 SHL PUSH1 0x44 DUP3 ADD MSTORE PUSH1 0x64 SWAP1 REVERT JUMPDEST PUSH1 0x40 MLOAD PUSH3 0x461BCD PUSH1 0xE5 SHL DUP2 MSTORE PUSH1 0x20 PUSH1 0x4 DUP3 ADD MSTORE PUSH1 0x10 PUSH1 0x24 DUP3 ADD MSTORE PUSH16 0x105B1C9958591E481C995D99585B1959 PUSH1 0x82 SHL PUSH1 0x44 DUP3 ADD MSTORE PUSH1 0x64 SWAP1 REVERT JUMPDEST PUSH1 0x40 MLOAD PUSH3 0x461BCD PUSH1 0xE5 SHL DUP2 MSTORE PUSH1 0x20 PUSH1 0x4 DUP3 ADD MSTORE PUSH1 0xF PUSH1 0x24 DUP3 ADD MSTORE PUSH15 0x139BC818DBDB5B5A5D08199BDD5B99 PUSH1 0x8A SHL PUSH1 0x44 DUP3 ADD MSTORE PUSH1 0x64 SWAP1 REVERT JUMPDEST POP PUSH1 0xFF DUP2 PUSH1 0x10 SHR AND PUSH2 0xE55 JUMP JUMPDEST PUSH1 0x40 MLOAD PUSH3 0x461BCD PUSH1 0xE5 SHL DUP2 MSTORE PUSH1 0x20 PUSH1 0x4 DUP3 ADD MSTORE PUSH1 0x10 PUSH1 0x24 DUP3 ADD MSTORE PUSH16 0x4E6F742072657665616C207068617365 PUSH1 0x80 SHL PUSH1 0x44 DUP3 ADD MSTORE PUSH1 0x64 SWAP1 REVERT JUMPDEST CALLVALUE PUSH2 0x1A7 JUMPI PUSH1 0x20 CALLDATASIZE PUSH1 0x3 NOT ADD SLT PUSH2 0x1A7 JUMPI PUSH1 0x4 CALLDATALOAD PUSH1 0xC SLOAD DUP2 LT ISZERO PUSH2 0x1A7 JUMPI PUSH2 0x100E PUSH1 0x20 SWAP2 PUSH2 0x10B8 JUMP JUMPDEST SWAP1 SLOAD PUSH1 0x40 MLOAD PUSH1 0x3 SWAP3 SWAP1 SWAP3 SHL SHR PUSH1 0x1 PUSH1 0x1 PUSH1 0xA0 SHL SUB AND DUP2 MSTORE RETURN JUMPDEST CALLVALUE PUSH2 0x1A7 JUMPI PUSH1 0x0 CALLDATASIZE PUSH1 0x3 NOT ADD SLT PUSH2 0x1A7 JUMPI PUSH1 0x20 PUSH2 0xFFFF PUSH1 0x10 SLOAD PUSH1 0x10 SHR AND PUSH1 0x40 MLOAD SWAP1 DUP2 MSTORE RETURN JUMPDEST CALLVALUE PUSH2 0x1A7 JUMPI PUSH1 0x0 CALLDATASIZE PUSH1 0x3 NOT ADD SLT PUSH2 0x1A7 JUMPI PUSH1 0x20 PUSH1 0x8 SLOAD PUSH1 0x40 MLOAD SWAP1 DUP2 MSTORE RETURN JUMPDEST CALLVALUE PUSH2 0x1A7 JUMPI PUSH1 0x0 CALLDATASIZE PUSH1 0x3 NOT ADD SLT PUSH2 0x1A7 JUMPI PUSH1 0x20 PUSH1 0x6 SLOAD PUSH1 0x40 MLOAD SWAP1 DUP2 MSTORE RETURN JUMPDEST CALLVALUE PUSH2 0x1A7 JUMPI PUSH1 0x0 CALLDATASIZE PUSH1 0x3 NOT ADD SLT PUSH2 0x1A7 JUMPI DUP1 PUSH2 0x261 PUSH1 0xFF PUSH1 0x9 SLOAD AND DUP3 JUMPDEST SWAP2 SWAP1 PUSH1 0x20 DUP4 ADD SWAP3 PUSH1 0x6 DUP3 LT ISZERO PUSH2 0x668 JUMPI MSTORE JUMP JUMPDEST PUSH1 0xC SLOAD DUP2 LT ISZERO PUSH2 0x10D3 JUMPI PUSH1 0xC PUSH1 0x0 MSTORE PUSH1 0x20 PUSH1 0x0 KECCAK256 ADD SWAP1 PUSH1 0x0 SWAP1 JUMP JUMPDEST PUSH4 0x4E487B71 PUSH1 0xE0 SHL PUSH1 0x0 MSTORE PUSH1 0x32 PUSH1 0x4 MSTORE PUSH1 0x24 PUSH1 0x0 REVERT JUMPDEST PUSH1 0xA0 DUP2 ADD SWAP1 DUP2 LT PUSH8 0xFFFFFFFFFFFFFFFF DUP3 GT OR PUSH2 0x55E JUMPI PUSH1 0x40 MSTORE JUMP JUMPDEST SWAP1 PUSH1 0x1F DUP1 NOT SWAP2 ADD AND DUP2 ADD SWAP1 DUP2 LT PUSH8 0xFFFFFFFFFFFFFFFF DUP3 GT OR PUSH2 0x55E JUMPI PUSH1 0x40 MSTORE JUMP JUMPDEST SWAP2 SWAP1 DUP3 ADD DUP1 SWAP3 GT PUSH2 0x88F JUMPI JUMP JUMPDEST PUSH1 0x0 NOT DUP2 EQ PUSH2 0x88F JUMPI PUSH1 0x1 ADD SWAP1 JUMP JUMPDEST DUP2 ISZERO PUSH2 0x114D JUMPI DIV SWAP1 JUMP JUMPDEST PUSH4 0x4E487B71 PUSH1 0xE0 SHL PUSH1 0x0 MSTORE PUSH1 0x12 PUSH1 0x4 MSTORE PUSH1 0x24 PUSH1 0x0 REVERT JUMPDEST DUP2 DUP2 MUL SWAP3 SWAP2 DUP2 ISZERO SWAP2 DUP5 DIV EQ OR ISZERO PUSH2 0x88F JUMPI JUMP JUMPDEST PUSH8 0xFFFFFFFFFFFFFFFF DUP2 GT PUSH2 0x55E JUMPI PUSH1 0x5 SHL PUSH1 0x20 ADD SWAP1 JUMP JUMPDEST SWAP1 PUSH2 0x1198 DUP3 PUSH2 0x1176 JUMP JUMPDEST PUSH2 0x11A5 PUSH1 0x40 MLOAD SWAP2 DUP3 PUSH2 0x1105 JUMP JUMPDEST DUP3 DUP2 MSTORE DUP1 SWAP3 PUSH2 0x11B6 PUSH1 0x1F NOT SWAP2 PUSH2 0x1176 JUMP JUMPDEST ADD SWAP1 PUSH1 0x20 CALLDATASIZE SWAP2 ADD CALLDATACOPY JUMP JUMPDEST SWAP1 PUSH2 0xFFFF DUP1 SWAP2 AND SWAP2 AND SUB SWAP1 PUSH2 0xFFFF DUP3 GT PUSH2 0x88F JUMPI JUMP JUMPDEST DUP1 MLOAD ISZERO PUSH2 0x10D3 JUMPI PUSH1 0x20 ADD SWAP1 JUMP JUMPDEST DUP1 MLOAD DUP3 LT ISZERO PUSH2 0x10D3 JUMPI PUSH1 0x20 SWAP2 PUSH1 0x5 SHL ADD ADD SWAP1 JUMP JUMPDEST DUP2 ISZERO PUSH2 0x114D JUMPI MOD SWAP1 JUMP JUMPDEST SWAP2 SWAP1 DUP3 SUB SWAP2 DUP3 GT PUSH2 0x88F JUMPI JUMP JUMPDEST PUSH1 0x40 MLOAD PUSH2 0x121A DUP2 PUSH2 0x10E9 JUMP JUMPDEST PUSH1 0x0 DUP1 DUP3 MSTORE PUSH1 0x20 DUP3 ADD DUP2 DUP2 MSTORE PUSH1 0x40 DUP4 ADD DUP3 DUP2 MSTORE PUSH1 0x60 DUP5 ADD DUP4 DUP2 MSTORE PUSH1 0x80 DUP6 ADD DUP5 DUP2 MSTORE PUSH1 0xC SLOAD SWAP4 DUP6 SWAP4 DUP8 SWAP4 SWAP2 DUP6 JUMPDEST DUP8 DUP2 LT PUSH2 0x1471 JUMPI POP DUP8 ISZERO PUSH2 0x144A JUMPI POP POP POP POP POP DUP3 PUSH2 0x1263 SWAP2 PUSH2 0x1143 JUMP JUMPDEST PUSH3 0x1FFFE PUSH2 0xFFFF DUP3 AND SWAP2 DUP3 DUP7 MSTORE PUSH1 0x1 SHL AND SWAP1 DUP1 DUP3 DIV PUSH1 0x2 EQ SWAP1 ISZERO OR ISZERO PUSH2 0x88F JUMPI PUSH1 0x3 SWAP1 DIV PUSH2 0xFFFF AND PUSH1 0x20 DUP5 ADD DUP2 SWAP1 MSTORE SWAP1 SWAP2 PUSH1 0x0 NOT SWAP1 PUSH2 0x12A1 SWAP1 PUSH2 0x118E JUMP JUMPDEST SWAP3 PUSH1 0x0 SWAP3 PUSH1 0x0 SWAP3 JUMPDEST DUP3 DUP5 LT PUSH2 0x1364 JUMPI POP POP POP POP PUSH1 0x1 DUP2 SUB PUSH2 0x1300 JUMPI POP PUSH1 0x1 PUSH1 0x1 PUSH1 0xA0 SHL SUB SWAP1 PUSH2 0x12CF SWAP1 PUSH2 0x11D6 JUMP JUMPDEST MLOAD AND PUSH1 0x40 DUP3 ADD MSTORE JUMPDEST PUSH1 0x11 SLOAD PUSH2 0x12F3 PUSH1 0x64 PUSH2 0x12EB PUSH1 0x7 SLOAD DUP5 PUSH2 0x1163 JUMP JUMPDEST DIV DUP1 SWAP3 PUSH2 0x1201 JUMP JUMPDEST PUSH1 0x60 DUP4 ADD MSTORE PUSH1 0x80 DUP3 ADD MSTORE SWAP1 JUMP JUMPDEST SWAP1 PUSH2 0x1358 SWAP1 PUSH2 0x1352 PUSH1 0x40 MLOAD SWAP4 PUSH1 0x20 DUP6 ADD PUSH2 0x133E DUP7 PUSH2 0x1330 DUP5 PREVRANDAO TIMESTAMP DUP7 SWAP2 PUSH1 0x60 SWAP4 SWAP2 DUP4 MSTORE PUSH1 0x20 DUP4 ADD MSTORE PUSH1 0x40 DUP3 ADD MSTORE ADD SWAP1 JUMP JUMPDEST SUB PUSH1 0x1F NOT DUP2 ADD DUP9 MSTORE DUP8 PUSH2 0x1105 JUMP JUMPDEST SWAP5 MLOAD SWAP1 SWAP5 KECCAK256 PUSH1 0x1 PUSH1 0x1 PUSH1 0xA0 SHL SUB SWAP5 SWAP1 PUSH2 0x11F7 JUMP JUMPDEST SWAP1 PUSH2 0x11E3 JUMP JUMPDEST MLOAD AND PUSH1 0x40 DUP3 ADD MSTORE PUSH2 0x12D7 JUMP JUMPDEST SWAP1 SWAP2 SWAP3 SWAP4 PUSH2 0x1371 DUP6 PUSH2 0x10B8 JUMP JUMPDEST PUSH1 0x1 DUP1 PUSH1 0xA0 SHL SUB SWAP2 SLOAD SWAP1 PUSH1 0x3 SHL SHR AND PUSH1 0x0 MSTORE PUSH1 0xB PUSH1 0x20 MSTORE PUSH1 0x1 PUSH1 0x40 PUSH1 0x0 KECCAK256 ADD SLOAD PUSH1 0xFF DUP2 PUSH1 0x18 SHR AND ISZERO PUSH2 0x143D JUMPI PUSH2 0xFFFF SWAP1 DUP2 AND DUP5 DUP1 DUP3 GT ISZERO PUSH2 0x142E JUMPI PUSH2 0x13B5 SWAP2 PUSH2 0x11C0 JUMP JUMPDEST AND SWAP2 DUP1 DUP4 LT ISZERO PUSH2 0x13F1 JUMPI POP POP SWAP1 PUSH1 0x1 PUSH2 0x13CD DUP6 PUSH2 0x10B8 JUMP JUMPDEST DUP3 DUP1 PUSH1 0xA0 SHL SUB SWAP2 SLOAD SWAP1 PUSH1 0x3 SHL SHR AND SWAP5 DUP2 SWAP6 PUSH2 0x13E7 DUP9 PUSH2 0x11D6 JUMP JUMPDEST MSTORE JUMPDEST ADD SWAP3 SWAP2 PUSH2 0x12A9 JUMP JUMPDEST SWAP3 SWAP2 SWAP5 DUP4 PUSH1 0x1 SWAP3 SWAP7 SUB PUSH2 0x13E9 JUMPI PUSH2 0x1407 DUP2 PUSH2 0x10B8 JUMP JUMPDEST DUP4 DUP1 PUSH1 0xA0 SHL SUB SWAP2 SLOAD SWAP1 PUSH1 0x3 SHL SHR AND PUSH2 0x1428 PUSH2 0x1421 DUP9 PUSH2 0x1134 JUMP JUMPDEST SWAP8 DUP10 PUSH2 0x11E3 JUMP JUMPDEST MSTORE PUSH2 0x13E9 JUMP JUMPDEST SWAP1 PUSH2 0x1438 SWAP2 PUSH2 0x11C0 JUMP JUMPDEST PUSH2 0x13B5 JUMP JUMPDEST POP SWAP4 PUSH1 0x1 SWAP1 SWAP3 SWAP2 SWAP3 PUSH2 0x13E9 JUMP JUMPDEST PUSH1 0x0 DUP1 DUP7 MSTORE SWAP1 DUP2 SWAP1 MSTORE DUP1 SLOAD PUSH1 0x1 PUSH1 0x1 PUSH1 0xA0 SHL SUB AND SWAP1 SWAP2 MSTORE PUSH1 0x11 SLOAD SWAP1 SWAP2 MSTORE SWAP1 MSTORE SWAP5 SWAP4 POP POP POP POP JUMP JUMPDEST PUSH2 0x147A DUP2 PUSH2 0x10B8 JUMP JUMPDEST PUSH1 0x1 DUP1 PUSH1 0xA0 SHL SUB SWAP2 SLOAD SWAP1 PUSH1 0x3 SHL SHR AND PUSH1 0x0 MSTORE PUSH1 0xB PUSH1 0x20 MSTORE PUSH1 0x1 PUSH1 0x40 PUSH1 0x0 KECCAK256 ADD SLOAD PUSH1 0xFF DUP2 PUSH1 0x18 SHR AND PUSH2 0x14AF JUMPI JUMPDEST POP PUSH1 0x1 ADD PUSH2 0x1246 JUMP JUMPDEST PUSH2 0x14C5 PUSH1 0x1 SWAP3 SWAP11 SWAP9 PUSH2 0xFFFF PUSH2 0x14CB SWAP4 AND SWAP1 PUSH2 0x1127 JUMP JUMPDEST SWAP8 PUSH2 0x1134 JUMP JUMPDEST SWAP9 SWAP1 PUSH2 0x14A6 JUMP JUMPDEST PUSH2 0x14DA PUSH2 0x191B JUMP JUMPDEST PUSH1 0x6 DUP2 LT ISZERO PUSH2 0x668 JUMPI PUSH1 0x4 SUB PUSH2 0x185D JUMPI PUSH1 0xE SLOAD PUSH1 0xF SLOAD SWAP1 DUP2 ISZERO PUSH2 0x17AA JUMPI DUP2 PUSH2 0x1501 SWAP2 PUSH2 0x1143 JUMP JUMPDEST PUSH1 0x10 SLOAD PUSH2 0xFFFF DUP3 AND SWAP3 SWAP2 PUSH1 0x1 SHL PUSH3 0x1FFFE AND DUP4 ISZERO PUSH1 0x2 DUP6 DUP4 DIV EQ OR ISZERO PUSH2 0x88F JUMPI PUSH1 0x3 SWAP1 DIV SWAP2 PUSH4 0xFFFF0000 PUSH2 0xFFFF DUP5 AND SWAP4 PUSH1 0x10 SHL AND DUP1 DUP6 PUSH4 0xFFFFFFFF NOT DUP6 AND OR OR PUSH1 0x10 SSTORE PUSH2 0x1550 PUSH2 0xFFFF SWAP3 PUSH2 0x118E JUMP JUMPDEST SWAP2 PUSH1 0x0 SWAP1 PUSH1 0xC SLOAD SWAP1 DUP3 SWAP1 JUMPDEST DUP3 DUP3 LT PUSH2 0x16E0 JUMPI POP POP POP SWAP2 DUP6 SWAP4 SWAP2 PUSH32 0xCDC4AFCDC6DAF8FF210712CE89721E9B20A1F38920663854EA898DAB74433E7E SWAP7 DUP5 PUSH1 0x1 PUSH1 0x80 SWAP9 SWAP7 EQ PUSH1 0x0 EQ PUSH2 0x1678 JUMPI POP POP POP PUSH2 0x15A7 SWAP2 POP PUSH2 0x11D6 JUMP JUMPDEST MLOAD PUSH1 0x10 DUP1 SLOAD PUSH5 0x100000000 PUSH1 0x1 PUSH1 0xC0 SHL SUB NOT AND PUSH1 0x20 SWAP3 SWAP1 SWAP3 SHL PUSH5 0x100000000 PUSH1 0x1 PUSH1 0xC0 SHL SUB AND SWAP2 SWAP1 SWAP2 OR SWAP1 SSTORE JUMPDEST PUSH1 0x11 SLOAD SWAP1 PUSH2 0x15F1 PUSH1 0x64 PUSH2 0x15E9 PUSH1 0x7 SLOAD DUP6 PUSH2 0x1163 JUMP JUMPDEST DIV DUP1 SWAP4 PUSH2 0x1201 JUMP JUMPDEST SWAP2 PUSH1 0x1 DUP1 PUSH1 0xA0 SHL SUB PUSH1 0x0 SLOAD AND PUSH1 0x0 MSTORE PUSH1 0x12 PUSH1 0x20 MSTORE PUSH2 0x1615 PUSH1 0x40 PUSH1 0x0 KECCAK256 SWAP2 DUP3 SLOAD PUSH2 0x1127 JUMP JUMPDEST SWAP1 SSTORE PUSH1 0x1 DUP1 PUSH1 0xA0 SHL SUB PUSH1 0x10 SLOAD PUSH1 0x20 SHR AND PUSH1 0x0 MSTORE PUSH1 0x12 PUSH1 0x20 MSTORE PUSH1 0x40 PUSH1 0x0 KECCAK256 PUSH2 0x163D DUP4 DUP3 SLOAD PUSH2 0x1127 JUMP JUMPDEST SWAP1 SSTORE PUSH2 0x1651 PUSH1 0x5 PUSH1 0xFF NOT PUSH1 0x9 SLOAD AND OR PUSH1 0x9 SSTORE JUMP JUMPDEST PUSH1 0x1 DUP1 PUSH1 0xA0 SHL SUB PUSH1 0x10 SLOAD PUSH1 0x20 SHR AND SWAP1 PUSH1 0x40 MLOAD SWAP4 DUP5 MSTORE PUSH1 0x20 DUP5 ADD MSTORE PUSH1 0x40 DUP4 ADD MSTORE PUSH1 0x60 DUP3 ADD MSTORE LOG1 JUMP JUMPDEST SWAP1 SWAP2 SWAP3 PUSH2 0x16C2 SWAP1 PUSH2 0x1352 PUSH1 0x40 MLOAD SWAP4 PUSH1 0x20 DUP6 ADD PUSH2 0x16AA DUP7 PUSH2 0x1330 DUP5 PREVRANDAO TIMESTAMP DUP7 SWAP2 PUSH1 0x60 SWAP4 SWAP2 DUP4 MSTORE PUSH1 0x20 DUP4 ADD MSTORE PUSH1 0x40 DUP3 ADD MSTORE ADD SWAP1 JUMP JUMPDEST SWAP5 MLOAD SWAP1 SWAP5 KECCAK256 PUSH5 0x100000000 PUSH1 0x1 PUSH1 0xC0 SHL SUB SWAP5 SWAP1 PUSH2 0x11F7 JUMP JUMPDEST MLOAD PUSH1 0x20 SHL AND SWAP3 PUSH8 0xFFFFFFFFFFFFFFFF PUSH1 0xC0 SHL AND OR OR OR PUSH1 0x10 SSTORE PUSH2 0x15D4 JUMP JUMPDEST PUSH2 0x16E9 DUP3 PUSH2 0x10B8 JUMP JUMPDEST PUSH1 0x1 DUP1 PUSH1 0xA0 SHL SUB SWAP2 SLOAD SWAP1 PUSH1 0x3 SHL SHR AND SWAP4 DUP5 PUSH1 0x0 MSTORE PUSH1 0xB PUSH1 0x20 MSTORE PUSH1 0x1 PUSH1 0x40 PUSH1 0x0 KECCAK256 ADD SLOAD PUSH1 0xFF DUP2 PUSH1 0x18 SHR AND ISZERO PUSH2 0x179E JUMPI PUSH2 0xFFFF AND DUP10 DUP1 DUP3 GT ISZERO PUSH2 0x178E JUMPI PUSH2 0x172D SWAP2 PUSH2 0x11C0 JUMP JUMPDEST SWAP2 JUMPDEST PUSH2 0xFFFF DUP2 AND PUSH2 0xFFFF DUP5 AND DUP2 DUP2 LT PUSH1 0x0 EQ PUSH2 0x175F JUMPI POP POP POP POP PUSH1 0x1 SWAP1 SWAP2 DUP2 SWAP5 PUSH2 0x1756 DUP9 PUSH2 0x11D6 JUMP JUMPDEST MSTORE JUMPDEST ADD SWAP1 PUSH2 0x155B JUMP JUMPDEST PUSH1 0x1 SWAP5 POP SWAP7 SWAP2 SWAP5 SWAP3 SWAP7 EQ PUSH2 0x1774 JUMPI JUMPDEST POP PUSH2 0x1758 JUMP JUMPDEST PUSH2 0x1787 PUSH2 0x1780 DUP8 PUSH2 0x1134 JUMP JUMPDEST SWAP7 DUP10 PUSH2 0x11E3 JUMP JUMPDEST MSTORE CODESIZE PUSH2 0x176E JUMP JUMPDEST SWAP1 PUSH2 0x1798 SWAP2 PUSH2 0x11C0 JUMP JUMPDEST SWAP2 PUSH2 0x172F JUMP JUMPDEST POP SWAP4 POP SWAP1 PUSH1 0x1 SWAP1 PUSH2 0x1758 JUMP JUMPDEST POP POP PUSH1 0x11 SLOAD PUSH1 0x0 DUP1 SLOAD PUSH1 0x1 PUSH1 0x1 PUSH1 0xA0 SHL SUB AND DUP2 MSTORE PUSH1 0x12 PUSH1 0x20 MSTORE PUSH1 0x40 SWAP1 KECCAK256 DUP1 SLOAD SWAP1 SWAP2 PUSH2 0x17D4 SWAP2 PUSH2 0x1127 JUMP JUMPDEST SWAP1 SSTORE PUSH1 0x0 SLOAD PUSH1 0x10 DUP1 SLOAD PUSH1 0x1 PUSH1 0x1 PUSH1 0xC0 SHL SUB NOT AND PUSH1 0x20 SWAP3 SWAP1 SWAP3 SHL PUSH5 0x100000000 PUSH1 0x1 PUSH1 0xC0 SHL SUB AND SWAP2 SWAP1 SWAP2 OR SWAP1 SSTORE PUSH1 0x9 DUP1 SLOAD PUSH1 0xFF NOT AND PUSH1 0x5 OR SWAP1 SSTORE PUSH32 0xCDC4AFCDC6DAF8FF210712CE89721E9B20A1F38920663854EA898DAB74433E7E PUSH1 0x80 PUSH1 0x1 DUP1 PUSH1 0xA0 SHL SUB PUSH1 0x10 SLOAD PUSH1 0x20 SHR AND PUSH1 0x11 SLOAD PUSH1 0x40 MLOAD SWAP2 PUSH1 0x0 DUP4 MSTORE PUSH1 0x0 PUSH1 0x20 DUP5 ADD MSTORE PUSH1 0x40 DUP4 ADD MSTORE PUSH1 0x60 DUP3 ADD MSTORE LOG1 JUMP JUMPDEST PUSH1 0x40 MLOAD PUSH3 0x461BCD PUSH1 0xE5 SHL DUP2 MSTORE PUSH1 0x20 PUSH1 0x4 DUP3 ADD MSTORE PUSH1 0xF PUSH1 0x24 DUP3 ADD MSTORE PUSH15 0x4E6F742066696E616C697A61626C65 PUSH1 0x88 SHL PUSH1 0x44 DUP3 ADD MSTORE PUSH1 0x64 SWAP1 REVERT JUMPDEST PUSH1 0xC SLOAD PUSH1 0x2 SLOAD GT PUSH2 0x1916 JUMPI PUSH2 0x18AE PUSH1 0xA SLOAD PUSH1 0x8 SLOAD SWAP1 PUSH2 0x1127 JUMP JUMPDEST PUSH2 0x18BA PUSH1 0x4 SLOAD DUP3 PUSH2 0x1127 JUMP JUMPDEST SWAP1 PUSH2 0x18C7 PUSH1 0x5 SLOAD DUP4 PUSH2 0x1127 JUMP JUMPDEST SWAP2 DUP2 TIMESTAMP LT PUSH1 0x0 EQ PUSH2 0x18E2 JUMPI POP PUSH2 0x18DF SWAP2 POP TIMESTAMP SWAP1 PUSH2 0x1201 JUMP JUMPDEST SWAP1 JUMP JUMPDEST DUP1 SWAP2 POP TIMESTAMP LT PUSH1 0x0 EQ PUSH2 0x18FA JUMPI PUSH2 0x18DF SWAP2 POP TIMESTAMP SWAP1 PUSH2 0x1201 JUMP JUMPDEST POP DUP1 TIMESTAMP LT PUSH1 0x0 EQ PUSH2 0x1910 JUMPI PUSH2 0x18DF SWAP1 TIMESTAMP SWAP1 PUSH2 0x1201 JUMP JUMPDEST POP PUSH1 0x0 SWAP1 JUMP JUMPDEST PUSH1 0x0 SWAP1 JUMP JUMPDEST PUSH1 0xFF PUSH1 0x9 SLOAD AND PUSH1 0x6 DUP2 LT ISZERO PUSH2 0x668 JUMPI PUSH1 0x5 EQ PUSH2 0x1990 JUMPI PUSH1 0xC SLOAD PUSH1 0x2 SLOAD GT PUSH2 0x1916 JUMPI PUSH2 0x194B PUSH1 0xA SLOAD PUSH1 0x8 SLOAD SWAP1 PUSH2 0x1127 JUMP JUMPDEST PUSH2 0x1957 PUSH1 0x4 SLOAD DUP3 PUSH2 0x1127 JUMP JUMPDEST PUSH2 0x1963 PUSH1 0x5 SLOAD DUP3 PUSH2 0x1127 JUMP JUMPDEST SWAP2 TIMESTAMP LT ISZERO PUSH2 0x1972 JUMPI POP POP PUSH1 0x1 SWAP1 JUMP JUMPDEST TIMESTAMP LT ISZERO PUSH2 0x197F JUMPI POP PUSH1 0x2 SWAP1 JUMP JUMPDEST TIMESTAMP LT ISZERO PUSH2 0x198B JUMPI PUSH1 0x3 SWAP1 JUMP JUMPDEST PUSH1 0x4 SWAP1 JUMP JUMPDEST PUSH1 0x5 SWAP1 JUMP JUMPDEST PUSH1 0x2 PUSH1 0x1 SLOAD EQ PUSH2 0x19A6 JUMPI PUSH1 0x2 PUSH1 0x1 SSTORE JUMP JUMPDEST PUSH4 0x3EE5AEB5 PUSH1 0xE0 SHL PUSH1 0x0 MSTORE PUSH1 0x4 PUSH1 0x0 REVERT JUMPDEST PUSH1 0x0 SLOAD PUSH1 0x1 PUSH1 0x1 PUSH1 0xA0 SHL SUB AND CALLER SUB PUSH2 0x19CB JUMPI JUMP JUMPDEST PUSH4 0x118CDAA7 PUSH1 0xE0 SHL PUSH1 0x0 MSTORE CALLER PUSH1 0x4 MSTORE PUSH1 0x24 PUSH1 0x0 REVERT INVALID LOG2 PUSH5 0x6970667358 0x22 SLT KECCAK256 PUSH2 0x36B9 KECCAK256 SDIV ADD 0xB6 BALANCE 0xE CALLER 0xE4 0xE3 0xDA SAR 0xC4 MSTORE8 MLOAD PUSH22 0x7F0A1F328D2855912E83E517D40064736F6C63430008 SHR STOP CALLER "},"methodIdentifiers":{"autoStartDelay()":"07f6aee8","average()":"b250717a","commitDuration()":"6f833811","commitGuess(bytes32)":"608a5d95","currentPhase()":"055ad42e","entryFee()":"072ea61c","finalizeGame()":"b03b2030","getPhase()":"eced0280","getPlayerCount()":"c2e52206","getPlayers()":"8b5b9ccc","getResults()":"4717f97c","getTimeRemaining()":"dac6270d","joinGame()":"d4f77b1c","leaveGame()":"b1501f9c","maxPlayers()":"4c2412a2","minPlayers()":"2770c895","minPlayersReachedTime()":"b07ddf8a","owner()":"8da5cb5b","pendingWithdrawals(address)":"f3f43703","playerAddresses(uint256)":"15c6aee2","players(address)":"e2eb41ff","prizePool()":"719ce73e","renounceOwnership()":"715018a6","revealDuration()":"886a6de1","revealGuess(uint256,bytes32)":"180c18c3","serviceFeePercent()":"995bc51e","transferOwnership(address)":"f2fde38b","twoThirdsAverage()":"0a4a922e","winner()":"dfbf53ae","withdraw()":"3ccfd60b"}}}}}