{
  "_format": "hh-sol-artifact-1",
  "contractName": "GameFactory",
  "sourceName": "contracts/GameFactory.sol",
  "abi": [
    {
      "inputs": [],
      "stateMutability": "nonpayable",
      "type": "constructor"
    },
    {
      "inputs": [
        {
          "internalType": "address",
          "name": "owner",
          "type": "address"
        }
      ],
      "name": "OwnableInvalidOwner",
      "type": "error"
    },
    {
      "inputs": [
        {
          "internalType": "address",
          "name": "account",
          "type": "address"
        }
      ],
      "name": "OwnableUnauthorizedAccount",
      "type": "error"
    },
    {
      "anonymous": false,
      "inputs": [
        {
          "indexed": true,
          "internalType": "address",
          "name": "gameAddress",
          "type": "address"
        }
      ],
      "name": "CurrentGameSet",
      "type": "event"
    },
    {
      "anonymous": false,
      "inputs": [],
      "name": "DefaultParametersUpdated",
      "type": "event"
    },
    {
      "anonymous": false,
      "inputs": [
        {
          "indexed": true,
          "internalType": "address",
          "name": "gameAddress",
          "type": "address"
        },
        {
          "indexed": true,
          "internalType": "uint256",
          "name": "gameId",
          "type": "uint256"
        }
      ],
      "name": "GameCreated",
      "type": "event"
    },
    {
      "anonymous": false,
      "inputs": [
        {
          "indexed": true,
          "internalType": "address",
          "name": "previousOwner",
          "type": "address"
        },
        {
          "indexed": true,
          "internalType": "address",
          "name": "newOwner",
          "type": "address"
        }
      ],
      "name": "OwnershipTransferred",
      "type": "event"
    },
    {
      "inputs": [
        {
          "internalType": "uint16",
          "name": "_minPlayers",
          "type": "uint16"
        },
        {
          "internalType": "uint16",
          "name": "_maxPlayers",
          "type": "uint16"
        },
        {
          "internalType": "uint32",
          "name": "_commitDuration",
          "type": "uint32"
        },
        {
          "internalType": "uint32",
          "name": "_revealDuration",
          "type": "uint32"
        },
        {
          "internalType": "uint256",
          "name": "_entryFee",
          "type": "uint256"
        },
        {
          "internalType": "uint8",
          "name": "_serviceFeePercent",
          "type": "uint8"
        },
        {
          "internalType": "uint32",
          "name": "_autoStartDelay",
          "type": "uint32"
        }
      ],
      "name": "createCustomGame",
      "outputs": [
        {
          "internalType": "address",
          "name": "",
          "type": "address"
        }
      ],
      "stateMutability": "nonpayable",
      "type": "function"
    },
    {
      "inputs": [],
      "name": "createGame",
      "outputs": [
        {
          "internalType": "address",
          "name": "",
          "type": "address"
        }
      ],
      "stateMutability": "nonpayable",
      "type": "function"
    },
    {
      "inputs": [],
      "name": "currentGame",
      "outputs": [
        {
          "internalType": "address",
          "name": "",
          "type": "address"
        }
      ],
      "stateMutability": "view",
      "type": "function"
    },
    {
      "inputs": [],
      "name": "defaultAutoStartDelay",
      "outputs": [
        {
          "internalType": "uint32",
          "name": "",
          "type": "uint32"
        }
      ],
      "stateMutability": "view",
      "type": "function"
    },
    {
      "inputs": [],
      "name": "defaultCommitDuration",
      "outputs": [
        {
          "internalType": "uint32",
          "name": "",
          "type": "uint32"
        }
      ],
      "stateMutability": "view",
      "type": "function"
    },
    {
      "inputs": [],
      "name": "defaultEntryFee",
      "outputs": [
        {
          "internalType": "uint256",
          "name": "",
          "type": "uint256"
        }
      ],
      "stateMutability": "view",
      "type": "function"
    },
    {
      "inputs": [],
      "name": "defaultMaxPlayers",
      "outputs": [
        {
          "internalType": "uint16",
          "name": "",
          "type": "uint16"
        }
      ],
      "stateMutability": "view",
      "type": "function"
    },
    {
      "inputs": [],
      "name": "defaultMinPlayers",
      "outputs": [
        {
          "internalType": "uint16",
          "name": "",
          "type": "uint16"
        }
      ],
      "stateMutability": "view",
      "type": "function"
    },
    {
      "inputs": [],
      "name": "defaultRevealDuration",
      "outputs": [
        {
          "internalType": "uint32",
          "name": "",
          "type": "uint32"
        }
      ],
      "stateMutability": "view",
      "type": "function"
    },
    {
      "inputs": [],
      "name": "defaultServiceFeePercent",
      "outputs": [
        {
          "internalType": "uint8",
          "name": "",
          "type": "uint8"
        }
      ],
      "stateMutability": "view",
      "type": "function"
    },
    {
      "inputs": [
        {
          "internalType": "address",
          "name": "",
          "type": "address"
        }
      ],
      "name": "gameExists",
      "outputs": [
        {
          "internalType": "bool",
          "name": "",
          "type": "bool"
        }
      ],
      "stateMutability": "view",
      "type": "function"
    },
    {
      "inputs": [
        {
          "internalType": "uint256",
          "name": "",
          "type": "uint256"
        }
      ],
      "name": "games",
      "outputs": [
        {
          "internalType": "address",
          "name": "",
          "type": "address"
        }
      ],
      "stateMutability": "view",
      "type": "function"
    },
    {
      "inputs": [],
      "name": "getAllGames",
      "outputs": [
        {
          "internalType": "address[]",
          "name": "",
          "type": "address[]"
        }
      ],
      "stateMutability": "view",
      "type": "function"
    },
    {
      "inputs": [],
      "name": "getCurrentGameContract",
      "outputs": [
        {
          "internalType": "contract TwoThirdsAverageGame",
          "name": "",
          "type": "address"
        }
      ],
      "stateMutability": "view",
      "type": "function"
    },
    {
      "inputs": [],
      "name": "getDefaults",
      "outputs": [
        {
          "internalType": "uint16",
          "name": "",
          "type": "uint16"
        },
        {
          "internalType": "uint16",
          "name": "",
          "type": "uint16"
        },
        {
          "internalType": "uint32",
          "name": "",
          "type": "uint32"
        },
        {
          "internalType": "uint32",
          "name": "",
          "type": "uint32"
        },
        {
          "internalType": "uint256",
          "name": "",
          "type": "uint256"
        },
        {
          "internalType": "uint8",
          "name": "",
          "type": "uint8"
        },
        {
          "internalType": "uint32",
          "name": "",
          "type": "uint32"
        }
      ],
      "stateMutability": "view",
      "type": "function"
    },
    {
      "inputs": [],
      "name": "getGamesCount",
      "outputs": [
        {
          "internalType": "uint256",
          "name": "",
          "type": "uint256"
        }
      ],
      "stateMutability": "view",
      "type": "function"
    },
    {
      "inputs": [],
      "name": "owner",
      "outputs": [
        {
          "internalType": "address",
          "name": "",
          "type": "address"
        }
      ],
      "stateMutability": "view",
      "type": "function"
    },
    {
      "inputs": [],
      "name": "renounceOwnership",
      "outputs": [],
      "stateMutability": "nonpayable",
      "type": "function"
    },
    {
      "inputs": [
        {
          "internalType": "address",
          "name": "_game",
          "type": "address"
        }
      ],
      "name": "setCurrentGame",
      "outputs": [],
      "stateMutability": "nonpayable",
      "type": "function"
    },
    {
      "inputs": [
        {
          "internalType": "uint16",
          "name": "_minPlayers",
          "type": "uint16"
        },
        {
          "internalType": "uint16",
          "name": "_maxPlayers",
          "type": "uint16"
        },
        {
          "internalType": "uint32",
          "name": "_commitDuration",
          "type": "uint32"
        },
        {
          "internalType": "uint32",
          "name": "_revealDuration",
          "type": "uint32"
        },
        {
          "internalType": "uint256",
          "name": "_entryFee",
          "type": "uint256"
        },
        {
          "internalType": "uint8",
          "name": "_serviceFeePercent",
          "type": "uint8"
        },
        {
          "internalType": "uint32",
          "name": "_autoStartDelay",
          "type": "uint32"
        }
      ],
      "name": "setDefaultParameters",
      "outputs": [],
      "stateMutability": "nonpayable",
      "type": "function"
    },
    {
      "inputs": [
        {
          "internalType": "address",
          "name": "newOwner",
          "type": "address"
        }
      ],
      "name": "transferOwnership",
      "outputs": [],
      "stateMutability": "nonpayable",
      "type": "function"
    },
    {
      "inputs": [],
      "name": "updateDeployScript",
      "outputs": [
        {
          "internalType": "string",
          "name": "",
          "type": "string"
        }
      ],
      "stateMutability": "view",
      "type": "function"
    }
  ],
  "bytecode": "0x6080806040523460c657331560b05760008054336001600160a01b0319821681178355916001600160a01b03909116907f8be0079c531659141344cd1fd0a4f28419497f9722a3daafe3b4186f6b6457e09080a3600380546001600160a01b03167c3c0000005a000f000300000000000000000000000000000000000000001790556004805464050000003c64ffffffffff1990911617905567016345785d8a0000600555612ded90816100cc8239f35b631e4fbdf760e01b600052600060045260246000fd5b600080fdfe608080604052600436101561001357600080fd5b600090813560e01c9081630ba2ecf714610cce575080631024c70d14610ca9578063117a5b9014610c4157806317b7a47614610c2357806338fe1bc214610a7b57806345c3ce8314610a5d5780634a1753a6146109bc5780635c18d0581461099b57806360b663bb14610972578063715018a6146109185780637255d7291461078e5780637c52e54714610675578063885df7b714610652578063888f00c7146106105780638da5cb5b146105e9578063b172ed4d14610581578063ba7662981461055c578063c7fa124a146104f7578063d05d6ad9146104d0578063db1c45f91461041a578063dcea9f1b146101a15763f2fde38b1461011357600080fd5b3461019e57602036600319011261019e576004356001600160a01b0381169081900361019c57610141610fb3565b80156101885781546001600160a01b03198116821783556001600160a01b03167f8be0079c531659141344cd1fd0a4f28419497f9722a3daafe3b4186f6b6457e08380a380f35b631e4fbdf760e01b82526004829052602482fd5b505b80fd5b503461019e578060031936011261019e576101ba610fb3565b6003548060a01c61ffff166101ce90610ff8565b908060b01c61ffff166101e090610ff8565b8160c01c63ffffffff166101f390610ff8565b9160e01c61020090610ff8565b60055461020c90610ff8565b600454908160201c60ff1661022090610ff8565b9163ffffffff1661023090610ff8565b9260405195869560208701986b036b4b7283630bcb2b9399d160a51b8a5280519081602c8a01916020019161026492610d66565b600560f91b602c918901918201526b036b0bc283630bcb2b9399d160a51b602d82015281519161029d9083906039840190602001610d66565b01602c01600560f91b600d820152600e81016f031b7b6b6b4ba223ab930ba34b7b71d160851b905281519182601e830191602001916102db92610d66565b01600d01600560f91b6011820152601281016f03932bb32b0b6223ab930ba34b7b71d160851b90528151918260228301916020019161031992610d66565b01601101600560f91b60118201526012810169032b73a393ca332b29d160b51b905281519182601c8301916020019161035192610d66565b01601101600560f91b600b820152600c810172039b2b93b34b1b2a332b2a832b931b2b73a1d1606d1b905281519182601f8301916020019161039292610d66565b01600b01600560f91b6014820152601581016f030baba37a9ba30b93a2232b630bc9d160851b9052815191826025830191602001916103d092610d66565b0160140103601101601f19810182526103e99082610f91565b604051918291602083525190816020840152816040840161040992610d66565b601f1990601f011681010360400190f35b503461019e578060031936011261019e576040516001805480835290835260208201908190600080516020612d9883398151915290855b8181106104b15750505082610467910383610f91565b604051928392602084019060208552518091526040840192915b81811061048f575050500390f35b82516001600160a01b0316845285945060209384019390920191600101610481565b82546001600160a01b0316845260209093019260019283019201610451565b503461019e578060031936011261019e57602063ffffffff60035460c01c16604051908152f35b503461019e578060031936011261019e576003546001600160a01b0316801561052557602090604051908152f35b60405162461bcd60e51b815260206004820152600f60248201526e4e6f2063757272656e742067616d6560881b6044820152606490fd5b503461019e578060031936011261019e57602061ffff60035460a01c16604051908152f35b503461019e578060031936011261019e5760e060035463ffffffff600554600454906040519361ffff8160a01c16855261ffff8160b01c166020860152838160c01c166040860152851c6060850152608084015260ff8160201c1660a08401521660c0820152f35b503461019e578060031936011261019e57546040516001600160a01b039091168152602090f35b503461019e57602036600319011261019e576004356001600160a01b0381169081900361019c5760408260ff9260209452600284522054166040519015158152f35b503461019e578060031936011261019e57602060ff600454821c16604051908152f35b503461019e5763ffffffff61068936610cf0565b61069b97919697959295949394610fb3565b6106bb61ffff89166106b06003821015610d89565b61ffff851611610dc0565b6106cb601460ff89161115610df8565b6106d88285161515610e31565b6106e58286161515610e6e565b16956106f2871515610eab565b6003549363ffffffff60e01b9060e01b169360018060e01b039161ffff60a01b9060a01b169067ffffffffffffffff60a01b191617169061ffff60b01b9060b01b16179063ffffffff60c01b9060c01b16171760035560055564ff000000006004549160201b169064ffffffffff191617176004557ff52c36f42923d13cfc6962f0e8509fda9bf36c702f48305080ae2aab641727f48180a180f35b503461019e578060031936011261019e57600354600554906004549060405192611c8a918285019285841067ffffffffffffffff851117610904579161080a93918695936110ee873960ff63ffffffff85169460201c16928160e01c9163ffffffff8160c01c169161ffff808360b01c169260a01c1690610ee3565b039082f080156108f75760015491906001600160a01b031661082b81610f26565b808252600260205260408220805460ff1916600117905581546001600160a01b0316813b156108f3576040519063f2fde38b60e01b82526004820152828160248183865af180156108e8576108d3575b50600380546001600160a01b03191682179055604051602093909282907f306841c3fce8498c2d9b7194b8da4c04d03847394e237b625ce6d029b107f0779082600080516020612d788339815191528280a280a38152f35b6108de838092610f91565b61019c573861087b565b6040513d85823e3d90fd5b8280fd5b50604051903d90823e3d90fd5b634e487b7160e01b87526041600452602487fd5b503461019e578060031936011261019e57610931610fb3565b80546001600160a01b03198116825581906001600160a01b03167f8be0079c531659141344cd1fd0a4f28419497f9722a3daafe3b4186f6b6457e08280a380f35b503461019e578060031936011261019e576003546040516001600160a01b039091168152602090f35b503461019e578060031936011261019e57602060035460e01c604051908152f35b503461019e57602036600319011261019e576004356001600160a01b0381169081900361019c576109eb610fb3565b808252600260205260ff60408320541615610a2757600380546001600160a01b03191682179055600080516020612d788339815191528280a280f35b60405162461bcd60e51b815260206004820152600e60248201526d11d85b59481b9bdd08199bdd5b9960921b6044820152606490fd5b503461019e578060031936011261019e576020600554604051908152f35b503461019e57610a8a36610cf0565b94610a99949194939293610fb3565b610ab961ffff8816610aae6003821015610d89565b61ffff831611610dc0565b610ac9601460ff87161115610df8565b610ada63ffffffff83161515610e31565b610aeb63ffffffff84161515610e6e565b610afc63ffffffff87161515610eab565b60405196611c8a8089019089821067ffffffffffffffff831117610c0f5791610b31979593918a999795936110ee8b39610ee3565b039082f080156108f75760015491906001600160a01b0316610b5281610f26565b808252600260205260408220805460ff1916600117905581546001600160a01b031692813b156108f3576040519363f2fde38b60e01b85526004850152828460248183865af19384156108e857602094610bfb575b50600380546001600160a01b031916831790556040519282907f306841c3fce8498c2d9b7194b8da4c04d03847394e237b625ce6d029b107f0779082600080516020612d788339815191528280a280a38152f35b83610c0891949294610f91565b9138610ba7565b634e487b7160e01b8b52604160045260248bfd5b503461019e578060031936011261019e576020600154604051908152f35b503461019e57602036600319011261019e576004359060015482101561019e57600154821015610c955760019052600080516020612d9883398151915201546040516001600160a01b039091168152602090f35b634e487b7160e01b81526032600452602490fd5b503461019e578060031936011261019e57602061ffff60035460b01c16604051908152f35b90503461019c578160031936011261019c5760209063ffffffff600454168152f35b60e0906003190112610d615760043561ffff81168103610d61579060243561ffff81168103610d61579060443563ffffffff81168103610d61579060643563ffffffff81168103610d6157906084359060a43560ff81168103610d61579060c43563ffffffff81168103610d615790565b600080fd5b60005b838110610d795750506000910152565b8181015183820152602001610d69565b15610d9057565b60405162461bcd60e51b81526020600482015260086024820152674d696e203e3d203360c01b6044820152606490fd5b15610dc757565b60405162461bcd60e51b815260206004820152600960248201526826b0bc101f1026b4b760b91b6044820152606490fd5b15610dff57565b60405162461bcd60e51b815260206004820152600a602482015269466565203c3d2032302560b01b6044820152606490fd5b15610e3857565b60405162461bcd60e51b815260206004820152600e60248201526d0436f6d6d697420647572203e20360941b6044820152606490fd5b15610e7557565b60405162461bcd60e51b815260206004820152600e60248201526d052657665616c20647572203e20360941b6044820152606490fd5b15610eb257565b60405162461bcd60e51b8152602060048201526009602482015268044656c6179203e20360bc1b6044820152606490fd5b95909796929463ffffffff80958160c09861ffff60ff978160e08e019f168d521660208c01521660408a015216606088015260808701521660a085015216910152565b600154600160401b811015610f7b57600181016001556000600154821015610c955760019052600080516020612d988339815191520180546001600160a01b0319166001600160a01b03909216919091179055565b634e487b7160e01b600052604160045260246000fd5b90601f8019910116810190811067ffffffffffffffff821117610f7b57604052565b6000546001600160a01b03163303610fc757565b63118cdaa760e01b6000523360045260246000fd5b67ffffffffffffffff8111610f7b57601f01601f191660200190565b80156110cd57600081805b6110b5575061101181610fdc565b9061101f6040519283610f91565b808252601f1961102e82610fdc565b013660208401375b8083156110ae578015611098576000190192600a8106603001918260301161109857835185101561108257600a9260f81b6001600160f81b03191660001a908401601f01530491611036565b634e487b7160e01b600052603260045260246000fd5b634e487b7160e01b600052601160045260246000fd5b5050905090565b906000198114611098576001600a9101910480611003565b506040516110dc604082610f91565b60018152600360fc1b60208201529056fe60803461025857601f611c8a38819003918201601f19168301916001600160401b0383118484101761025d5780849260e094604052833981010312610258578051906020810151604082015160608301519060808401519260c060a08601519501519533156102425760008054336001600160a01b03198216811783556040519290916001600160a01b0316907f8be0079c531659141344cd1fd0a4f28419497f9722a3daafe3b4186f6b6457e09080a3600180556003821061020d5750808211156101dc5782156101a657831561017057861561013f576014861161010d5760025560035560045560055560065560075560085560ff1960095416600955604051611a1690816102748239f35b60405162461bcd60e51b815260206004820152600a602482015269466565203c3d2032302560b01b6044820152606490fd5b60405162461bcd60e51b8152602060048201526009602482015268044656c6179203e20360bc1b6044820152606490fd5b60405162461bcd60e51b815260206004820152600e60248201526d052657665616c20647572203e20360941b6044820152606490fd5b60405162461bcd60e51b815260206004820152600e60248201526d0436f6d6d697420647572203e20360941b6044820152606490fd5b60405162461bcd60e51b815260206004820152600960248201526826b0bc101f1036b4b760b91b6044820152606490fd5b62461bcd60e51b815260206004820152601060248201526f4d696e20706c6179657273203e3d203360801b6044820152606490fd5b631e4fbdf760e01b600052600060045260246000fd5b600080fd5b634e487b7160e01b600052604160045260246000fdfe608080604052600436101561001357600080fd5b60003560e01c908163055ad42e1461108857508063072ea61c1461106a57806307f6aee81461104c5780630a4a922e1461102757806315c6aee214610fe5578063180c18c314610dff5780632770c89514610de15780633ccfd60b14610cb25780634717f97c14610c575780634c2412a214610c39578063608a5d9514610af85780636f83381114610ada578063715018a614610a81578063719ce73e14610a63578063886a6de114610a455780638b5b9ccc146109955780638da5cb5b1461096c578063995bc51e1461094e578063b03b20301461092d578063b07ddf8a1461090f578063b1501f9c14610702578063b250717a146106e0578063c2e52206146106c2578063d4f77b1c14610326578063dac6270d14610303578063dfbf53ae146102da578063e2eb41ff14610265578063eced028014610239578063f2fde38b146101ac5763f3f437031461016957600080fd5b346101a75760203660031901126101a7576004356001600160a01b038116908190036101a75760005260126020526020604060002054604051908152f35b600080fd5b346101a75760203660031901126101a7576004356001600160a01b038116908190036101a7576101da6119b7565b801561022357600080546001600160a01b03198116831782556001600160a01b0316907f8be0079c531659141344cd1fd0a4f28419497f9722a3daafe3b4186f6b6457e09080a3005b631e4fbdf760e01b600052600060045260246000fd5b346101a75760003660031901126101a75761026161025561191b565b604051918291826110a5565b0390f35b346101a75760203660031901126101a7576004356001600160a01b038116908190036101a757600052600b60205260a0604060002060ff6001825492015460405192835261ffff81166020840152818160101c1615156040840152818160181c161515606084015260201c1615156080820152f35b346101a75760003660031901126101a757601054604051602091821c6001600160a01b03168152f35b346101a75760003660031901126101a757602061031e611894565b604051908152f35b60003660031901126101a75761033a611995565b61034261191b565b60068110158061066857811580156106b5575b1561067e576106685760011480610650575b61061657600c5460035411156105e55733600052600b60205260ff60016040600020015460201c166105af576006543403610574576040516103a8816110e9565b60008082526020808301828152604080850184815260608601858152600160808801818152338852600b87528488209851895594519701805492519151945164ffffffffff1990931661ffff989098169790971790151560101b62ff0000161792151560181b63ff0000001692909217911515831b64ff000000001691909117909355600c54600d909152919020819055600160401b81101561055e576104588160016104769301600c556110b8565b81546001600160a01b0360039290921b91821b19163390911b179055565b61048234601154611127565b6011556040513481527f3330a6773675f31f62070870f40379f8c6d42e3761410011a4dfc42b18043d2f60203392a2600c54600254111580610554575b6104ca575b60018055005b42600a55600160ff1960095416176009557ff2546de66f180061ee75953fe1999fc0475daef64d87e75ad834022b57031d2f60c0600a5460085461052461051b6105148385611127565b9284611127565b60045490611127565b6006546002549160035493604051958652602086015260408501526060840152608083015260a0820152a16104c4565b50600a54156104bf565b634e487b7160e01b600052604160045260246000fd5b60405162461bcd60e51b8152602060048201526013602482015272496e636f727265637420656e7472792066656560681b6044820152606490fd5b60405162461bcd60e51b815260206004820152600e60248201526d105b1c9958591e481a9bda5b995960921b6044820152606490fd5b60405162461bcd60e51b815260206004820152600960248201526811d85b5948199d5b1b60ba1b6044820152606490fd5b60405162461bcd60e51b8152602060048201526012602482015271129bda5b881dda5b991bddc818db1bdcd95960721b6044820152606490fd5b50610660600a5460085490611127565b421015610367565b634e487b7160e01b600052602160045260246000fd5b60405162461bcd60e51b815260206004820152600f60248201526e43616e6e6f74206a6f696e206e6f7760881b6044820152606490fd5b5050600060018214610355565b346101a75760003660031901126101a7576020600c54604051908152f35b346101a75760003660031901126101a757602061ffff60105416604051908152f35b346101a75760003660031901126101a75761071b611995565b61072361191b565b6006811015610668576108d75733600052600b60205260ff60016040600020015460201c16156108a55733600052600d602052604060002054600c54600019810190811161088f57610774906110b8565b905460039190911b1c6001600160a01b03166107b781610793846110b8565b81546001600160a01b0393841660039290921b91821b9390911b1916919091179055565b600052600d602052604060002055600c54801561087957600019016107db816110b8565b81549060018060a01b039060031b1b19169055600c5533600052600d6020526000604081205560065461081081601154611201565b60115533600052601260205261082c6040600020918254611127565b905533600052600b602052600060016040822082815501556006546040519081527f7fcf532c15f0a6db0bd6d0e038bea71d30d808c7d98cb3bf7268a95bf5081b6560203392a260018055005b634e487b7160e01b600052603160045260246000fd5b634e487b7160e01b600052601160045260246000fd5b60405162461bcd60e51b815260206004820152600a602482015269139bdd081a9bda5b995960b21b6044820152606490fd5b60405162461bcd60e51b815260206004820152601060248201526f43616e6e6f74206c65617665206e6f7760801b6044820152606490fd5b346101a75760003660031901126101a7576020600a54604051908152f35b346101a75760003660031901126101a757610946611995565b6104c46114d2565b346101a75760003660031901126101a7576020600754604051908152f35b346101a75760003660031901126101a7576000546040516001600160a01b039091168152602090f35b346101a75760003660031901126101a757604051806020600c5492838152018092600c60005260206000209060005b818110610a2657505050816109da910382611105565b6040519182916020830190602084525180915260408301919060005b818110610a04575050500390f35b82516001600160a01b03168452859450602093840193909201916001016109f6565b82546001600160a01b03168452602090930192600192830192016109c4565b346101a75760003660031901126101a7576020600554604051908152f35b346101a75760003660031901126101a7576020601154604051908152f35b346101a75760003660031901126101a757610a9a6119b7565b600080546001600160a01b0319811682556001600160a01b03167f8be0079c531659141344cd1fd0a4f28419497f9722a3daafe3b4186f6b6457e08280a3005b346101a75760003660031901126101a7576020600454604051908152f35b346101a75760203660031901126101a757610b11611995565b610b1961191b565b600681101561066857600203610c015733600052600b60205260406000206001810190815460ff8160201c1615610bcd5760ff8160101c16610b945760043590915562ff0000191662010000179055337f2245d2014b9bc41d5ccc6707edcba84a49b93b49441335f266a3e83b4e6330fd600080a260018055005b60405162461bcd60e51b8152602060048201526011602482015270105b1c9958591e4818dbdb5b5a5d1d1959607a1b6044820152606490fd5b60405162461bcd60e51b815260206004820152600c60248201526b2737ba103090383630bcb2b960a11b6044820152606490fd5b60405162461bcd60e51b815260206004820152601060248201526f4e6f7420636f6d6d697420706861736560801b6044820152606490fd5b346101a75760003660031901126101a7576020600354604051908152f35b346101a75760003660031901126101a75760a0610c7261120e565b60806040519161ffff815116835261ffff6020820151166020840152600180851b0360408201511660408401526060810151606084015201516080820152f35b346101a75760003660031901126101a757610ccb611995565b3360005260126020526040600020548015610da55733600052601260205260006040812055600080808084335af13d15610da0573d67ffffffffffffffff811161055e5760405190610d27601f8201601f191660200183611105565b8152600060203d92013e5b15610d69576040519081527f7fcf532c15f0a6db0bd6d0e038bea71d30d808c7d98cb3bf7268a95bf5081b6560203392a260018055005b60405162461bcd60e51b815260206004820152600f60248201526e151c985b9cd9995c8819985a5b1959608a1b6044820152606490fd5b610d32565b60405162461bcd60e51b81526020600482015260146024820152734e6f2066756e647320746f20776974686472617760601b6044820152606490fd5b346101a75760003660031901126101a7576020600254604051908152f35b346101a75760403660031901126101a757600435610e1b611995565b610e2361191b565b600681101561066857600303610fad5733600052600b60205260406000206001810190815460ff8160201c1680610fa0575b15610f695760181c60ff16610f31576040516020810190848252602435604082015260408152610e86606082611105565b519020905403610efb57805463ff00ffff191661ffff8316176301000000179055600e54610eb5908290611127565b600e55600f546001810180911161088f57600f556040519081527f54e8949e94ed0014d3a5385209b286177ba08c3416d2ee667a54f0341c46dd1d60203392a260018055005b60405162461bcd60e51b815260206004820152600e60248201526d125b9d985b1a59081c995d99585b60921b6044820152606490fd5b60405162461bcd60e51b815260206004820152601060248201526f105b1c9958591e481c995d99585b195960821b6044820152606490fd5b60405162461bcd60e51b815260206004820152600f60248201526e139bc818dbdb5b5a5d08199bdd5b99608a1b6044820152606490fd5b5060ff8160101c16610e55565b60405162461bcd60e51b815260206004820152601060248201526f4e6f742072657665616c20706861736560801b6044820152606490fd5b346101a75760203660031901126101a757600435600c548110156101a75761100e6020916110b8565b905460405160039290921b1c6001600160a01b03168152f35b346101a75760003660031901126101a757602061ffff60105460101c16604051908152f35b346101a75760003660031901126101a7576020600854604051908152f35b346101a75760003660031901126101a7576020600654604051908152f35b346101a75760003660031901126101a7578061026160ff60095416825b9190602083019260068210156106685752565b600c548110156110d357600c60005260206000200190600090565b634e487b7160e01b600052603260045260246000fd5b60a0810190811067ffffffffffffffff82111761055e57604052565b90601f8019910116810190811067ffffffffffffffff82111761055e57604052565b9190820180921161088f57565b600019811461088f5760010190565b811561114d570490565b634e487b7160e01b600052601260045260246000fd5b8181029291811591840414171561088f57565b67ffffffffffffffff811161055e5760051b60200190565b9061119882611176565b6111a56040519182611105565b82815280926111b6601f1991611176565b0190602036910137565b9061ffff8091169116039061ffff821161088f57565b8051156110d35760200190565b80518210156110d35760209160051b010190565b811561114d570690565b9190820391821161088f57565b60405161121a816110e9565b600080825260208201818152604083018281526060840183815260808501848152600c54938593879391855b8781106114715750871561144a5750505050508261126391611143565b6201fffe61ffff82169182865260011b16908082046002149015171561088f576003900461ffff16602084018190529091600019906112a19061118e565b926000926000925b82841061136457505050506001810361130057506001600160a01b03906112cf906111d6565b511660408201525b6011546112f360646112eb60075484611163565b048092611201565b6060830152608082015290565b9061135890611352604051936020850161133e866113308444428691606093918352602083015260408201520190565b03601f198101885287611105565b94519094206001600160a01b0394906111f7565b906111e3565b511660408201526112d7565b90919293611371856110b8565b60018060a01b0391549060031b1c16600052600b60205260016040600020015460ff8160181c161561143d5761ffff908116848082111561142e576113b5916111c0565b1691808310156113f15750509060016113cd856110b8565b828060a01b0391549060031b1c169481956113e7886111d6565b525b0192916112a9565b9291948360019296036113e957611407816110b8565b838060a01b0391549060031b1c1661142861142188611134565b97896111e3565b526113e9565b90611438916111c0565b6113b5565b50936001909291926113e9565b60008086529081905280546001600160a01b03169091526011549091529052949350505050565b61147a816110b8565b60018060a01b0391549060031b1c16600052600b60205260016040600020015460ff8160181c166114af575b50600101611246565b6114c56001929a9861ffff6114cb931690611127565b97611134565b98906114a6565b6114da61191b565b60068110156106685760040361185d57600e54600f549081156117aa578161150191611143565b60105461ffff8216929160011b6201fffe168315600285830414171561088f57600390049163ffff000061ffff84169360101b16808563ffffffff198516171760105561155061ffff9261118e565b91600090600c549082905b8282106116e057505050918593917fcdc4afcdc6daf8ff210712ce89721e9b20a1f38920663854ea898dab74433e7e968460016080989614600014611678575050506115a791506111d6565b5160108054640100000000600160c01b03191660209290921b640100000000600160c01b03169190911790555b601154906115f160646115e960075485611163565b048093611201565b9160018060a01b036000541660005260126020526116156040600020918254611127565b905560018060a01b0360105460201c166000526012602052604060002061163d838254611127565b9055611651600560ff196009541617600955565b60018060a01b0360105460201c1690604051938452602084015260408301526060820152a1565b9091926116c29061135260405193602085016116aa866113308444428691606093918352602083015260408201520190565b9451909420640100000000600160c01b0394906111f7565b5160201b169267ffffffffffffffff60c01b161717176010556115d4565b6116e9826110b8565b60018060a01b0391549060031b1c169384600052600b60205260016040600020015460ff8160181c161561179e5761ffff16898082111561178e5761172d916111c0565b915b61ffff811661ffff841681811060001461175f5750505050600190918194611756886111d6565b525b019061155b565b60019450969194929614611774575b50611758565b61178761178087611134565b96896111e3565b523861176e565b90611798916111c0565b9161172f565b50935090600190611758565b5050601154600080546001600160a01b03168152601260205260409020805490916117d491611127565b9055600054601080546001600160c01b03191660209290921b640100000000600160c01b03169190911790556009805460ff191660051790557fcdc4afcdc6daf8ff210712ce89721e9b20a1f38920663854ea898dab74433e7e608060018060a01b0360105460201c1660115460405191600083526000602084015260408301526060820152a1565b60405162461bcd60e51b815260206004820152600f60248201526e4e6f742066696e616c697a61626c6560881b6044820152606490fd5b600c5460025411611916576118ae600a5460085490611127565b6118ba60045482611127565b906118c760055483611127565b918142106000146118e257506118df91504290611201565b90565b80915042106000146118fa576118df91504290611201565b50804210600014611910576118df904290611201565b50600090565b600090565b60ff6009541660068110156106685760051461199057600c54600254116119165761194b600a5460085490611127565b61195760045482611127565b61196360055482611127565b91421015611972575050600190565b42101561197f5750600290565b42101561198b57600390565b600490565b600590565b6002600154146119a6576002600155565b633ee5aeb560e01b60005260046000fd5b6000546001600160a01b031633036119cb57565b63118cdaa760e01b6000523360045260246000fdfea26469706673582212206136b9200501b6310e33e4e3da1dc45351757f0a1f328d2855912e83e517d40064736f6c634300081c00337a9d2672fd75e3078b7b33d9b23fd531ffc2187caca206f34e26908b6f275384b10e2d527612073b26eecdfd717e6a320cf44b4afac2b0732d9fcbe2b7fa0cf6a264697066735822122036a0a5bf7d33cd0b30ed84eeb6ebe265947a00ef9d7cf65788bcfe670c29e13664736f6c634300081c0033",
  "linkReferences": {},
  "deployedLinkReferences": {}
}