{
  "_format": "hh-sol-artifact-1",
  "contractName": "TwoThirdsAverageGame",
  "sourceName": "contracts/TwoThirdsAverageGame.sol",
  "abi": [
    {
      "inputs": [
        {
          "internalType": "uint256",
          "name": "_minPlayers",
          "type": "uint256"
        },
        {
          "internalType": "uint256",
          "name": "_maxPlayers",
          "type": "uint256"
        },
        {
          "internalType": "uint256",
          "name": "_commitDuration",
          "type": "uint256"
        },
        {
          "internalType": "uint256",
          "name": "_revealDuration",
          "type": "uint256"
        },
        {
          "internalType": "uint256",
          "name": "_entryFee",
          "type": "uint256"
        },
        {
          "internalType": "uint256",
          "name": "_serviceFeePercent",
          "type": "uint256"
        },
        {
          "internalType": "uint256",
          "name": "_autoStartDelay",
          "type": "uint256"
        }
      ],
      "stateMutability": "nonpayable",
      "type": "constructor"
    },
    {
      "inputs": [
        {
          "internalType": "address",
          "name": "owner",
          "type": "address"
        }
      ],
      "name": "OwnableInvalidOwner",
      "type": "error"
    },
    {
      "inputs": [
        {
          "internalType": "address",
          "name": "account",
          "type": "address"
        }
      ],
      "name": "OwnableUnauthorizedAccount",
      "type": "error"
    },
    {
      "inputs": [],
      "name": "ReentrancyGuardReentrantCall",
      "type": "error"
    },
    {
      "anonymous": false,
      "inputs": [
        {
          "indexed": false,
          "internalType": "uint256",
          "name": "average",
          "type": "uint256"
        },
        {
          "indexed": false,
          "internalType": "uint256",
          "name": "twoThirdsAverage",
          "type": "uint256"
        },
        {
          "indexed": false,
          "internalType": "address",
          "name": "winner",
          "type": "address"
        },
        {
          "indexed": false,
          "internalType": "uint256",
          "name": "prize",
          "type": "uint256"
        }
      ],
      "name": "GameEnded",
      "type": "event"
    },
    {
      "anonymous": false,
      "inputs": [
        {
          "indexed": false,
          "internalType": "uint256",
          "name": "startTime",
          "type": "uint256"
        },
        {
          "indexed": false,
          "internalType": "uint256",
          "name": "commitStart",
          "type": "uint256"
        },
        {
          "indexed": false,
          "internalType": "uint256",
          "name": "commitEnd",
          "type": "uint256"
        },
        {
          "indexed": false,
          "internalType": "uint256",
          "name": "entryFee",
          "type": "uint256"
        },
        {
          "indexed": false,
          "internalType": "uint256",
          "name": "minPlayers",
          "type": "uint256"
        },
        {
          "indexed": false,
          "internalType": "uint256",
          "name": "maxPlayers",
          "type": "uint256"
        }
      ],
      "name": "GameStarting",
      "type": "event"
    },
    {
      "anonymous": false,
      "inputs": [
        {
          "indexed": true,
          "internalType": "address",
          "name": "player",
          "type": "address"
        }
      ],
      "name": "GuessCommitted",
      "type": "event"
    },
    {
      "anonymous": false,
      "inputs": [
        {
          "indexed": true,
          "internalType": "address",
          "name": "player",
          "type": "address"
        },
        {
          "indexed": false,
          "internalType": "uint256",
          "name": "guess",
          "type": "uint256"
        }
      ],
      "name": "GuessRevealed",
      "type": "event"
    },
    {
      "anonymous": false,
      "inputs": [
        {
          "indexed": true,
          "internalType": "address",
          "name": "previousOwner",
          "type": "address"
        },
        {
          "indexed": true,
          "internalType": "address",
          "name": "newOwner",
          "type": "address"
        }
      ],
      "name": "OwnershipTransferred",
      "type": "event"
    },
    {
      "anonymous": false,
      "inputs": [
        {
          "indexed": true,
          "internalType": "address",
          "name": "player",
          "type": "address"
        },
        {
          "indexed": false,
          "internalType": "uint256",
          "name": "entryFeePaid",
          "type": "uint256"
        }
      ],
      "name": "PlayerJoined",
      "type": "event"
    },
    {
      "anonymous": false,
      "inputs": [
        {
          "indexed": true,
          "internalType": "address",
          "name": "recipient",
          "type": "address"
        },
        {
          "indexed": false,
          "internalType": "uint256",
          "name": "amount",
          "type": "uint256"
        }
      ],
      "name": "Withdrawal",
      "type": "event"
    },
    {
      "inputs": [],
      "name": "autoStartDelay",
      "outputs": [
        {
          "internalType": "uint256",
          "name": "",
          "type": "uint256"
        }
      ],
      "stateMutability": "view",
      "type": "function"
    },
    {
      "inputs": [],
      "name": "average",
      "outputs": [
        {
          "internalType": "uint256",
          "name": "",
          "type": "uint256"
        }
      ],
      "stateMutability": "view",
      "type": "function"
    },
    {
      "inputs": [],
      "name": "commitDuration",
      "outputs": [
        {
          "internalType": "uint256",
          "name": "",
          "type": "uint256"
        }
      ],
      "stateMutability": "view",
      "type": "function"
    },
    {
      "inputs": [
        {
          "internalType": "bytes32",
          "name": "hash",
          "type": "bytes32"
        }
      ],
      "name": "commitGuess",
      "outputs": [],
      "stateMutability": "nonpayable",
      "type": "function"
    },
    {
      "inputs": [],
      "name": "currentPhase",
      "outputs": [
        {
          "internalType": "enum TwoThirdsAverageGame.GamePhase",
          "name": "",
          "type": "uint8"
        }
      ],
      "stateMutability": "view",
      "type": "function"
    },
    {
      "inputs": [],
      "name": "entryFee",
      "outputs": [
        {
          "internalType": "uint256",
          "name": "",
          "type": "uint256"
        }
      ],
      "stateMutability": "view",
      "type": "function"
    },
    {
      "inputs": [],
      "name": "finalizeGame",
      "outputs": [],
      "stateMutability": "nonpayable",
      "type": "function"
    },
    {
      "inputs": [],
      "name": "getPhase",
      "outputs": [
        {
          "internalType": "enum TwoThirdsAverageGame.GamePhase",
          "name": "",
          "type": "uint8"
        }
      ],
      "stateMutability": "view",
      "type": "function"
    },
    {
      "inputs": [],
      "name": "getPlayerCount",
      "outputs": [
        {
          "internalType": "uint256",
          "name": "",
          "type": "uint256"
        }
      ],
      "stateMutability": "view",
      "type": "function"
    },
    {
      "inputs": [],
      "name": "getPlayers",
      "outputs": [
        {
          "internalType": "address[]",
          "name": "",
          "type": "address[]"
        }
      ],
      "stateMutability": "view",
      "type": "function"
    },
    {
      "inputs": [],
      "name": "getResults",
      "outputs": [
        {
          "components": [
            {
              "internalType": "uint256",
              "name": "average",
              "type": "uint256"
            },
            {
              "internalType": "uint256",
              "name": "twoThirdsAverage",
              "type": "uint256"
            },
            {
              "internalType": "address",
              "name": "winner",
              "type": "address"
            },
            {
              "internalType": "uint256",
              "name": "prize",
              "type": "uint256"
            },
            {
              "internalType": "uint256",
              "name": "serviceFee",
              "type": "uint256"
            }
          ],
          "internalType": "struct TwoThirdsAverageGame.Results",
          "name": "r",
          "type": "tuple"
        }
      ],
      "stateMutability": "view",
      "type": "function"
    },
    {
      "inputs": [],
      "name": "getTimeRemaining",
      "outputs": [
        {
          "internalType": "uint256",
          "name": "",
          "type": "uint256"
        }
      ],
      "stateMutability": "view",
      "type": "function"
    },
    {
      "inputs": [],
      "name": "joinGame",
      "outputs": [],
      "stateMutability": "payable",
      "type": "function"
    },
    {
      "inputs": [],
      "name": "leaveGame",
      "outputs": [],
      "stateMutability": "nonpayable",
      "type": "function"
    },
    {
      "inputs": [],
      "name": "maxPlayers",
      "outputs": [
        {
          "internalType": "uint256",
          "name": "",
          "type": "uint256"
        }
      ],
      "stateMutability": "view",
      "type": "function"
    },
    {
      "inputs": [],
      "name": "minPlayers",
      "outputs": [
        {
          "internalType": "uint256",
          "name": "",
          "type": "uint256"
        }
      ],
      "stateMutability": "view",
      "type": "function"
    },
    {
      "inputs": [],
      "name": "minPlayersReachedTime",
      "outputs": [
        {
          "internalType": "uint256",
          "name": "",
          "type": "uint256"
        }
      ],
      "stateMutability": "view",
      "type": "function"
    },
    {
      "inputs": [],
      "name": "owner",
      "outputs": [
        {
          "internalType": "address",
          "name": "",
          "type": "address"
        }
      ],
      "stateMutability": "view",
      "type": "function"
    },
    {
      "inputs": [
        {
          "internalType": "address",
          "name": "",
          "type": "address"
        }
      ],
      "name": "pendingWithdrawals",
      "outputs": [
        {
          "internalType": "uint256",
          "name": "",
          "type": "uint256"
        }
      ],
      "stateMutability": "view",
      "type": "function"
    },
    {
      "inputs": [
        {
          "internalType": "uint256",
          "name": "",
          "type": "uint256"
        }
      ],
      "name": "playerAddresses",
      "outputs": [
        {
          "internalType": "address",
          "name": "",
          "type": "address"
        }
      ],
      "stateMutability": "view",
      "type": "function"
    },
    {
      "inputs": [
        {
          "internalType": "address",
          "name": "",
          "type": "address"
        }
      ],
      "name": "players",
      "outputs": [
        {
          "internalType": "bytes32",
          "name": "commitment",
          "type": "bytes32"
        },
        {
          "internalType": "uint256",
          "name": "revealedGuess",
          "type": "uint256"
        },
        {
          "internalType": "bool",
          "name": "hasCommitted",
          "type": "bool"
        },
        {
          "internalType": "bool",
          "name": "hasRevealed",
          "type": "bool"
        },
        {
          "internalType": "bool",
          "name": "hasJoined",
          "type": "bool"
        }
      ],
      "stateMutability": "view",
      "type": "function"
    },
    {
      "inputs": [],
      "name": "prizePool",
      "outputs": [
        {
          "internalType": "uint256",
          "name": "",
          "type": "uint256"
        }
      ],
      "stateMutability": "view",
      "type": "function"
    },
    {
      "inputs": [],
      "name": "renounceOwnership",
      "outputs": [],
      "stateMutability": "nonpayable",
      "type": "function"
    },
    {
      "inputs": [],
      "name": "revealDuration",
      "outputs": [
        {
          "internalType": "uint256",
          "name": "",
          "type": "uint256"
        }
      ],
      "stateMutability": "view",
      "type": "function"
    },
    {
      "inputs": [
        {
          "internalType": "uint256",
          "name": "guess",
          "type": "uint256"
        },
        {
          "internalType": "bytes32",
          "name": "salt",
          "type": "bytes32"
        }
      ],
      "name": "revealGuess",
      "outputs": [],
      "stateMutability": "nonpayable",
      "type": "function"
    },
    {
      "inputs": [],
      "name": "serviceFeePercent",
      "outputs": [
        {
          "internalType": "uint256",
          "name": "",
          "type": "uint256"
        }
      ],
      "stateMutability": "view",
      "type": "function"
    },
    {
      "inputs": [
        {
          "internalType": "address",
          "name": "newOwner",
          "type": "address"
        }
      ],
      "name": "transferOwnership",
      "outputs": [],
      "stateMutability": "nonpayable",
      "type": "function"
    },
    {
      "inputs": [],
      "name": "twoThirdsAverage",
      "outputs": [
        {
          "internalType": "uint256",
          "name": "",
          "type": "uint256"
        }
      ],
      "stateMutability": "view",
      "type": "function"
    },
    {
      "inputs": [],
      "name": "winner",
      "outputs": [
        {
          "internalType": "address",
          "name": "",
          "type": "address"
        }
      ],
      "stateMutability": "view",
      "type": "function"
    },
    {
      "inputs": [],
      "name": "withdraw",
      "outputs": [],
      "stateMutability": "nonpayable",
      "type": "function"
    }
  ],
  "bytecode": "0x60803461025857601f611c0138819003918201601f19168301916001600160401b0383118484101761025d5780849260e094604052833981010312610258578051906020810151604082015160608301519060808401519260c060a08601519501519533156102425760008054336001600160a01b03198216811783556040519290916001600160a01b0316907f8be0079c531659141344cd1fd0a4f28419497f9722a3daafe3b4186f6b6457e09080a3600180556003821061020d5750808211156101dc5782156101a657831561017057861561013f576014861161010d5760025560035560045560055560065560075560085560ff196009541660095560405161198d90816102748239f35b60405162461bcd60e51b815260206004820152600a602482015269466565203c3d2032302560b01b6044820152606490fd5b60405162461bcd60e51b8152602060048201526009602482015268044656c6179203e20360bc1b6044820152606490fd5b60405162461bcd60e51b815260206004820152600e60248201526d052657665616c20647572203e20360941b6044820152606490fd5b60405162461bcd60e51b815260206004820152600e60248201526d0436f6d6d697420647572203e20360941b6044820152606490fd5b60405162461bcd60e51b815260206004820152600960248201526826b0bc101f1036b4b760b91b6044820152606490fd5b62461bcd60e51b815260206004820152601060248201526f4d696e20706c6179657273203e3d203360801b6044820152606490fd5b631e4fbdf760e01b600052600060045260246000fd5b600080fd5b634e487b7160e01b600052604160045260246000fdfe608080604052600436101561001357600080fd5b60003560e01c908163055ad42e1461102c57508063072ea61c1461100e57806307f6aee814610ff05780630a4a922e14610fd257806315c6aee214610f90578063180c18c314610dda5780632770c89514610dbc5780633ccfd60b14610c995780634717f97c14610c465780634c2412a214610c28578063608a5d9514610b1f5780636f83381114610b01578063715018a614610aa8578063719ce73e14610a8a578063886a6de114610a6c5780638b5b9ccc146109bc5780638da5cb5b14610993578063995bc51e14610975578063b03b203014610905578063b07ddf8a146108e7578063b1501f9c146106f3578063b250717a146106d5578063c2e52206146106b7578063d4f77b1c14610325578063dac6270d14610302578063dfbf53ae146102d9578063e2eb41ff14610265578063eced028014610239578063f2fde38b146101ac5763f3f437031461016957600080fd5b346101a75760203660031901126101a7576004356001600160a01b038116908190036101a75760005260116020526020604060002054604051908152f35b600080fd5b346101a75760203660031901126101a7576004356001600160a01b038116908190036101a7576101da6115af565b801561022357600080546001600160a01b03198116831782556001600160a01b0316907f8be0079c531659141344cd1fd0a4f28419497f9722a3daafe3b4186f6b6457e09080a3005b631e4fbdf760e01b600052600060045260246000fd5b346101a75760003660031901126101a757610261610255611513565b60405191829182611049565b0390f35b346101a75760203660031901126101a7576004356001600160a01b038116908190036101a757600052600b60205260a0604060002060ff8154916002600182015491015490604051938452602084015281811615156040840152818160081c161515606084015260101c1615156080820152f35b346101a75760003660031901126101a757600f546040516001600160a01b039091168152602090f35b346101a75760003660031901126101a757602061031d61148c565b604051908152f35b60003660031901126101a75761033961158d565b610341611513565b60068110156106545715801561069d575b1561066a5760ff600954166006811015610654576001148061063c575b61060257600c5460035411156105d15733600052600b60205260ff60026040600020015460101c1661059b576006543403610564576040516103b08161108d565b60008082526020808301828152604080850184815260608601858152600160808801818152338852600b90965292909520955186559151908501555160029390930180549251915162ffffff1990931660ff941515949094169390931790151560081b61ff00161790151560101b62ff000016179055600c54600160401b81101561054e576104488160016104669301600c5561105c565b81546001600160a01b0360039290921b91821b19163390911b179055565b610472346010546110cb565b6010556040513481527f3330a6773675f31f62070870f40379f8c6d42e3761410011a4dfc42b18043d2f60203392a2600c54600254111580610544575b6104ba575b60018055005b42600a55600160ff1960095416176009557ff2546de66f180061ee75953fe1999fc0475daef64d87e75ad834022b57031d2f60c0600a5460085461051461050b61050483856110cb565b92846110cb565b600454906110cb565b6006546002549160035493604051958652602086015260408501526060840152608083015260a0820152a16104b4565b50600a54156104af565b634e487b7160e01b600052604160045260246000fd5b60405162461bcd60e51b815260206004820152600f60248201526e57726f6e6720656e7472792066656560881b6044820152606490fd5b60405162461bcd60e51b815260206004820152600e60248201526d105b1c9958591e481a9bda5b995960921b6044820152606490fd5b60405162461bcd60e51b815260206004820152600960248201526811d85b5948199d5b1b60ba1b6044820152606490fd5b60405162461bcd60e51b8152602060048201526012602482015271129bda5b881dda5b991bddc818db1bdcd95960721b6044820152606490fd5b5061064c600a54600854906110cb565b42101561036f565b634e487b7160e01b600052602160045260246000fd5b60405162461bcd60e51b815260206004820152600b60248201526a21b0b73737ba103537b4b760a91b6044820152606490fd5b506106a6611513565b600681101561065457600114610352565b346101a75760003660031901126101a7576020600c54604051908152f35b346101a75760003660031901126101a7576020600d54604051908152f35b346101a75760003660031901126101a75761070c61158d565b610714611513565b6006811015610654576108ae5733600052600b60205261074160ff60026040600020015460101c16611453565b33600052600b602052600260406000200162ff000019815416905560065461076b81601054611164565b60105533600052601160205261078760406000209182546110cb565b9055600c546000805b82811061087d575b506000198201918211610867576107cc6107b46107f09361105c565b905460039190911b1c6001600160a01b03169161105c565b81546001600160a01b0393841660039290921b91821b9390911b1916919091179055565b600c54801561085157600019016108068161105c565b81549060018060a01b039060031b1b19169055600c556006546040519081527f7fcf532c15f0a6db0bd6d0e038bea71d30d808c7d98cb3bf7268a95bf5081b6560203392a260018055005b634e487b7160e01b600052603160045260246000fd5b634e487b7160e01b600052601160045260246000fd5b6108868161105c565b905460039190911b1c6001600160a01b031633146108a657600101610790565b905082610798565b60405162461bcd60e51b8152602060048201526011602482015270546f6f206c61746520746f206c6561766560781b6044820152606490fd5b346101a75760003660031901126101a7576020600a54604051908152f35b346101a75760003660031901126101a75761091e61158d565b610926611513565b60068110156106545760040361093e576104b46115d8565b60405162461bcd60e51b815260206004820152600f60248201526e4e6f742066696e616c697a61626c6560881b6044820152606490fd5b346101a75760003660031901126101a7576020600754604051908152f35b346101a75760003660031901126101a7576000546040516001600160a01b039091168152602090f35b346101a75760003660031901126101a757604051806020600c5492838152018092600c60005260206000209060005b818110610a4d5750505081610a019103826110a9565b6040519182916020830190602084525180915260408301919060005b818110610a2b575050500390f35b82516001600160a01b0316845285945060209384019390920191600101610a1d565b82546001600160a01b03168452602090930192600192830192016109eb565b346101a75760003660031901126101a7576020600554604051908152f35b346101a75760003660031901126101a7576020601054604051908152f35b346101a75760003660031901126101a757610ac16115af565b600080546001600160a01b0319811682556001600160a01b03167f8be0079c531659141344cd1fd0a4f28419497f9722a3daafe3b4186f6b6457e08280a3005b346101a75760003660031901126101a7576020600454604051908152f35b346101a75760203660031901126101a757610b3861158d565b610b40611513565b600681101561065457600203610bf05733600052600b602052604060002060028101908154610b7460ff8260101c16611453565b60ff8116610bb75760043590915560ff19166001179055337f2245d2014b9bc41d5ccc6707edcba84a49b93b49441335f266a3e83b4e6330fd600080a260018055005b60405162461bcd60e51b8152602060048201526011602482015270105b1c9958591e4818dbdb5b5a5d1d1959607a1b6044820152606490fd5b60405162461bcd60e51b815260206004820152601060248201526f4e6f7420636f6d6d697420706861736560801b6044820152606490fd5b346101a75760003660031901126101a7576020600354604051908152f35b346101a75760003660031901126101a75760a0610c6161119c565b6080604051918051835260208101516020840152600180851b0360408201511660408401526060810151606084015201516080820152f35b346101a75760003660031901126101a757610cb261158d565b3360005260116020526040600020548015610d8c5733600052601160205260006040812055600080808084335af13d15610d87573d67ffffffffffffffff811161054e5760405190610d0e601f8201601f1916602001836110a9565b8152600060203d92013e5b15610d50576040519081527f7fcf532c15f0a6db0bd6d0e038bea71d30d808c7d98cb3bf7268a95bf5081b6560203392a260018055005b60405162461bcd60e51b815260206004820152600f60248201526e15da5d1a191c985dc819985a5b1959608a1b6044820152606490fd5b610d19565b60405162461bcd60e51b81526020600482015260086024820152674e6f2066756e647360c01b6044820152606490fd5b346101a75760003660031901126101a7576020600254604051908152f35b346101a75760403660031901126101a757600435610df661158d565b610dfe611513565b600681101561065457600303610f585733600052600b60205260406000206002810190815460ff8160101c1680610f4e575b15610f1d5760ff8160081c16610ee5576040516020810190858252602435604082015260408152610e626060826110a9565b519020825403610eaf5783600161010093015561ff0019161790556040519081527f54e8949e94ed0014d3a5385209b286177ba08c3416d2ee667a54f0341c46dd1d60203392a260018055005b60405162461bcd60e51b815260206004820152600e60248201526d125b9d985b1a59081c995d99585b60921b6044820152606490fd5b60405162461bcd60e51b815260206004820152601060248201526f105b1c9958591e481c995d99585b195960821b6044820152606490fd5b60405162461bcd60e51b8152602060048201526009602482015268139bc818dbdb5b5a5d60ba1b6044820152606490fd5b5060ff8116610e30565b60405162461bcd60e51b815260206004820152601060248201526f4e6f742072657665616c20706861736560801b6044820152606490fd5b346101a75760203660031901126101a757600435600c548110156101a757610fb960209161105c565b905460405160039290921b1c6001600160a01b03168152f35b346101a75760003660031901126101a7576020600e54604051908152f35b346101a75760003660031901126101a7576020600854604051908152f35b346101a75760003660031901126101a7576020600654604051908152f35b346101a75760003660031901126101a7578061026160ff60095416825b9190602083019260068210156106545752565b600c5481101561107757600c60005260206000200190600090565b634e487b7160e01b600052603260045260246000fd5b60a0810190811067ffffffffffffffff82111761054e57604052565b90601f8019910116810190811067ffffffffffffffff82111761054e57604052565b9190820180921161086757565b60001981146108675760010190565b81156110f1570490565b634e487b7160e01b600052601260045260246000fd5b8181029291811591840414171561086757565b67ffffffffffffffff811161054e5760051b60200190565b9061113c8261111a565b61114960405191826110a9565b828152809261115a601f199161111a565b0190602036910137565b9190820391821161086757565b8051156110775760200190565b80518210156110775760209160051b010190565b81156110f1570690565b6040516111a88161108d565b600080825260208201818152604083018281526060840183815260808501848152600c54938593879391855b8781106113f3575087156113cc575050505050826111f1916110e7565b908184528160011b918083046002149015171561086757916003602085019204825261121f60001991611132565b926000926000925b8284106112e257505050506001810361127e57506001600160a01b039061124d90611171565b511660408201525b601054611271606461126960075484611107565b048092611164565b6060830152608082015290565b906112d6906112d060405193602085016112bc866112ae8444428691606093918352602083015260408201520190565b03601f1981018852876110a9565b94519094206001600160a01b039490611192565b9061117e565b51166040820152611255565b909192936112ef8561105c565b60018060a01b0391549060031b1c16600052600b602052604060002060ff600282015460081c16156113bf5760010154835190818111156113b0576113379150845190611164565b915b8083101561137357505090600161134f8561105c565b828060a01b0391549060031b1c1694819561136988611171565b525b019291611227565b92919483600192960361136b576113898161105c565b838060a01b0391549060031b1c166113aa6113a3886110d8565b978961117e565b5261136b565b6113b991611164565b91611339565b509360019092919261136b565b60008086529081905280546001600160a01b03169091526010549091529052949350505050565b6113fc8161105c565b60018060a01b0391549060031b1c16600052600b602052604060002060ff600282015460081c16611431575b506001016111d4565b6114466001929a988361144c930154906110cb565b976110d8565b9890611428565b1561145a57565b60405162461bcd60e51b815260206004820152600a602482015269139bdd081a9bda5b995960b21b6044820152606490fd5b600c546002541161150e576114a6600a54600854906110cb565b6114b2600454826110cb565b906114bf600554836110cb565b918142106000146114da57506114d791504290611164565b90565b80915042106000146114f2576114d791504290611164565b50804210600014611508576114d7904290611164565b50600090565b600090565b60ff6009541660068110156106545760051461158857600c546002541161150e57611543600a54600854906110cb565b61154f600454826110cb565b61155b600554826110cb565b9142101561156a575050600190565b4210156115775750600290565b42101561158357600390565b600490565b600590565b60026001541461159e576002600155565b633ee5aeb560e01b60005260046000fd5b6000546001600160a01b031633036115c357565b63118cdaa760e01b6000523360045260246000fd5b600080600c549060005b8281106118f75750821561184657826115fa916110e7565b80600d558060011b908082046002149015171561086757600390049081600e5561162660001993611132565b9260009260005b83811061176c57505050506001810361172557506001600160a01b039061165390611171565b511660018060a01b0319600f541617600f555b7f1d3b18309fcd7be02b3cb02a6b2eebf55bdc38f582585bbad82e449da17fe810608060105461169d606461126960075484611107565b9060018060a01b036000541660005260116020526116c160406000209182546110cb565b905560018060a01b03600f5416600052601160205260406000206116e68282546110cb565b90556116fa600560ff196009541617600955565b600d5490600e5460018060a01b03600f541690604051938452602084015260408301526060820152a1565b90611755906112d060405193602085016112bc866112ae8444428691606093918352602083015260408201520190565b511660018060a01b0319600f541617600f55611666565b6117758161105c565b60018060a01b0391549060031b1c16600052600b602052604060002060ff600282015460081c166117aa575b5060010161162d565b600101549094919291908380821115611836576117c691611164565b915b808310156118005750509060016117de8561105c565b828060a01b0391549060031b1c169481956117f888611171565b525b906117a1565b9291948360019296036117fa576118168161105c565b838060a01b0391549060031b1c166118306113a3886110d8565b526117fa565b9061184091611164565b916117c8565b50505060105460018060a01b0360005416600052601160205261186f60406000209182546110cb565b905560008054600f80546001600160a01b0319166001600160a01b0392909216919091179055600d819055600e556009805460ff191660051790557f1d3b18309fcd7be02b3cb02a6b2eebf55bdc38f582585bbad82e449da17fe810608060018060a01b03600f541660105460405191600083526000602084015260408301526060820152a1565b6119008161105c565b60018060a01b0391549060031b1c16600052600b602052604060002060ff600282015460081c16611935575b506001016115e2565b61194a600192959383611950930154906110cb565b926110d8565b939061192c56fea2646970667358221220a117532b9ce1755889c66d7c7f85eff1254bea412a97ac25c3badecddcbaff3064736f6c634300081c0033",
  "linkReferences": {},
  "deployedLinkReferences": {}
}